{
  "_format": "hh-sol-artifact-1",
  "contractName": "LiquidityPool",
  "sourceName": "contracts/LiquidityPool.sol",
  "abi": [
    {
      "inputs": [
        {
          "internalType": "contract IERC20",
          "name": "asset",
          "type": "address"
        }
      ],
      "stateMutability": "nonpayable",
      "type": "constructor"
    },
    {
      "anonymous": false,
      "inputs": [
        {
          "indexed": true,
          "internalType": "address",
          "name": "owner",
          "type": "address"
        },
        {
          "indexed": true,
          "internalType": "address",
          "name": "spender",
          "type": "address"
        },
        {
          "indexed": false,
          "internalType": "uint256",
          "name": "value",
          "type": "uint256"
        }
      ],
      "name": "Approval",
      "type": "event"
    },
    {
      "anonymous": false,
      "inputs": [
        {
          "indexed": true,
          "internalType": "address",
          "name": "sender",
          "type": "address"
        },
        {
          "indexed": true,
          "internalType": "address",
          "name": "owner",
          "type": "address"
        },
        {
          "indexed": false,
          "internalType": "uint256",
          "name": "assets",
          "type": "uint256"
        },
        {
          "indexed": false,
          "internalType": "uint256",
          "name": "shares",
          "type": "uint256"
        }
      ],
      "name": "Deposit",
      "type": "event"
    },
    {
      "anonymous": false,
      "inputs": [
        {
          "indexed": true,
          "internalType": "address",
          "name": "from",
          "type": "address"
        },
        {
          "indexed": true,
          "internalType": "address",
          "name": "to",
          "type": "address"
        },
        {
          "indexed": false,
          "internalType": "uint256",
          "name": "value",
          "type": "uint256"
        }
      ],
      "name": "Transfer",
      "type": "event"
    },
    {
      "anonymous": false,
      "inputs": [
        {
          "indexed": true,
          "internalType": "address",
          "name": "sender",
          "type": "address"
        },
        {
          "indexed": true,
          "internalType": "address",
          "name": "receiver",
          "type": "address"
        },
        {
          "indexed": true,
          "internalType": "address",
          "name": "owner",
          "type": "address"
        },
        {
          "indexed": false,
          "internalType": "uint256",
          "name": "assets",
          "type": "uint256"
        },
        {
          "indexed": false,
          "internalType": "uint256",
          "name": "shares",
          "type": "uint256"
        }
      ],
      "name": "Withdraw",
      "type": "event"
    },
    {
      "inputs": [
        {
          "internalType": "address",
          "name": "owner",
          "type": "address"
        },
        {
          "internalType": "address",
          "name": "spender",
          "type": "address"
        }
      ],
      "name": "allowance",
      "outputs": [
        {
          "internalType": "uint256",
          "name": "",
          "type": "uint256"
        }
      ],
      "stateMutability": "view",
      "type": "function"
    },
    {
      "inputs": [
        {
          "internalType": "address",
          "name": "spender",
          "type": "address"
        },
        {
          "internalType": "uint256",
          "name": "amount",
          "type": "uint256"
        }
      ],
      "name": "approve",
      "outputs": [
        {
          "internalType": "bool",
          "name": "",
          "type": "bool"
        }
      ],
      "stateMutability": "nonpayable",
      "type": "function"
    },
    {
      "inputs": [],
      "name": "asset",
      "outputs": [
        {
          "internalType": "address",
          "name": "",
          "type": "address"
        }
      ],
      "stateMutability": "view",
      "type": "function"
    },
    {
      "inputs": [
        {
          "internalType": "address",
          "name": "account",
          "type": "address"
        }
      ],
      "name": "balanceOf",
      "outputs": [
        {
          "internalType": "uint256",
          "name": "",
          "type": "uint256"
        }
      ],
      "stateMutability": "view",
      "type": "function"
    },
    {
      "inputs": [
        {
          "internalType": "uint256",
          "name": "shares",
          "type": "uint256"
        }
      ],
      "name": "convertToAssets",
      "outputs": [
        {
          "internalType": "uint256",
          "name": "assets",
          "type": "uint256"
        }
      ],
      "stateMutability": "view",
      "type": "function"
    },
    {
      "inputs": [
        {
          "internalType": "uint256",
          "name": "assets",
          "type": "uint256"
        }
      ],
      "name": "convertToShares",
      "outputs": [
        {
          "internalType": "uint256",
          "name": "shares",
          "type": "uint256"
        }
      ],
      "stateMutability": "view",
      "type": "function"
    },
    {
      "inputs": [],
      "name": "decimals",
      "outputs": [
        {
          "internalType": "uint8",
          "name": "",
          "type": "uint8"
        }
      ],
      "stateMutability": "view",
      "type": "function"
    },
    {
      "inputs": [
        {
          "internalType": "address",
          "name": "spender",
          "type": "address"
        },
        {
          "internalType": "uint256",
          "name": "subtractedValue",
          "type": "uint256"
        }
      ],
      "name": "decreaseAllowance",
      "outputs": [
        {
          "internalType": "bool",
          "name": "",
          "type": "bool"
        }
      ],
      "stateMutability": "nonpayable",
      "type": "function"
    },
    {
      "inputs": [
        {
          "internalType": "uint256",
          "name": "assets",
          "type": "uint256"
        },
        {
          "internalType": "address",
          "name": "receiver",
          "type": "address"
        }
      ],
      "name": "deposit",
      "outputs": [
        {
          "internalType": "uint256",
          "name": "",
          "type": "uint256"
        }
      ],
      "stateMutability": "nonpayable",
      "type": "function"
    },
    {
      "inputs": [
        {
          "internalType": "address",
          "name": "spender",
          "type": "address"
        },
        {
          "internalType": "uint256",
          "name": "addedValue",
          "type": "uint256"
        }
      ],
      "name": "increaseAllowance",
      "outputs": [
        {
          "internalType": "bool",
          "name": "",
          "type": "bool"
        }
      ],
      "stateMutability": "nonpayable",
      "type": "function"
    },
    {
      "inputs": [],
      "name": "market",
      "outputs": [
        {
          "internalType": "contract Market",
          "name": "",
          "type": "address"
        }
      ],
      "stateMutability": "view",
      "type": "function"
    },
    {
      "inputs": [
        {
          "internalType": "address",
          "name": "",
          "type": "address"
        }
      ],
      "name": "maxDeposit",
      "outputs": [
        {
          "internalType": "uint256",
          "name": "",
          "type": "uint256"
        }
      ],
      "stateMutability": "view",
      "type": "function"
    },
    {
      "inputs": [
        {
          "internalType": "address",
          "name": "",
          "type": "address"
        }
      ],
      "name": "maxMint",
      "outputs": [
        {
          "internalType": "uint256",
          "name": "",
          "type": "uint256"
        }
      ],
      "stateMutability": "view",
      "type": "function"
    },
    {
      "inputs": [
        {
          "internalType": "address",
          "name": "owner",
          "type": "address"
        }
      ],
      "name": "maxRedeem",
      "outputs": [
        {
          "internalType": "uint256",
          "name": "",
          "type": "uint256"
        }
      ],
      "stateMutability": "view",
      "type": "function"
    },
    {
      "inputs": [
        {
          "internalType": "address",
          "name": "owner",
          "type": "address"
        }
      ],
      "name": "maxWithdraw",
      "outputs": [
        {
          "internalType": "uint256",
          "name": "",
          "type": "uint256"
        }
      ],
      "stateMutability": "view",
      "type": "function"
    },
    {
      "inputs": [
        {
          "internalType": "uint256",
          "name": "shares",
          "type": "uint256"
        },
        {
          "internalType": "address",
          "name": "receiver",
          "type": "address"
        }
      ],
      "name": "mint",
      "outputs": [
        {
          "internalType": "uint256",
          "name": "",
          "type": "uint256"
        }
      ],
      "stateMutability": "nonpayable",
      "type": "function"
    },
    {
      "inputs": [],
      "name": "name",
      "outputs": [
        {
          "internalType": "string",
          "name": "",
          "type": "string"
        }
      ],
      "stateMutability": "view",
      "type": "function"
    },
    {
      "inputs": [
        {
          "internalType": "uint256",
          "name": "assets",
          "type": "uint256"
        }
      ],
      "name": "previewDeposit",
      "outputs": [
        {
          "internalType": "uint256",
          "name": "",
          "type": "uint256"
        }
      ],
      "stateMutability": "view",
      "type": "function"
    },
    {
      "inputs": [
        {
          "internalType": "uint256",
          "name": "shares",
          "type": "uint256"
        }
      ],
      "name": "previewMint",
      "outputs": [
        {
          "internalType": "uint256",
          "name": "",
          "type": "uint256"
        }
      ],
      "stateMutability": "view",
      "type": "function"
    },
    {
      "inputs": [
        {
          "internalType": "uint256",
          "name": "shares",
          "type": "uint256"
        }
      ],
      "name": "previewRedeem",
      "outputs": [
        {
          "internalType": "uint256",
          "name": "",
          "type": "uint256"
        }
      ],
      "stateMutability": "view",
      "type": "function"
    },
    {
      "inputs": [
        {
          "internalType": "uint256",
          "name": "assets",
          "type": "uint256"
        }
      ],
      "name": "previewWithdraw",
      "outputs": [
        {
          "internalType": "uint256",
          "name": "",
          "type": "uint256"
        }
      ],
      "stateMutability": "view",
      "type": "function"
    },
    {
      "inputs": [
        {
          "internalType": "uint256",
          "name": "shares",
          "type": "uint256"
        },
        {
          "internalType": "address",
          "name": "receiver",
          "type": "address"
        },
        {
          "internalType": "address",
          "name": "owner",
          "type": "address"
        }
      ],
      "name": "redeem",
      "outputs": [
        {
          "internalType": "uint256",
          "name": "",
          "type": "uint256"
        }
      ],
      "stateMutability": "nonpayable",
      "type": "function"
    },
    {
      "inputs": [
        {
          "internalType": "uint256",
          "name": "amount",
          "type": "uint256"
        }
      ],
      "name": "reserveAmount",
      "outputs": [],
      "stateMutability": "nonpayable",
      "type": "function"
    },
    {
      "inputs": [],
      "name": "symbol",
      "outputs": [
        {
          "internalType": "string",
          "name": "",
          "type": "string"
        }
      ],
      "stateMutability": "view",
      "type": "function"
    },
    {
      "inputs": [],
      "name": "totalAssets",
      "outputs": [
        {
          "internalType": "uint256",
          "name": "",
          "type": "uint256"
        }
      ],
      "stateMutability": "view",
      "type": "function"
    },
    {
      "inputs": [],
      "name": "totalSupply",
      "outputs": [
        {
          "internalType": "uint256",
          "name": "",
          "type": "uint256"
        }
      ],
      "stateMutability": "view",
      "type": "function"
    },
    {
      "inputs": [
        {
          "internalType": "address",
          "name": "to",
          "type": "address"
        },
        {
          "internalType": "uint256",
          "name": "amount",
          "type": "uint256"
        }
      ],
      "name": "transfer",
      "outputs": [
        {
          "internalType": "bool",
          "name": "",
          "type": "bool"
        }
      ],
      "stateMutability": "nonpayable",
      "type": "function"
    },
    {
      "inputs": [
        {
          "internalType": "address",
          "name": "from",
          "type": "address"
        },
        {
          "internalType": "address",
          "name": "to",
          "type": "address"
        },
        {
          "internalType": "uint256",
          "name": "amount",
          "type": "uint256"
        }
      ],
      "name": "transferFrom",
      "outputs": [
        {
          "internalType": "bool",
          "name": "",
          "type": "bool"
        }
      ],
      "stateMutability": "nonpayable",
      "type": "function"
    },
    {
      "inputs": [
        {
          "internalType": "uint256",
          "name": "assets",
          "type": "uint256"
        },
        {
          "internalType": "address",
          "name": "receiver",
          "type": "address"
        },
        {
          "internalType": "address",
          "name": "owner",
          "type": "address"
        }
      ],
      "name": "withdraw",
      "outputs": [
        {
          "internalType": "uint256",
          "name": "",
          "type": "uint256"
        }
      ],
      "stateMutability": "nonpayable",
      "type": "function"
    }
  ],
  "bytecode": "0x60e06040523480156200001157600080fd5b5060405162008588380380620085888339818101604052810190620000379190620003fe565b806040518060400160405280600e81526020017f436f72616c204c5020546f6b656e0000000000000000000000000000000000008152506040518060400160405280600481526020017f432d4c50000000000000000000000000000000000000000000000000000000008152508160039081620000b59190620006aa565b508060049081620000c79190620006aa565b505050600080620000de836200022d60201b60201c565b91509150816200010357620000fd6200036960201b62000f0c1760201c565b62000105565b805b60ff1660a08160ff16815250508273ffffffffffffffffffffffffffffffffffffffff1660808173ffffffffffffffffffffffffffffffffffffffff168152505050505030604051620001589062000372565b620001649190620007a2565b604051809103906000f08015801562000181573d6000803e3d6000fd5b5073ffffffffffffffffffffffffffffffffffffffff1660c08173ffffffffffffffffffffffffffffffffffffffff168152505060c05173ffffffffffffffffffffffffffffffffffffffff166375829def336040518263ffffffff1660e01b8152600401620001f29190620007a2565b600060405180830381600087803b1580156200020d57600080fd5b505af115801562000222573d6000803e3d6000fd5b5050505050620008b4565b6000806000808473ffffffffffffffffffffffffffffffffffffffff1663313ce56760e01b604051602401604051602081830303815290604052907bffffffffffffffffffffffffffffffffffffffffffffffffffffffff19166020820180517bffffffffffffffffffffffffffffffffffffffffffffffffffffffff8381831617835250505050604051620002c4919062000838565b6000604051808303816000865af19150503d806000811462000303576040519150601f19603f3d011682016040523d82523d6000602084013e62000308565b606091505b50915091508180156200031d57506020815110155b156200035a576000818060200190518101906200033b919062000882565b905060ff8016811162000358576001819450945050505062000364565b505b6000809350935050505b915091565b60006012905090565b614dcd80620037bb83390190565b600080fd5b600073ffffffffffffffffffffffffffffffffffffffff82169050919050565b6000620003b28262000385565b9050919050565b6000620003c682620003a5565b9050919050565b620003d881620003b9565b8114620003e457600080fd5b50565b600081519050620003f881620003cd565b92915050565b60006020828403121562000417576200041662000380565b5b60006200042784828501620003e7565b91505092915050565b600081519050919050565b7f4e487b7100000000000000000000000000000000000000000000000000000000600052604160045260246000fd5b7f4e487b7100000000000000000000000000000000000000000000000000000000600052602260045260246000fd5b60006002820490506001821680620004b257607f821691505b602082108103620004c857620004c76200046a565b5b50919050565b60008190508160005260206000209050919050565b60006020601f8301049050919050565b600082821b905092915050565b600060088302620005327fffffffffffffffffffffffffffffffffffffffffffffffffffffffffffffffff82620004f3565b6200053e8683620004f3565b95508019841693508086168417925050509392505050565b6000819050919050565b6000819050919050565b60006200058b620005856200057f8462000556565b62000560565b62000556565b9050919050565b6000819050919050565b620005a7836200056a565b620005bf620005b68262000592565b84845462000500565b825550505050565b600090565b620005d6620005c7565b620005e38184846200059c565b505050565b5b818110156200060b57620005ff600082620005cc565b600181019050620005e9565b5050565b601f8211156200065a576200062481620004ce565b6200062f84620004e3565b810160208510156200063f578190505b620006576200064e85620004e3565b830182620005e8565b50505b505050565b600082821c905092915050565b60006200067f600019846008026200065f565b1980831691505092915050565b60006200069a83836200066c565b9150826002028217905092915050565b620006b58262000430565b67ffffffffffffffff811115620006d157620006d06200043b565b5b620006dd825462000499565b620006ea8282856200060f565b600060209050601f8311600181146200072257600084156200070d578287015190505b6200071985826200068c565b86555062000789565b601f1984166200073286620004ce565b60005b828110156200075c5784890151825560018201915060208501945060208101905062000735565b868310156200077c578489015162000778601f8916826200066c565b8355505b6001600288020188555050505b505050505050565b6200079c81620003a5565b82525050565b6000602082019050620007b9600083018462000791565b92915050565b600081519050919050565b600081905092915050565b60005b83811015620007f5578082015181840152602081019050620007d8565b60008484015250505050565b60006200080e82620007bf565b6200081a8185620007ca565b93506200082c818560208601620007d5565b80840191505092915050565b600062000846828462000801565b915081905092915050565b6200085c8162000556565b81146200086857600080fd5b50565b6000815190506200087c8162000851565b92915050565b6000602082840312156200089b576200089a62000380565b5b6000620008ab848285016200086b565b91505092915050565b60805160a05160c051612eb46200090760003960008181610a0301528181610dd70152610e880152600061086d0152600081816106b601528181610895015281816114b3015261159f0152612eb46000f3fe608060405234801561001057600080fd5b50600436106101cf5760003560e01c806380f5560511610104578063ba087652116100a2578063d905777e11610071578063d905777e14610606578063dd62ed3e14610636578063ef8b30f714610666578063f0dd71c714610696576101cf565b8063ba08765214610546578063c63d75b614610576578063c6e6f592146105a6578063ce96cb77146105d6576101cf565b8063a457c2d7116100de578063a457c2d714610486578063a9059cbb146104b6578063b3d7f6b9146104e6578063b460af9414610516576101cf565b806380f556051461041a57806394bf804d1461043857806395d89b4114610468576101cf565b8063313ce56711610171578063402d267d1161014b578063402d267d1461035a5780634cdad5061461038a5780636e553f65146103ba57806370a08231146103ea576101cf565b8063313ce567146102ee57806338d52e0f1461030c578063395093511461032a576101cf565b8063095ea7b3116101ad578063095ea7b3146102405780630a28a4771461027057806318160ddd146102a057806323b872dd146102be576101cf565b806301e1d114146101d457806306fdde03146101f257806307a2d13a14610210575b600080fd5b6101dc6106b2565b6040516101e99190611e9a565b60405180910390f35b6101fa610753565b6040516102079190611f45565b60405180910390f35b61022a60048036038101906102259190611f98565b6107e5565b6040516102379190611e9a565b60405180910390f35b61025a60048036038101906102559190612023565b6107f9565b604051610267919061207e565b60405180910390f35b61028a60048036038101906102859190611f98565b61081c565b6040516102979190611e9a565b60405180910390f35b6102a8610830565b6040516102b59190611e9a565b60405180910390f35b6102d860048036038101906102d39190612099565b61083a565b6040516102e5919061207e565b60405180910390f35b6102f6610869565b6040516103039190612108565b60405180910390f35b610314610891565b6040516103219190612132565b60405180910390f35b610344600480360381019061033f9190612023565b6108b9565b604051610351919061207e565b60405180910390f35b610374600480360381019061036f919061214d565b6108f0565b6040516103819190611e9a565b60405180910390f35b6103a4600480360381019061039f9190611f98565b61092e565b6040516103b19190611e9a565b60405180910390f35b6103d460048036038101906103cf919061217a565b610942565b6040516103e19190611e9a565b60405180910390f35b61040460048036038101906103ff919061214d565b6109b9565b6040516104119190611e9a565b60405180910390f35b610422610a01565b60405161042f9190612219565b60405180910390f35b610452600480360381019061044d919061217a565b610a25565b60405161045f9190611e9a565b60405180910390f35b610470610a9c565b60405161047d9190611f45565b60405180910390f35b6104a0600480360381019061049b9190612023565b610b2e565b6040516104ad919061207e565b60405180910390f35b6104d060048036038101906104cb9190612023565b610ba5565b6040516104dd919061207e565b60405180910390f35b61050060048036038101906104fb9190611f98565b610bc8565b60405161050d9190611e9a565b60405180910390f35b610530600480360381019061052b9190612234565b610bdc565b60405161053d9190611e9a565b60405180910390f35b610560600480360381019061055b9190612234565b610c55565b60405161056d9190611e9a565b60405180910390f35b610590600480360381019061058b919061214d565b610cce565b60405161059d9190611e9a565b60405180910390f35b6105c060048036038101906105bb9190611f98565b610cf8565b6040516105cd9190611e9a565b60405180910390f35b6105f060048036038101906105eb919061214d565b610d0c565b6040516105fd9190611e9a565b60405180910390f35b610620600480360381019061061b919061214d565b610d28565b60405161062d9190611e9a565b60405180910390f35b610650600480360381019061064b9190612287565b610d3a565b60405161065d9190611e9a565b60405180910390f35b610680600480360381019061067b9190611f98565b610dc1565b60405161068d9190611e9a565b60405180910390f35b6106b060048036038101906106ab9190611f98565b610dd5565b005b60007f000000000000000000000000000000000000000000000000000000000000000073ffffffffffffffffffffffffffffffffffffffff166370a08231306040518263ffffffff1660e01b815260040161070d9190612132565b602060405180830381865afa15801561072a573d6000803e3d6000fd5b505050506040513d601f19601f8201168201806040525081019061074e91906122dc565b905090565b60606003805461076290612338565b80601f016020809104026020016040519081016040528092919081815260200182805461078e90612338565b80156107db5780601f106107b0576101008083540402835291602001916107db565b820191906000526020600020905b8154815290600101906020018083116107be57829003601f168201915b5050505050905090565b60006107f2826000610f15565b9050919050565b600080610804610f61565b9050610811818585610f69565b600191505092915050565b6000610829826001611132565b9050919050565b6000600254905090565b600080610845610f61565b9050610852858285611189565b61085d858585611215565b60019150509392505050565b60007f0000000000000000000000000000000000000000000000000000000000000000905090565b60007f0000000000000000000000000000000000000000000000000000000000000000905090565b6000806108c4610f61565b90506108e58185856108d68589610d3a565b6108e09190612398565b610f69565b600191505092915050565b60006108fa61148b565b610905576000610927565b7fffffffffffffffffffffffffffffffffffffffffffffffffffffffffffffffff5b9050919050565b600061093b826000610f15565b9050919050565b600061094d826108f0565b83111561098f576040517f08c379a000000000000000000000000000000000000000000000000000000000815260040161098690612418565b60405180910390fd5b600061099a84610dc1565b90506109af6109a7610f61565b8486846114ae565b8091505092915050565b60008060008373ffffffffffffffffffffffffffffffffffffffff1673ffffffffffffffffffffffffffffffffffffffff168152602001908152602001600020549050919050565b7f000000000000000000000000000000000000000000000000000000000000000081565b6000610a3082610cce565b831115610a72576040517f08c379a0000000000000000000000000000000000000000000000000000000008152600401610a6990612484565b60405180910390fd5b6000610a7d84610bc8565b9050610a92610a8a610f61565b8483876114ae565b8091505092915050565b606060048054610aab90612338565b80601f0160208091040260200160405190810160405280929190818152602001828054610ad790612338565b8015610b245780601f10610af957610100808354040283529160200191610b24565b820191906000526020600020905b815481529060010190602001808311610b0757829003601f168201915b5050505050905090565b600080610b39610f61565b90506000610b478286610d3a565b905083811015610b8c576040517f08c379a0000000000000000000000000000000000000000000000000000000008152600401610b8390612516565b60405180910390fd5b610b998286868403610f69565b60019250505092915050565b600080610bb0610f61565b9050610bbd818585611215565b600191505092915050565b6000610bd5826001610f15565b9050919050565b6000610be782610d0c565b841115610c29576040517f08c379a0000000000000000000000000000000000000000000000000000000008152600401610c2090612582565b60405180910390fd5b6000610c348561081c565b9050610c4a610c41610f61565b85858885611551565b809150509392505050565b6000610c6082610d28565b841115610ca2576040517f08c379a0000000000000000000000000000000000000000000000000000000008152600401610c99906125ee565b60405180910390fd5b6000610cad8561092e565b9050610cc3610cba610f61565b85858489611551565b809150509392505050565b60007fffffffffffffffffffffffffffffffffffffffffffffffffffffffffffffffff9050919050565b6000610d05826000611132565b9050919050565b6000610d21610d1a836109b9565b6000610f15565b9050919050565b6000610d33826109b9565b9050919050565b6000600160008473ffffffffffffffffffffffffffffffffffffffff1673ffffffffffffffffffffffffffffffffffffffff16815260200190815260200160002060008373ffffffffffffffffffffffffffffffffffffffff1673ffffffffffffffffffffffffffffffffffffffff16815260200190815260200160002054905092915050565b6000610dce826000611132565b9050919050565b7f000000000000000000000000000000000000000000000000000000000000000073ffffffffffffffffffffffffffffffffffffffff163373ffffffffffffffffffffffffffffffffffffffff1614610e63576040517f08c379a0000000000000000000000000000000000000000000000000000000008152600401610e5a9061265a565b60405180910390fd5b610e6b610891565b73ffffffffffffffffffffffffffffffffffffffff1663a9059cbb7f0000000000000000000000000000000000000000000000000000000000000000836040518363ffffffff1660e01b8152600401610ec592919061267a565b6020604051808303816000875af1158015610ee4573d6000803e3d6000fd5b505050506040513d601f19601f82011682018060405250810190610f0891906126cf565b5050565b60006012905090565b600080610f20610830565b905060008114610f4d57610f48610f356106b2565b82858761164a909392919063ffffffff16565b610f58565b610f5784846116c0565b5b91505092915050565b600033905090565b600073ffffffffffffffffffffffffffffffffffffffff168373ffffffffffffffffffffffffffffffffffffffff1603610fd8576040517f08c379a0000000000000000000000000000000000000000000000000000000008152600401610fcf9061276e565b60405180910390fd5b600073ffffffffffffffffffffffffffffffffffffffff168273ffffffffffffffffffffffffffffffffffffffff1603611047576040517f08c379a000000000000000000000000000000000000000000000000000000000815260040161103e90612800565b60405180910390fd5b80600160008573ffffffffffffffffffffffffffffffffffffffff1673ffffffffffffffffffffffffffffffffffffffff16815260200190815260200160002060008473ffffffffffffffffffffffffffffffffffffffff1673ffffffffffffffffffffffffffffffffffffffff168152602001908152602001600020819055508173ffffffffffffffffffffffffffffffffffffffff168373ffffffffffffffffffffffffffffffffffffffff167f8c5be1e5ebec7d5bd14f71427d1e84f3dd0314c0f7b2291e5b200ac8c7c3b925836040516111259190611e9a565b60405180910390a3505050565b60008061113d610830565b9050600084148061114e5750600081145b611175576111708161115e6106b2565b858761164a909392919063ffffffff16565b611180565b61117f84846116cb565b5b91505092915050565b60006111958484610d3a565b90507fffffffffffffffffffffffffffffffffffffffffffffffffffffffffffffffff811461120f5781811015611201576040517f08c379a00000000000000000000000000000000000000000000000000000000081526004016111f89061286c565b60405180910390fd5b61120e8484848403610f69565b5b50505050565b600073ffffffffffffffffffffffffffffffffffffffff168373ffffffffffffffffffffffffffffffffffffffff1603611284576040517f08c379a000000000000000000000000000000000000000000000000000000000815260040161127b906128fe565b60405180910390fd5b600073ffffffffffffffffffffffffffffffffffffffff168273ffffffffffffffffffffffffffffffffffffffff16036112f3576040517f08c379a00000000000000000000000000000000000000000000000000000000081526004016112ea90612990565b60405180910390fd5b6112fe8383836116d6565b60008060008573ffffffffffffffffffffffffffffffffffffffff1673ffffffffffffffffffffffffffffffffffffffff16815260200190815260200160002054905081811015611384576040517f08c379a000000000000000000000000000000000000000000000000000000000815260040161137b90612a22565b60405180910390fd5b8181036000808673ffffffffffffffffffffffffffffffffffffffff1673ffffffffffffffffffffffffffffffffffffffff16815260200190815260200160002081905550816000808573ffffffffffffffffffffffffffffffffffffffff1673ffffffffffffffffffffffffffffffffffffffff168152602001908152602001600020600082825401925050819055508273ffffffffffffffffffffffffffffffffffffffff168473ffffffffffffffffffffffffffffffffffffffff167fddf252ad1be2c89b69c2b068fc378daa952ba7f163c4a11628f55a4df523b3ef846040516114729190611e9a565b60405180910390a36114858484846116db565b50505050565b6000806114966106b2565b11806114a9575060006114a7610830565b145b905090565b6114da7f00000000000000000000000000000000000000000000000000000000000000008530856116e0565b6114e48382611769565b8273ffffffffffffffffffffffffffffffffffffffff168473ffffffffffffffffffffffffffffffffffffffff167fdcbc1c05240f31ff3ad067ef1ee35ce4997762752e3a095284754544f4c709d78484604051611543929190612a42565b60405180910390a350505050565b8273ffffffffffffffffffffffffffffffffffffffff168573ffffffffffffffffffffffffffffffffffffffff16146115905761158f838683611189565b5b61159a83826118bf565b6115c57f00000000000000000000000000000000000000000000000000000000000000008584611a8c565b8273ffffffffffffffffffffffffffffffffffffffff168473ffffffffffffffffffffffffffffffffffffffff168673ffffffffffffffffffffffffffffffffffffffff167ffbde797d201c681b91056529119e0b02407c7bb96a4a2c75c01fc9667232c8db858560405161163b929190612a42565b60405180910390a45050505050565b600080611658868686611b12565b90506001600281111561166e5761166d612a6b565b5b83600281111561168157611680612a6b565b5b14801561169f57506000848061169a57611699612a9a565b5b868809115b156116b4576001816116b19190612398565b90505b80915050949350505050565b600082905092915050565b600082905092915050565b505050565b505050565b611763846323b872dd60e01b85858560405160240161170193929190612ac9565b604051602081830303815290604052907bffffffffffffffffffffffffffffffffffffffffffffffffffffffff19166020820180517bffffffffffffffffffffffffffffffffffffffffffffffffffffffff8381831617835250505050611bed565b50505050565b600073ffffffffffffffffffffffffffffffffffffffff168273ffffffffffffffffffffffffffffffffffffffff16036117d8576040517f08c379a00000000000000000000000000000000000000000000000000000000081526004016117cf90612b4c565b60405180910390fd5b6117e4600083836116d6565b80600260008282546117f69190612398565b92505081905550806000808473ffffffffffffffffffffffffffffffffffffffff1673ffffffffffffffffffffffffffffffffffffffff168152602001908152602001600020600082825401925050819055508173ffffffffffffffffffffffffffffffffffffffff16600073ffffffffffffffffffffffffffffffffffffffff167fddf252ad1be2c89b69c2b068fc378daa952ba7f163c4a11628f55a4df523b3ef836040516118a79190611e9a565b60405180910390a36118bb600083836116db565b5050565b600073ffffffffffffffffffffffffffffffffffffffff168273ffffffffffffffffffffffffffffffffffffffff160361192e576040517f08c379a000000000000000000000000000000000000000000000000000000000815260040161192590612bde565b60405180910390fd5b61193a826000836116d6565b60008060008473ffffffffffffffffffffffffffffffffffffffff1673ffffffffffffffffffffffffffffffffffffffff168152602001908152602001600020549050818110156119c0576040517f08c379a00000000000000000000000000000000000000000000000000000000081526004016119b790612c70565b60405180910390fd5b8181036000808573ffffffffffffffffffffffffffffffffffffffff1673ffffffffffffffffffffffffffffffffffffffff1681526020019081526020016000208190555081600260008282540392505081905550600073ffffffffffffffffffffffffffffffffffffffff168373ffffffffffffffffffffffffffffffffffffffff167fddf252ad1be2c89b69c2b068fc378daa952ba7f163c4a11628f55a4df523b3ef84604051611a739190611e9a565b60405180910390a3611a87836000846116db565b505050565b611b0d8363a9059cbb60e01b8484604051602401611aab92919061267a565b604051602081830303815290604052907bffffffffffffffffffffffffffffffffffffffffffffffffffffffff19166020820180517bffffffffffffffffffffffffffffffffffffffffffffffffffffffff8381831617835250505050611bed565b505050565b6000806000801985870985870292508281108382030391505060008103611b4d57838281611b4357611b42612a9a565b5b0492505050611be6565b808411611b5957600080fd5b60008486880990508281118203915080830392506000600186190186169050808604955080840493506001818260000304019050808302841793506000600287600302189050808702600203810290508087026002038102905080870260020381029050808702600203810290508087026002038102905080870260020381029050808502955050505050505b9392505050565b6000611c4f826040518060400160405280602081526020017f5361666545524332303a206c6f772d6c6576656c2063616c6c206661696c65648152508573ffffffffffffffffffffffffffffffffffffffff16611cb49092919063ffffffff16565b9050600081511115611caf5780806020019051810190611c6f91906126cf565b611cae576040517f08c379a0000000000000000000000000000000000000000000000000000000008152600401611ca590612d02565b60405180910390fd5b5b505050565b6060611cc38484600085611ccc565b90509392505050565b606082471015611d11576040517f08c379a0000000000000000000000000000000000000000000000000000000008152600401611d0890612d94565b60405180910390fd5b6000808673ffffffffffffffffffffffffffffffffffffffff168587604051611d3a9190612dfb565b60006040518083038185875af1925050503d8060008114611d77576040519150601f19603f3d011682016040523d82523d6000602084013e611d7c565b606091505b5091509150611d8d87838387611d99565b92505050949350505050565b60608315611dfb576000835103611df357611db385611e0e565b611df2576040517f08c379a0000000000000000000000000000000000000000000000000000000008152600401611de990612e5e565b60405180910390fd5b5b829050611e06565b611e058383611e31565b5b949350505050565b6000808273ffffffffffffffffffffffffffffffffffffffff163b119050919050565b600082511115611e445781518083602001fd5b806040517f08c379a0000000000000000000000000000000000000000000000000000000008152600401611e789190611f45565b60405180910390fd5b6000819050919050565b611e9481611e81565b82525050565b6000602082019050611eaf6000830184611e8b565b92915050565b600081519050919050565b600082825260208201905092915050565b60005b83811015611eef578082015181840152602081019050611ed4565b60008484015250505050565b6000601f19601f8301169050919050565b6000611f1782611eb5565b611f218185611ec0565b9350611f31818560208601611ed1565b611f3a81611efb565b840191505092915050565b60006020820190508181036000830152611f5f8184611f0c565b905092915050565b600080fd5b611f7581611e81565b8114611f8057600080fd5b50565b600081359050611f9281611f6c565b92915050565b600060208284031215611fae57611fad611f67565b5b6000611fbc84828501611f83565b91505092915050565b600073ffffffffffffffffffffffffffffffffffffffff82169050919050565b6000611ff082611fc5565b9050919050565b61200081611fe5565b811461200b57600080fd5b50565b60008135905061201d81611ff7565b92915050565b6000806040838503121561203a57612039611f67565b5b60006120488582860161200e565b925050602061205985828601611f83565b9150509250929050565b60008115159050919050565b61207881612063565b82525050565b6000602082019050612093600083018461206f565b92915050565b6000806000606084860312156120b2576120b1611f67565b5b60006120c08682870161200e565b93505060206120d18682870161200e565b92505060406120e286828701611f83565b9150509250925092565b600060ff82169050919050565b612102816120ec565b82525050565b600060208201905061211d60008301846120f9565b92915050565b61212c81611fe5565b82525050565b60006020820190506121476000830184612123565b92915050565b60006020828403121561216357612162611f67565b5b60006121718482850161200e565b91505092915050565b6000806040838503121561219157612190611f67565b5b600061219f85828601611f83565b92505060206121b08582860161200e565b9150509250929050565b6000819050919050565b60006121df6121da6121d584611fc5565b6121ba565b611fc5565b9050919050565b60006121f1826121c4565b9050919050565b6000612203826121e6565b9050919050565b612213816121f8565b82525050565b600060208201905061222e600083018461220a565b92915050565b60008060006060848603121561224d5761224c611f67565b5b600061225b86828701611f83565b935050602061226c8682870161200e565b925050604061227d8682870161200e565b9150509250925092565b6000806040838503121561229e5761229d611f67565b5b60006122ac8582860161200e565b92505060206122bd8582860161200e565b9150509250929050565b6000815190506122d681611f6c565b92915050565b6000602082840312156122f2576122f1611f67565b5b6000612300848285016122c7565b91505092915050565b7f4e487b7100000000000000000000000000000000000000000000000000000000600052602260045260246000fd5b6000600282049050600182168061235057607f821691505b60208210810361236357612362612309565b5b50919050565b7f4e487b7100000000000000000000000000000000000000000000000000000000600052601160045260246000fd5b60006123a382611e81565b91506123ae83611e81565b92508282019050808211156123c6576123c5612369565b5b92915050565b7f455243343632363a206465706f736974206d6f7265207468616e206d61780000600082015250565b6000612402601e83611ec0565b915061240d826123cc565b602082019050919050565b60006020820190508181036000830152612431816123f5565b9050919050565b7f455243343632363a206d696e74206d6f7265207468616e206d61780000000000600082015250565b600061246e601b83611ec0565b915061247982612438565b602082019050919050565b6000602082019050818103600083015261249d81612461565b9050919050565b7f45524332303a2064656372656173656420616c6c6f77616e63652062656c6f7760008201527f207a65726f000000000000000000000000000000000000000000000000000000602082015250565b6000612500602583611ec0565b915061250b826124a4565b604082019050919050565b6000602082019050818103600083015261252f816124f3565b9050919050565b7f455243343632363a207769746864726177206d6f7265207468616e206d617800600082015250565b600061256c601f83611ec0565b915061257782612536565b602082019050919050565b6000602082019050818103600083015261259b8161255f565b9050919050565b7f455243343632363a2072656465656d206d6f7265207468616e206d6178000000600082015250565b60006125d8601d83611ec0565b91506125e3826125a2565b602082019050919050565b60006020820190508181036000830152612607816125cb565b9050919050565b7f556e617574686f72697a65642063616c6c657200000000000000000000000000600082015250565b6000612644601383611ec0565b915061264f8261260e565b602082019050919050565b6000602082019050818103600083015261267381612637565b9050919050565b600060408201905061268f6000830185612123565b61269c6020830184611e8b565b9392505050565b6126ac81612063565b81146126b757600080fd5b50565b6000815190506126c9816126a3565b92915050565b6000602082840312156126e5576126e4611f67565b5b60006126f3848285016126ba565b91505092915050565b7f45524332303a20617070726f76652066726f6d20746865207a65726f2061646460008201527f7265737300000000000000000000000000000000000000000000000000000000602082015250565b6000612758602483611ec0565b9150612763826126fc565b604082019050919050565b600060208201905081810360008301526127878161274b565b9050919050565b7f45524332303a20617070726f766520746f20746865207a65726f20616464726560008201527f7373000000000000000000000000000000000000000000000000000000000000602082015250565b60006127ea602283611ec0565b91506127f58261278e565b604082019050919050565b60006020820190508181036000830152612819816127dd565b9050919050565b7f45524332303a20696e73756666696369656e7420616c6c6f77616e6365000000600082015250565b6000612856601d83611ec0565b915061286182612820565b602082019050919050565b6000602082019050818103600083015261288581612849565b9050919050565b7f45524332303a207472616e736665722066726f6d20746865207a65726f20616460008201527f6472657373000000000000000000000000000000000000000000000000000000602082015250565b60006128e8602583611ec0565b91506128f38261288c565b604082019050919050565b60006020820190508181036000830152612917816128db565b9050919050565b7f45524332303a207472616e7366657220746f20746865207a65726f206164647260008201527f6573730000000000000000000000000000000000000000000000000000000000602082015250565b600061297a602383611ec0565b91506129858261291e565b604082019050919050565b600060208201905081810360008301526129a98161296d565b9050919050565b7f45524332303a207472616e7366657220616d6f756e742065786365656473206260008201527f616c616e63650000000000000000000000000000000000000000000000000000602082015250565b6000612a0c602683611ec0565b9150612a17826129b0565b604082019050919050565b60006020820190508181036000830152612a3b816129ff565b9050919050565b6000604082019050612a576000830185611e8b565b612a646020830184611e8b565b9392505050565b7f4e487b7100000000000000000000000000000000000000000000000000000000600052602160045260246000fd5b7f4e487b7100000000000000000000000000000000000000000000000000000000600052601260045260246000fd5b6000606082019050612ade6000830186612123565b612aeb6020830185612123565b612af86040830184611e8b565b949350505050565b7f45524332303a206d696e7420746f20746865207a65726f206164647265737300600082015250565b6000612b36601f83611ec0565b9150612b4182612b00565b602082019050919050565b60006020820190508181036000830152612b6581612b29565b9050919050565b7f45524332303a206275726e2066726f6d20746865207a65726f2061646472657360008201527f7300000000000000000000000000000000000000000000000000000000000000602082015250565b6000612bc8602183611ec0565b9150612bd382612b6c565b604082019050919050565b60006020820190508181036000830152612bf781612bbb565b9050919050565b7f45524332303a206275726e20616d6f756e7420657863656564732062616c616e60008201527f6365000000000000000000000000000000000000000000000000000000000000602082015250565b6000612c5a602283611ec0565b9150612c6582612bfe565b604082019050919050565b60006020820190508181036000830152612c8981612c4d565b9050919050565b7f5361666545524332303a204552433230206f7065726174696f6e20646964206e60008201527f6f74207375636365656400000000000000000000000000000000000000000000602082015250565b6000612cec602a83611ec0565b9150612cf782612c90565b604082019050919050565b60006020820190508181036000830152612d1b81612cdf565b9050919050565b7f416464726573733a20696e73756666696369656e742062616c616e636520666f60008201527f722063616c6c0000000000000000000000000000000000000000000000000000602082015250565b6000612d7e602683611ec0565b9150612d8982612d22565b604082019050919050565b60006020820190508181036000830152612dad81612d71565b9050919050565b600081519050919050565b600081905092915050565b6000612dd582612db4565b612ddf8185612dbf565b9350612def818560208601611ed1565b80840191505092915050565b6000612e078284612dca565b915081905092915050565b7f416464726573733a2063616c6c20746f206e6f6e2d636f6e7472616374000000600082015250565b6000612e48601d83611ec0565b9150612e5382612e12565b602082019050919050565b60006020820190508181036000830152612e7781612e3b565b905091905056fea26469706673582212209e04774e2a10e67f8f1ce3671d5c96f2af67a2906091031256f785d9b0b712d964736f6c6343000810003360a06040523480156200001157600080fd5b5060405162004dcd38038062004dcd8339818101604052810190620000379190620001af565b6040518060400160405280601481526020017f436f72616c2042696e617279204f7074696f6e730000000000000000000000008152506040518060400160405280600481526020017f432d424f000000000000000000000000000000000000000000000000000000008152508160009081620000b491906200045b565b508060019081620000c691906200045b565b50505033600660006101000a81548173ffffffffffffffffffffffffffffffffffffffff021916908373ffffffffffffffffffffffffffffffffffffffff1602179055508073ffffffffffffffffffffffffffffffffffffffff1660808173ffffffffffffffffffffffffffffffffffffffff16815250505062000542565b600080fd5b600073ffffffffffffffffffffffffffffffffffffffff82169050919050565b600062000177826200014a565b9050919050565b62000189816200016a565b81146200019557600080fd5b50565b600081519050620001a9816200017e565b92915050565b600060208284031215620001c857620001c762000145565b5b6000620001d88482850162000198565b91505092915050565b600081519050919050565b7f4e487b7100000000000000000000000000000000000000000000000000000000600052604160045260246000fd5b7f4e487b7100000000000000000000000000000000000000000000000000000000600052602260045260246000fd5b600060028204905060018216806200026357607f821691505b6020821081036200027957620002786200021b565b5b50919050565b60008190508160005260206000209050919050565b60006020601f8301049050919050565b600082821b905092915050565b600060088302620002e37fffffffffffffffffffffffffffffffffffffffffffffffffffffffffffffffff82620002a4565b620002ef8683620002a4565b95508019841693508086168417925050509392505050565b6000819050919050565b6000819050919050565b60006200033c62000336620003308462000307565b62000311565b62000307565b9050919050565b6000819050919050565b62000358836200031b565b62000370620003678262000343565b848454620002b1565b825550505050565b600090565b6200038762000378565b620003948184846200034d565b505050565b5b81811015620003bc57620003b06000826200037d565b6001810190506200039a565b5050565b601f8211156200040b57620003d5816200027f565b620003e08462000294565b81016020851015620003f0578190505b62000408620003ff8562000294565b83018262000399565b50505b505050565b600082821c905092915050565b6000620004306000198460080262000410565b1980831691505092915050565b60006200044b83836200041d565b9150826002028217905092915050565b6200046682620001e1565b67ffffffffffffffff811115620004825762000481620001ec565b5b6200048e82546200024a565b6200049b828285620003c0565b600060209050601f831160018114620004d35760008415620004be578287015190505b620004ca85826200043d565b8655506200053a565b601f198416620004e3866200027f565b60005b828110156200050d57848901518255600182019150602085019450602081019050620004e6565b868310156200052d578489015162000529601f8916826200041d565b8355505b6001600288020188555050505b505050505050565b6080516148536200057a60003960008181610be001528181610f9a015281816110b4015281816119c50152611a4901526148536000f3fe608060405234801561001057600080fd5b50600436106101fb5760003560e01c80636352211e1161011a578063a22cb465116100ad578063c87b56dd1161007c578063c87b56dd146105b4578063e985e9c5146105e4578063eb1ff0df14610614578063efdcd97414610630578063f851a4401461064c576101fb565b8063a22cb46514610542578063a74e63ac1461055e578063b3f006741461057a578063b88d4fde14610598576101fb565b806370a08231116100e957806370a08231146104a857806375829def146104d857806395d89b41146104f4578063984deed314610512576101fb565b80636352211e14610422578063665a11ca146104525780636c19e783146104705780636c66e60e1461048c576101fb565b8063238ac93311610192578063409e220511610161578063409e22051461039657806342842e0e146103cc57806342966c68146103e85780635bf8eddd14610404576101fb565b8063238ac9331461030e57806323b872dd1461032c57806336eacb8a1461034857806338d52e0f14610378576101fb565b8063081812fc116101ce578063081812fc14610288578063095ea7b3146102b857806318160ddd146102d457806320ddf6c4146102f2576101fb565b806301ffc9a7146102005780630317a7ae1461023057806303ff65141461024c57806306fdde031461026a575b600080fd5b61021a60048036038101906102159190613094565b61066a565b60405161022791906130dc565b60405180910390f35b61024a6004803603810190610245919061312d565b61074c565b005b61025461081d565b6040516102619190613169565b60405180910390f35b610272610823565b60405161027f9190613214565b60405180910390f35b6102a2600480360381019061029d919061312d565b6108b5565b6040516102af9190613277565b60405180910390f35b6102d260048036038101906102cd91906132be565b6108fb565b005b6102dc610a12565b6040516102e99190613169565b60405180910390f35b61030c6004803603810190610307919061312d565b610a18565b005b610316610b36565b6040516103239190613277565b60405180910390f35b610346600480360381019061034191906132fe565b610b5c565b005b610362600480360381019061035d9190613351565b610bbc565b60405161036f91906130dc565b60405180910390f35b610380610bdc565b60405161038d91906133dd565b60405180910390f35b6103b060048036038101906103ab919061312d565b610c72565b6040516103c39796959493929190613434565b60405180910390f35b6103e660048036038101906103e191906132fe565b610d0c565b005b61040260048036038101906103fd919061312d565b610d2c565b005b61040c611026565b6040516104199190613169565b60405180910390f35b61043c6004803603810190610437919061312d565b61102c565b6040516104499190613277565b60405180910390f35b61045a6110b2565b60405161046791906134c4565b60405180910390f35b61048a60048036038101906104859190613351565b6110d6565b005b6104a660048036038101906104a1919061350b565b6111e1565b005b6104c260048036038101906104bd9190613351565b6113b9565b6040516104cf9190613169565b60405180910390f35b6104f260048036038101906104ed9190613351565b611470565b005b6104fc61157b565b6040516105099190613214565b60405180910390f35b61052c60048036038101906105279190613577565b61160d565b6040516105399190613169565b60405180910390f35b61055c6004803603810190610557919061350b565b611625565b005b610578600480360381019061057391906135a4565b61163b565b005b610582611b86565b60405161058f9190613277565b60405180910390f35b6105b260048036038101906105ad9190613754565b611bac565b005b6105ce60048036038101906105c9919061312d565b611c0e565b6040516105db9190613214565b60405180910390f35b6105fe60048036038101906105f991906137d7565b611c76565b60405161060b91906130dc565b60405180910390f35b61062e60048036038101906106299190613817565b611d0a565b005b61064a60048036038101906106459190613351565b611e5a565b005b610654611f65565b6040516106619190613277565b60405180910390f35b60007f80ac58cd000000000000000000000000000000000000000000000000000000007bffffffffffffffffffffffffffffffffffffffffffffffffffffffff1916827bffffffffffffffffffffffffffffffffffffffffffffffffffffffff1916148061073557507f5b5e139f000000000000000000000000000000000000000000000000000000007bffffffffffffffffffffffffffffffffffffffffffffffffffffffff1916827bffffffffffffffffffffffffffffffffffffffffffffffffffffffff1916145b80610745575061074482611f8b565b5b9050919050565b600660009054906101000a900473ffffffffffffffffffffffffffffffffffffffff1673ffffffffffffffffffffffffffffffffffffffff163373ffffffffffffffffffffffffffffffffffffffff16146107dc576040517f08c379a00000000000000000000000000000000000000000000000000000000081526004016107d3906138a3565b60405180910390fd5b80600a819055507f600402539d74115b6f49dd461ae530d9d61af94da449f5d8579b2ca76469d942816040516108129190613169565b60405180910390a150565b600a5481565b606060008054610832906138f2565b80601f016020809104026020016040519081016040528092919081815260200182805461085e906138f2565b80156108ab5780601f10610880576101008083540402835291602001916108ab565b820191906000526020600020905b81548152906001019060200180831161088e57829003601f168201915b5050505050905090565b60006108c082611ff5565b6004600083815260200190815260200160002060009054906101000a900473ffffffffffffffffffffffffffffffffffffffff169050919050565b60006109068261102c565b90508073ffffffffffffffffffffffffffffffffffffffff168373ffffffffffffffffffffffffffffffffffffffff1603610976576040517f08c379a000000000000000000000000000000000000000000000000000000000815260040161096d90613995565b60405180910390fd5b8073ffffffffffffffffffffffffffffffffffffffff16610995612040565b73ffffffffffffffffffffffffffffffffffffffff1614806109c457506109c3816109be612040565b611c76565b5b610a03576040517f08c379a00000000000000000000000000000000000000000000000000000000081526004016109fa90613a27565b60405180910390fd5b610a0d8383612048565b505050565b600d5481565b600660009054906101000a900473ffffffffffffffffffffffffffffffffffffffff1673ffffffffffffffffffffffffffffffffffffffff163373ffffffffffffffffffffffffffffffffffffffff1614610aa8576040517f08c379a0000000000000000000000000000000000000000000000000000000008152600401610a9f906138a3565b60405180910390fd5b670de0b6b3a7640000600b541115610af5576040517f08c379a0000000000000000000000000000000000000000000000000000000008152600401610aec90613a93565b60405180910390fd5b80600b819055507faba48c82b3b59be546317db9a1a6b7420aa35496ab2c20e34eb3c2419ace36c781604051610b2b9190613169565b60405180910390a150565b600760009054906101000a900473ffffffffffffffffffffffffffffffffffffffff1681565b610b6d610b67612040565b82612101565b610bac576040517f08c379a0000000000000000000000000000000000000000000000000000000008152600401610ba390613b25565b60405180910390fd5b610bb7838383612196565b505050565b60086020528060005260406000206000915054906101000a900460ff1681565b60007f000000000000000000000000000000000000000000000000000000000000000073ffffffffffffffffffffffffffffffffffffffff166338d52e0f6040518163ffffffff1660e01b8152600401602060405180830381865afa158015610c49573d6000803e3d6000fd5b505050506040513d601f19601f82011682018060405250810190610c6d9190613b5a565b905090565b600e6020528060005260406000206000915090508060000160009054906101000a900473ffffffffffffffffffffffffffffffffffffffff16908060000160149054906101000a900464ffffffffff16908060000160199054906101000a900460ff16908060010160009054906101000a9004600f0b908060010160109054906101000a9004600f0b908060020154908060030154905087565b610d2783838360405180602001604052806000815250611bac565b505050565b6000600e60008381526020019081526020016000209050428160000160149054906101000a900464ffffffffff1664ffffffffff161115610da2576040517f08c379a0000000000000000000000000000000000000000000000000000000008152600401610d9990613bd3565b60405180910390fd5b610dab8261248f565b610dea576040517f08c379a0000000000000000000000000000000000000000000000000000000008152600401610de190613c3f565b60405180910390fd5b6000610df58361102c565b9050610e00836124d0565b610e2d8260000160009054906101000a900473ffffffffffffffffffffffffffffffffffffffff1661261e565b8260010160106101000a8154816fffffffffffffffffffffffffffffffff0219169083600f0b6fffffffffffffffffffffffffffffffff16021790555060008260000160199054906101000a900460ff16610eb2578260010160009054906101000a9004600f0b600f0b8360010160109054906101000a9004600f0b600f0b12610ede565b8260010160009054906101000a9004600f0b600f0b8360010160109054906101000a9004600f0b600f0b135b90508015610f7557610eee610bdc565b73ffffffffffffffffffffffffffffffffffffffff1663a9059cbb8385600301546040518363ffffffff1660e01b8152600401610f2c929190613c5f565b6020604051808303816000875af1158015610f4b573d6000803e3d6000fd5b505050506040513d601f19601f82011682018060405250810190610f6f9190613c9d565b50611020565b610f7d610bdc565b73ffffffffffffffffffffffffffffffffffffffff1663a9059cbb7f000000000000000000000000000000000000000000000000000000000000000085600301546040518363ffffffff1660e01b8152600401610fdb929190613c5f565b6020604051808303816000875af1158015610ffa573d6000803e3d6000fd5b505050506040513d601f19601f8201168201806040525081019061101e9190613c9d565b505b50505050565b600b5481565b600080611038836126f8565b9050600073ffffffffffffffffffffffffffffffffffffffff168173ffffffffffffffffffffffffffffffffffffffff16036110a9576040517f08c379a00000000000000000000000000000000000000000000000000000000081526004016110a090613d16565b60405180910390fd5b80915050919050565b7f000000000000000000000000000000000000000000000000000000000000000081565b600660009054906101000a900473ffffffffffffffffffffffffffffffffffffffff1673ffffffffffffffffffffffffffffffffffffffff163373ffffffffffffffffffffffffffffffffffffffff1614611166576040517f08c379a000000000000000000000000000000000000000000000000000000000815260040161115d906138a3565b60405180910390fd5b80600760006101000a81548173ffffffffffffffffffffffffffffffffffffffff021916908373ffffffffffffffffffffffffffffffffffffffff1602179055507fbb10aee7ef5a307b8097c6a7f2892b909ff1736fd24a6a5260640c185f7153b6816040516111d69190613277565b60405180910390a150565b600660009054906101000a900473ffffffffffffffffffffffffffffffffffffffff1673ffffffffffffffffffffffffffffffffffffffff163373ffffffffffffffffffffffffffffffffffffffff1614611271576040517f08c379a0000000000000000000000000000000000000000000000000000000008152600401611268906138a3565b60405180910390fd5b60088273ffffffffffffffffffffffffffffffffffffffff1663313ce5676040518163ffffffff1660e01b8152600401602060405180830381865afa1580156112be573d6000803e3d6000fd5b505050506040513d601f19601f820116820180604052508101906112e29190613d6f565b60ff1614611325576040517f08c379a000000000000000000000000000000000000000000000000000000000815260040161131c90613de8565b60405180910390fd5b80600860008473ffffffffffffffffffffffffffffffffffffffff1673ffffffffffffffffffffffffffffffffffffffff16815260200190815260200160002060006101000a81548160ff0219169083151502179055507f9aaad5d73fc4de1befd3e790b855dfdc6363f068e93abfdf01ad70681d31d0ce82826040516113ad929190613e08565b60405180910390a15050565b60008073ffffffffffffffffffffffffffffffffffffffff168273ffffffffffffffffffffffffffffffffffffffff1603611429576040517f08c379a000000000000000000000000000000000000000000000000000000000815260040161142090613ea3565b60405180910390fd5b600360008373ffffffffffffffffffffffffffffffffffffffff1673ffffffffffffffffffffffffffffffffffffffff168152602001908152602001600020549050919050565b600660009054906101000a900473ffffffffffffffffffffffffffffffffffffffff1673ffffffffffffffffffffffffffffffffffffffff163373ffffffffffffffffffffffffffffffffffffffff1614611500576040517f08c379a00000000000000000000000000000000000000000000000000000000081526004016114f7906138a3565b60405180910390fd5b80600660006101000a81548173ffffffffffffffffffffffffffffffffffffffff021916908373ffffffffffffffffffffffffffffffffffffffff1602179055507f5a272403b402d892977df56625f4164ccaf70ca3863991c43ecfe76a6905b0a1816040516115709190613277565b60405180910390a150565b60606001805461158a906138f2565b80601f01602080910402602001604051908101604052809291908181526020018280546115b6906138f2565b80156116035780601f106115d857610100808354040283529160200191611603565b820191906000526020600020905b8154815290600101906020018083116115e657829003601f168201915b5050505050905090565b60096020528060005260406000206000915090505481565b611637611630612040565b8383612735565b5050565b600860008673ffffffffffffffffffffffffffffffffffffffff1673ffffffffffffffffffffffffffffffffffffffff16815260200190815260200160002060009054906101000a900460ff166116c7576040517f08c379a00000000000000000000000000000000000000000000000000000000081526004016116be90613f0f565b60405180910390fd5b6000600960008664ffffffffff1664ffffffffff16815260200190815260200160002054905060008103611730576040517f08c379a000000000000000000000000000000000000000000000000000000000815260040161172790613f7b565b60405180910390fd5b6000670de0b6b3a7640000600b54856117499190613fca565b6117539190614053565b9050600081856117639190614084565b9050600081116117a8576040517f08c379a000000000000000000000000000000000000000000000000000000000815260040161179f90614104565b60405180910390fd5b6000670de0b6b3a764000084836117bf9190613fca565b6117c99190614053565b90506000600d600081546117dc90614124565b91905081905590506117ee86826128a1565b6040518060e001604052808b73ffffffffffffffffffffffffffffffffffffffff1681526020018a64ffffffffff1642611828919061416c565b64ffffffffff16815260200189151581526020016118458c61261e565b600f0b81526020016000600f0b815260200184815260200183815250600e600083815260200190815260200160002060008201518160000160006101000a81548173ffffffffffffffffffffffffffffffffffffffff021916908373ffffffffffffffffffffffffffffffffffffffff16021790555060208201518160000160146101000a81548164ffffffffff021916908364ffffffffff16021790555060408201518160000160196101000a81548160ff02191690831515021790555060608201518160010160006101000a8154816fffffffffffffffffffffffffffffffff0219169083600f0b6fffffffffffffffffffffffffffffffff16021790555060808201518160010160106101000a8154816fffffffffffffffffffffffffffffffff0219169083600f0b6fffffffffffffffffffffffffffffffff16021790555060a0820151816002015560c082015181600301559050506119a7610bdc565b73ffffffffffffffffffffffffffffffffffffffff166323b872dd337f0000000000000000000000000000000000000000000000000000000000000000866040518463ffffffff1660e01b8152600401611a03939291906141a0565b6020604051808303816000875af1158015611a22573d6000803e3d6000fd5b505050506040513d601f19601f82011682018060405250810190611a469190613c9d565b507f000000000000000000000000000000000000000000000000000000000000000073ffffffffffffffffffffffffffffffffffffffff1663f0dd71c7836040518263ffffffff1660e01b8152600401611aa09190613169565b600060405180830381600087803b158015611aba57600080fd5b505af1158015611ace573d6000803e3d6000fd5b50505050611ada610bdc565b73ffffffffffffffffffffffffffffffffffffffff1663a9059cbb600c60009054906101000a900473ffffffffffffffffffffffffffffffffffffffff16866040518363ffffffff1660e01b8152600401611b36929190613c5f565b6020604051808303816000875af1158015611b55573d6000803e3d6000fd5b505050506040513d601f19601f82011682018060405250810190611b799190613c9d565b5050505050505050505050565b600c60009054906101000a900473ffffffffffffffffffffffffffffffffffffffff1681565b611bbd611bb7612040565b83612101565b611bfc576040517f08c379a0000000000000000000000000000000000000000000000000000000008152600401611bf390613b25565b60405180910390fd5b611c0884848484612abe565b50505050565b6060611c1982611ff5565b6000611c23612b1a565b90506000815111611c435760405180602001604052806000815250611c6e565b80611c4d84612b31565b604051602001611c5e929190614213565b6040516020818303038152906040525b915050919050565b6000600560008473ffffffffffffffffffffffffffffffffffffffff1673ffffffffffffffffffffffffffffffffffffffff16815260200190815260200160002060008373ffffffffffffffffffffffffffffffffffffffff1673ffffffffffffffffffffffffffffffffffffffff16815260200190815260200160002060009054906101000a900460ff16905092915050565b600660009054906101000a900473ffffffffffffffffffffffffffffffffffffffff1673ffffffffffffffffffffffffffffffffffffffff163373ffffffffffffffffffffffffffffffffffffffff1614611d9a576040517f08c379a0000000000000000000000000000000000000000000000000000000008152600401611d91906138a3565b60405180910390fd5b671bc16d674ec8000081108015611db85750670de0b6b3a764000081115b611df7576040517f08c379a0000000000000000000000000000000000000000000000000000000008152600401611dee90614283565b60405180910390fd5b80600960008464ffffffffff1664ffffffffff168152602001908152602001600020819055507f291a9ec07d4ee8d4bf55f7d6d64f224f8e7215fb48be87f176fd103c156959e68282604051611e4e9291906142a3565b60405180910390a15050565b600660009054906101000a900473ffffffffffffffffffffffffffffffffffffffff1673ffffffffffffffffffffffffffffffffffffffff163373ffffffffffffffffffffffffffffffffffffffff1614611eea576040517f08c379a0000000000000000000000000000000000000000000000000000000008152600401611ee1906138a3565b60405180910390fd5b80600c60006101000a81548173ffffffffffffffffffffffffffffffffffffffff021916908373ffffffffffffffffffffffffffffffffffffffff1602179055507fffb40bfdfd246e95f543d08d9713c339f1d90fa9265e39b4f562f9011d7c919f81604051611f5a9190613277565b60405180910390a150565b600660009054906101000a900473ffffffffffffffffffffffffffffffffffffffff1681565b60007f01ffc9a7000000000000000000000000000000000000000000000000000000007bffffffffffffffffffffffffffffffffffffffffffffffffffffffff1916827bffffffffffffffffffffffffffffffffffffffffffffffffffffffff1916149050919050565b611ffe8161248f565b61203d576040517f08c379a000000000000000000000000000000000000000000000000000000000815260040161203490613d16565b60405180910390fd5b50565b600033905090565b816004600083815260200190815260200160002060006101000a81548173ffffffffffffffffffffffffffffffffffffffff021916908373ffffffffffffffffffffffffffffffffffffffff160217905550808273ffffffffffffffffffffffffffffffffffffffff166120bb8361102c565b73ffffffffffffffffffffffffffffffffffffffff167f8c5be1e5ebec7d5bd14f71427d1e84f3dd0314c0f7b2291e5b200ac8c7c3b92560405160405180910390a45050565b60008061210d8361102c565b90508073ffffffffffffffffffffffffffffffffffffffff168473ffffffffffffffffffffffffffffffffffffffff16148061214f575061214e8185611c76565b5b8061218d57508373ffffffffffffffffffffffffffffffffffffffff16612175846108b5565b73ffffffffffffffffffffffffffffffffffffffff16145b91505092915050565b8273ffffffffffffffffffffffffffffffffffffffff166121b68261102c565b73ffffffffffffffffffffffffffffffffffffffff161461220c576040517f08c379a00000000000000000000000000000000000000000000000000000000081526004016122039061433e565b60405180910390fd5b600073ffffffffffffffffffffffffffffffffffffffff168273ffffffffffffffffffffffffffffffffffffffff160361227b576040517f08c379a0000000000000000000000000000000000000000000000000000000008152600401612272906143d0565b60405180910390fd5b6122888383836001612bff565b8273ffffffffffffffffffffffffffffffffffffffff166122a88261102c565b73ffffffffffffffffffffffffffffffffffffffff16146122fe576040517f08c379a00000000000000000000000000000000000000000000000000000000081526004016122f59061433e565b60405180910390fd5b6004600082815260200190815260200160002060006101000a81549073ffffffffffffffffffffffffffffffffffffffff02191690556001600360008573ffffffffffffffffffffffffffffffffffffffff1673ffffffffffffffffffffffffffffffffffffffff168152602001908152602001600020600082825403925050819055506001600360008473ffffffffffffffffffffffffffffffffffffffff1673ffffffffffffffffffffffffffffffffffffffff16815260200190815260200160002060008282540192505081905550816002600083815260200190815260200160002060006101000a81548173ffffffffffffffffffffffffffffffffffffffff021916908373ffffffffffffffffffffffffffffffffffffffff160217905550808273ffffffffffffffffffffffffffffffffffffffff168473ffffffffffffffffffffffffffffffffffffffff167fddf252ad1be2c89b69c2b068fc378daa952ba7f163c4a11628f55a4df523b3ef60405160405180910390a461248a8383836001612d25565b505050565b60008073ffffffffffffffffffffffffffffffffffffffff166124b1836126f8565b73ffffffffffffffffffffffffffffffffffffffff1614159050919050565b60006124db8261102c565b90506124eb816000846001612bff565b6124f48261102c565b90506004600083815260200190815260200160002060006101000a81549073ffffffffffffffffffffffffffffffffffffffff02191690556001600360008373ffffffffffffffffffffffffffffffffffffffff1673ffffffffffffffffffffffffffffffffffffffff168152602001908152602001600020600082825403925050819055506002600083815260200190815260200160002060006101000a81549073ffffffffffffffffffffffffffffffffffffffff021916905581600073ffffffffffffffffffffffffffffffffffffffff168273ffffffffffffffffffffffffffffffffffffffff167fddf252ad1be2c89b69c2b068fc378daa952ba7f163c4a11628f55a4df523b3ef60405160405180910390a461261a816000846001612d25565b5050565b6000808290506000808273ffffffffffffffffffffffffffffffffffffffff1663feaf968c6040518163ffffffff1660e01b815260040160a060405180830381865afa158015612672573d6000803e3d6000fd5b505050506040513d601f19601f82011682018060405250810190612696919061447d565b50935050925050600a54816126ab919061416c565b4211156126ed576040517f08c379a00000000000000000000000000000000000000000000000000000000081526004016126e490614544565b60405180910390fd5b819350505050919050565b60006002600083815260200190815260200160002060009054906101000a900473ffffffffffffffffffffffffffffffffffffffff169050919050565b8173ffffffffffffffffffffffffffffffffffffffff168373ffffffffffffffffffffffffffffffffffffffff16036127a3576040517f08c379a000000000000000000000000000000000000000000000000000000000815260040161279a906145b0565b60405180910390fd5b80600560008573ffffffffffffffffffffffffffffffffffffffff1673ffffffffffffffffffffffffffffffffffffffff16815260200190815260200160002060008473ffffffffffffffffffffffffffffffffffffffff1673ffffffffffffffffffffffffffffffffffffffff16815260200190815260200160002060006101000a81548160ff0219169083151502179055508173ffffffffffffffffffffffffffffffffffffffff168373ffffffffffffffffffffffffffffffffffffffff167f17307eab39ab6107e8899845ad3d59bd9653f200f220920489ca2b5937696c318360405161289491906130dc565b60405180910390a3505050565b600073ffffffffffffffffffffffffffffffffffffffff168273ffffffffffffffffffffffffffffffffffffffff1603612910576040517f08c379a00000000000000000000000000000000000000000000000000000000081526004016129079061461c565b60405180910390fd5b6129198161248f565b15612959576040517f08c379a000000000000000000000000000000000000000000000000000000000815260040161295090614688565b60405180910390fd5b612967600083836001612bff565b6129708161248f565b156129b0576040517f08c379a00000000000000000000000000000000000000000000000000000000081526004016129a790614688565b60405180910390fd5b6001600360008473ffffffffffffffffffffffffffffffffffffffff1673ffffffffffffffffffffffffffffffffffffffff16815260200190815260200160002060008282540192505081905550816002600083815260200190815260200160002060006101000a81548173ffffffffffffffffffffffffffffffffffffffff021916908373ffffffffffffffffffffffffffffffffffffffff160217905550808273ffffffffffffffffffffffffffffffffffffffff16600073ffffffffffffffffffffffffffffffffffffffff167fddf252ad1be2c89b69c2b068fc378daa952ba7f163c4a11628f55a4df523b3ef60405160405180910390a4612aba600083836001612d25565b5050565b612ac9848484612196565b612ad584848484612d2b565b612b14576040517f08c379a0000000000000000000000000000000000000000000000000000000008152600401612b0b9061471a565b60405180910390fd5b50505050565b606060405180602001604052806000815250905090565b606060006001612b4084612eb2565b01905060008167ffffffffffffffff811115612b5f57612b5e613629565b5b6040519080825280601f01601f191660200182016040528015612b915781602001600182028036833780820191505090505b509050600082602001820190505b600115612bf4578080600190039150507f3031323334353637383961626364656600000000000000000000000000000000600a86061a8153600a8581612be857612be7614024565b5b04945060008503612b9f575b819350505050919050565b6001811115612d1f57600073ffffffffffffffffffffffffffffffffffffffff168473ffffffffffffffffffffffffffffffffffffffff1614612c935780600360008673ffffffffffffffffffffffffffffffffffffffff1673ffffffffffffffffffffffffffffffffffffffff1681526020019081526020016000206000828254612c8b9190614084565b925050819055505b600073ffffffffffffffffffffffffffffffffffffffff168373ffffffffffffffffffffffffffffffffffffffff1614612d1e5780600360008573ffffffffffffffffffffffffffffffffffffffff1673ffffffffffffffffffffffffffffffffffffffff1681526020019081526020016000206000828254612d16919061416c565b925050819055505b5b50505050565b50505050565b6000612d4c8473ffffffffffffffffffffffffffffffffffffffff16613005565b15612ea5578373ffffffffffffffffffffffffffffffffffffffff1663150b7a02612d75612040565b8786866040518563ffffffff1660e01b8152600401612d97949392919061478f565b6020604051808303816000875af1925050508015612dd357506040513d601f19601f82011682018060405250810190612dd091906147f0565b60015b612e55573d8060008114612e03576040519150601f19603f3d011682016040523d82523d6000602084013e612e08565b606091505b506000815103612e4d576040517f08c379a0000000000000000000000000000000000000000000000000000000008152600401612e449061471a565b60405180910390fd5b805181602001fd5b63150b7a0260e01b7bffffffffffffffffffffffffffffffffffffffffffffffffffffffff1916817bffffffffffffffffffffffffffffffffffffffffffffffffffffffff191614915050612eaa565b600190505b949350505050565b600080600090507a184f03e93ff9f4daa797ed6e38ed64bf6a1f0100000000000000008310612f10577a184f03e93ff9f4daa797ed6e38ed64bf6a1f0100000000000000008381612f0657612f05614024565b5b0492506040810190505b6d04ee2d6d415b85acef81000000008310612f4d576d04ee2d6d415b85acef81000000008381612f4357612f42614024565b5b0492506020810190505b662386f26fc100008310612f7c57662386f26fc100008381612f7257612f71614024565b5b0492506010810190505b6305f5e1008310612fa5576305f5e1008381612f9b57612f9a614024565b5b0492506008810190505b6127108310612fca576127108381612fc057612fbf614024565b5b0492506004810190505b60648310612fed5760648381612fe357612fe2614024565b5b0492506002810190505b600a8310612ffc576001810190505b80915050919050565b6000808273ffffffffffffffffffffffffffffffffffffffff163b119050919050565b6000604051905090565b600080fd5b600080fd5b60007fffffffff0000000000000000000000000000000000000000000000000000000082169050919050565b6130718161303c565b811461307c57600080fd5b50565b60008135905061308e81613068565b92915050565b6000602082840312156130aa576130a9613032565b5b60006130b88482850161307f565b91505092915050565b60008115159050919050565b6130d6816130c1565b82525050565b60006020820190506130f160008301846130cd565b92915050565b6000819050919050565b61310a816130f7565b811461311557600080fd5b50565b60008135905061312781613101565b92915050565b60006020828403121561314357613142613032565b5b600061315184828501613118565b91505092915050565b613163816130f7565b82525050565b600060208201905061317e600083018461315a565b92915050565b600081519050919050565b600082825260208201905092915050565b60005b838110156131be5780820151818401526020810190506131a3565b60008484015250505050565b6000601f19601f8301169050919050565b60006131e682613184565b6131f0818561318f565b93506132008185602086016131a0565b613209816131ca565b840191505092915050565b6000602082019050818103600083015261322e81846131db565b905092915050565b600073ffffffffffffffffffffffffffffffffffffffff82169050919050565b600061326182613236565b9050919050565b61327181613256565b82525050565b600060208201905061328c6000830184613268565b92915050565b61329b81613256565b81146132a657600080fd5b50565b6000813590506132b881613292565b92915050565b600080604083850312156132d5576132d4613032565b5b60006132e3858286016132a9565b92505060206132f485828601613118565b9150509250929050565b60008060006060848603121561331757613316613032565b5b6000613325868287016132a9565b9350506020613336868287016132a9565b925050604061334786828701613118565b9150509250925092565b60006020828403121561336757613366613032565b5b6000613375848285016132a9565b91505092915050565b6000819050919050565b60006133a361339e61339984613236565b61337e565b613236565b9050919050565b60006133b582613388565b9050919050565b60006133c7826133aa565b9050919050565b6133d7816133bc565b82525050565b60006020820190506133f260008301846133ce565b92915050565b600064ffffffffff82169050919050565b613412816133f8565b82525050565b600081600f0b9050919050565b61342e81613418565b82525050565b600060e082019050613449600083018a613268565b6134566020830189613409565b61346360408301886130cd565b6134706060830187613425565b61347d6080830186613425565b61348a60a083018561315a565b61349760c083018461315a565b98975050505050505050565b60006134ae826133aa565b9050919050565b6134be816134a3565b82525050565b60006020820190506134d960008301846134b5565b92915050565b6134e8816130c1565b81146134f357600080fd5b50565b600081359050613505816134df565b92915050565b6000806040838503121561352257613521613032565b5b6000613530858286016132a9565b9250506020613541858286016134f6565b9150509250929050565b613554816133f8565b811461355f57600080fd5b50565b6000813590506135718161354b565b92915050565b60006020828403121561358d5761358c613032565b5b600061359b84828501613562565b91505092915050565b600080600080600060a086880312156135c0576135bf613032565b5b60006135ce888289016132a9565b95505060206135df88828901613562565b94505060406135f0888289016134f6565b935050606061360188828901613118565b9250506080613612888289016132a9565b9150509295509295909350565b600080fd5b600080fd5b7f4e487b7100000000000000000000000000000000000000000000000000000000600052604160045260246000fd5b613661826131ca565b810181811067ffffffffffffffff821117156136805761367f613629565b5b80604052505050565b6000613693613028565b905061369f8282613658565b919050565b600067ffffffffffffffff8211156136bf576136be613629565b5b6136c8826131ca565b9050602081019050919050565b82818337600083830152505050565b60006136f76136f2846136a4565b613689565b90508281526020810184848401111561371357613712613624565b5b61371e8482856136d5565b509392505050565b600082601f83011261373b5761373a61361f565b5b813561374b8482602086016136e4565b91505092915050565b6000806000806080858703121561376e5761376d613032565b5b600061377c878288016132a9565b945050602061378d878288016132a9565b935050604061379e87828801613118565b925050606085013567ffffffffffffffff8111156137bf576137be613037565b5b6137cb87828801613726565b91505092959194509250565b600080604083850312156137ee576137ed613032565b5b60006137fc858286016132a9565b925050602061380d858286016132a9565b9150509250929050565b6000806040838503121561382e5761382d613032565b5b600061383c85828601613562565b925050602061384d85828601613118565b9150509250929050565b7f556e617574686f72697a65642063616c6c657200000000000000000000000000600082015250565b600061388d60138361318f565b915061389882613857565b602082019050919050565b600060208201905081810360008301526138bc81613880565b9050919050565b7f4e487b7100000000000000000000000000000000000000000000000000000000600052602260045260246000fd5b6000600282049050600182168061390a57607f821691505b60208210810361391d5761391c6138c3565b5b50919050565b7f4552433732313a20617070726f76616c20746f2063757272656e74206f776e6560008201527f7200000000000000000000000000000000000000000000000000000000000000602082015250565b600061397f60218361318f565b915061398a82613923565b604082019050919050565b600060208201905081810360008301526139ae81613972565b9050919050565b7f4552433732313a20617070726f76652063616c6c6572206973206e6f7420746f60008201527f6b656e206f776e6572206f7220617070726f76656420666f7220616c6c000000602082015250565b6000613a11603d8361318f565b9150613a1c826139b5565b604082019050919050565b60006020820190508181036000830152613a4081613a04565b9050919050565b7f496e76616c696420666565206672616374696f6e000000000000000000000000600082015250565b6000613a7d60148361318f565b9150613a8882613a47565b602082019050919050565b60006020820190508181036000830152613aac81613a70565b9050919050565b7f4552433732313a2063616c6c6572206973206e6f7420746f6b656e206f776e6560008201527f72206f7220617070726f76656400000000000000000000000000000000000000602082015250565b6000613b0f602d8361318f565b9150613b1a82613ab3565b604082019050919050565b60006020820190508181036000830152613b3e81613b02565b9050919050565b600081519050613b5481613292565b92915050565b600060208284031215613b7057613b6f613032565b5b6000613b7e84828501613b45565b91505092915050565b7f4f7074696f6e20686173206e6f74206578706972656400000000000000000000600082015250565b6000613bbd60168361318f565b9150613bc882613b87565b602082019050919050565b60006020820190508181036000830152613bec81613bb0565b9050919050565b7f4f7074696f6e206275726e742f646f6573206e6f742065786973740000000000600082015250565b6000613c29601b8361318f565b9150613c3482613bf3565b602082019050919050565b60006020820190508181036000830152613c5881613c1c565b9050919050565b6000604082019050613c746000830185613268565b613c81602083018461315a565b9392505050565b600081519050613c97816134df565b92915050565b600060208284031215613cb357613cb2613032565b5b6000613cc184828501613c88565b91505092915050565b7f4552433732313a20696e76616c696420746f6b656e2049440000000000000000600082015250565b6000613d0060188361318f565b9150613d0b82613cca565b602082019050919050565b60006020820190508181036000830152613d2f81613cf3565b9050919050565b600060ff82169050919050565b613d4c81613d36565b8114613d5757600080fd5b50565b600081519050613d6981613d43565b92915050565b600060208284031215613d8557613d84613032565b5b6000613d9384828501613d5a565b91505092915050565b7f496e76616c696420646563696d616c7300000000000000000000000000000000600082015250565b6000613dd260108361318f565b9150613ddd82613d9c565b602082019050919050565b60006020820190508181036000830152613e0181613dc5565b9050919050565b6000604082019050613e1d6000830185613268565b613e2a60208301846130cd565b9392505050565b7f4552433732313a2061646472657373207a65726f206973206e6f74206120766160008201527f6c6964206f776e65720000000000000000000000000000000000000000000000602082015250565b6000613e8d60298361318f565b9150613e9882613e31565b604082019050919050565b60006020820190508181036000830152613ebc81613e80565b9050919050565b7f41676772656761746f72206e6f7420656e61626c656400000000000000000000600082015250565b6000613ef960168361318f565b9150613f0482613ec3565b602082019050919050565b60006020820190508181036000830152613f2881613eec565b9050919050565b7f4475726174696f6e206e6f7420656e61626c6564000000000000000000000000600082015250565b6000613f6560148361318f565b9150613f7082613f2f565b602082019050919050565b60006020820190508181036000830152613f9481613f58565b9050919050565b7f4e487b7100000000000000000000000000000000000000000000000000000000600052601160045260246000fd5b6000613fd5826130f7565b9150613fe0836130f7565b9250817fffffffffffffffffffffffffffffffffffffffffffffffffffffffffffffffff048311821515161561401957614018613f9b565b5b828202905092915050565b7f4e487b7100000000000000000000000000000000000000000000000000000000600052601260045260246000fd5b600061405e826130f7565b9150614069836130f7565b92508261407957614078614024565b5b828204905092915050565b600061408f826130f7565b915061409a836130f7565b92508282039050818111156140b2576140b1613f9b565b5b92915050565b7f4465706f7369742061667465722066656573206973207a65726f000000000000600082015250565b60006140ee601a8361318f565b91506140f9826140b8565b602082019050919050565b6000602082019050818103600083015261411d816140e1565b9050919050565b600061412f826130f7565b91507fffffffffffffffffffffffffffffffffffffffffffffffffffffffffffffffff820361416157614160613f9b565b5b600182019050919050565b6000614177826130f7565b9150614182836130f7565b925082820190508082111561419a57614199613f9b565b5b92915050565b60006060820190506141b56000830186613268565b6141c26020830185613268565b6141cf604083018461315a565b949350505050565b600081905092915050565b60006141ed82613184565b6141f781856141d7565b93506142078185602086016131a0565b80840191505092915050565b600061421f82856141e2565b915061422b82846141e2565b91508190509392505050565b7f496e76616c6964207061796f7574206d756c7469706c69657200000000000000600082015250565b600061426d60198361318f565b915061427882614237565b602082019050919050565b6000602082019050818103600083015261429c81614260565b9050919050565b60006040820190506142b86000830185613409565b6142c5602083018461315a565b9392505050565b7f4552433732313a207472616e736665722066726f6d20696e636f72726563742060008201527f6f776e6572000000000000000000000000000000000000000000000000000000602082015250565b600061432860258361318f565b9150614333826142cc565b604082019050919050565b600060208201905081810360008301526143578161431b565b9050919050565b7f4552433732313a207472616e7366657220746f20746865207a65726f2061646460008201527f7265737300000000000000000000000000000000000000000000000000000000602082015250565b60006143ba60248361318f565b91506143c58261435e565b604082019050919050565b600060208201905081810360008301526143e9816143ad565b9050919050565b600069ffffffffffffffffffff82169050919050565b61440f816143f0565b811461441a57600080fd5b50565b60008151905061442c81614406565b92915050565b6000819050919050565b61444581614432565b811461445057600080fd5b50565b6000815190506144628161443c565b92915050565b60008151905061447781613101565b92915050565b600080600080600060a0868803121561449957614498613032565b5b60006144a78882890161441d565b95505060206144b888828901614453565b94505060406144c988828901614468565b93505060606144da88828901614468565b92505060806144eb8882890161441d565b9150509295509295909350565b7f507269636520746f6f206f6c6400000000000000000000000000000000000000600082015250565b600061452e600d8361318f565b9150614539826144f8565b602082019050919050565b6000602082019050818103600083015261455d81614521565b9050919050565b7f4552433732313a20617070726f766520746f2063616c6c657200000000000000600082015250565b600061459a60198361318f565b91506145a582614564565b602082019050919050565b600060208201905081810360008301526145c98161458d565b9050919050565b7f4552433732313a206d696e7420746f20746865207a65726f2061646472657373600082015250565b600061460660208361318f565b9150614611826145d0565b602082019050919050565b60006020820190508181036000830152614635816145f9565b9050919050565b7f4552433732313a20746f6b656e20616c7265616479206d696e74656400000000600082015250565b6000614672601c8361318f565b915061467d8261463c565b602082019050919050565b600060208201905081810360008301526146a181614665565b9050919050565b7f4552433732313a207472616e7366657220746f206e6f6e20455243373231526560008201527f63656976657220696d706c656d656e7465720000000000000000000000000000602082015250565b600061470460328361318f565b915061470f826146a8565b604082019050919050565b60006020820190508181036000830152614733816146f7565b9050919050565b600081519050919050565b600082825260208201905092915050565b60006147618261473a565b61476b8185614745565b935061477b8185602086016131a0565b614784816131ca565b840191505092915050565b60006080820190506147a46000830187613268565b6147b16020830186613268565b6147be604083018561315a565b81810360608301526147d08184614756565b905095945050505050565b6000815190506147ea81613068565b92915050565b60006020828403121561480657614805613032565b5b6000614814848285016147db565b9150509291505056fea2646970667358221220531b47253a344db035f4d91f10c07c8a4f6f18245f804a08b8802d47a9941f1564736f6c63430008100033",
  "linkReferences": {},
  "deployedLinkReferences": {}
}