{
  "_format": "hh-sol-artifact-1",
  "contractName": "Market",
  "sourceName": "contracts/Market/Market.sol",
  "abi": [
    {
      "inputs": [
        {
          "internalType": "contract LiquidityPool",
          "name": "liquidityPool_",
          "type": "address"
        },
        {
          "internalType": "contract IERC20",
          "name": "asset_",
          "type": "address"
        }
      ],
      "stateMutability": "nonpayable",
      "type": "constructor"
    },
    {
      "anonymous": false,
      "inputs": [
        {
          "indexed": true,
          "internalType": "address",
          "name": "owner",
          "type": "address"
        },
        {
          "indexed": true,
          "internalType": "address",
          "name": "approved",
          "type": "address"
        },
        {
          "indexed": true,
          "internalType": "uint256",
          "name": "tokenId",
          "type": "uint256"
        }
      ],
      "name": "Approval",
      "type": "event"
    },
    {
      "anonymous": false,
      "inputs": [
        {
          "indexed": true,
          "internalType": "address",
          "name": "owner",
          "type": "address"
        },
        {
          "indexed": true,
          "internalType": "address",
          "name": "operator",
          "type": "address"
        },
        {
          "indexed": false,
          "internalType": "bool",
          "name": "approved",
          "type": "bool"
        }
      ],
      "name": "ApprovalForAll",
      "type": "event"
    },
    {
      "anonymous": false,
      "inputs": [
        {
          "indexed": true,
          "internalType": "uint256",
          "name": "id",
          "type": "uint256"
        },
        {
          "indexed": false,
          "internalType": "int128",
          "name": "closePrice",
          "type": "int128"
        },
        {
          "indexed": false,
          "internalType": "address",
          "name": "owner",
          "type": "address"
        }
      ],
      "name": "CloseOption",
      "type": "event"
    },
    {
      "anonymous": false,
      "inputs": [
        {
          "indexed": true,
          "internalType": "uint256",
          "name": "id",
          "type": "uint256"
        },
        {
          "indexed": true,
          "internalType": "address",
          "name": "aggregator",
          "type": "address"
        },
        {
          "indexed": false,
          "internalType": "uint40",
          "name": "expiry",
          "type": "uint40"
        },
        {
          "indexed": false,
          "internalType": "bool",
          "name": "isCall",
          "type": "bool"
        },
        {
          "indexed": false,
          "internalType": "int128",
          "name": "openPrice",
          "type": "int128"
        },
        {
          "indexed": false,
          "internalType": "uint256",
          "name": "deposit",
          "type": "uint256"
        },
        {
          "indexed": false,
          "internalType": "uint256",
          "name": "fee",
          "type": "uint256"
        },
        {
          "indexed": false,
          "internalType": "uint256",
          "name": "payout",
          "type": "uint256"
        }
      ],
      "name": "OpenOption",
      "type": "event"
    },
    {
      "anonymous": false,
      "inputs": [
        {
          "indexed": false,
          "internalType": "address",
          "name": "account",
          "type": "address"
        }
      ],
      "name": "Paused",
      "type": "event"
    },
    {
      "anonymous": false,
      "inputs": [
        {
          "indexed": false,
          "internalType": "address",
          "name": "admin",
          "type": "address"
        }
      ],
      "name": "SetAdmin",
      "type": "event"
    },
    {
      "anonymous": false,
      "inputs": [
        {
          "indexed": true,
          "internalType": "address",
          "name": "aggregator",
          "type": "address"
        },
        {
          "indexed": false,
          "internalType": "uint256",
          "name": "minimumDeposit",
          "type": "uint256"
        },
        {
          "indexed": false,
          "internalType": "uint40",
          "name": "payoutMultiplier",
          "type": "uint40"
        },
        {
          "indexed": false,
          "internalType": "uint40",
          "name": "minimumDuration",
          "type": "uint40"
        },
        {
          "indexed": false,
          "internalType": "uint40",
          "name": "maximumDuration",
          "type": "uint40"
        },
        {
          "indexed": false,
          "internalType": "uint40",
          "name": "priceExpiryThreshold",
          "type": "uint40"
        },
        {
          "indexed": false,
          "internalType": "uint40",
          "name": "feeFraction",
          "type": "uint40"
        },
        {
          "indexed": true,
          "internalType": "bool",
          "name": "enabled",
          "type": "bool"
        }
      ],
      "name": "SetAggregatorConfig",
      "type": "event"
    },
    {
      "anonymous": false,
      "inputs": [
        {
          "indexed": false,
          "internalType": "address",
          "name": "feeReceiver",
          "type": "address"
        }
      ],
      "name": "SetFeeReceiver",
      "type": "event"
    },
    {
      "anonymous": false,
      "inputs": [
        {
          "indexed": false,
          "internalType": "address",
          "name": "signer",
          "type": "address"
        }
      ],
      "name": "SetSigner",
      "type": "event"
    },
    {
      "anonymous": false,
      "inputs": [
        {
          "indexed": true,
          "internalType": "address",
          "name": "from",
          "type": "address"
        },
        {
          "indexed": true,
          "internalType": "address",
          "name": "to",
          "type": "address"
        },
        {
          "indexed": true,
          "internalType": "uint256",
          "name": "tokenId",
          "type": "uint256"
        }
      ],
      "name": "Transfer",
      "type": "event"
    },
    {
      "anonymous": false,
      "inputs": [
        {
          "indexed": false,
          "internalType": "address",
          "name": "account",
          "type": "address"
        }
      ],
      "name": "Unpaused",
      "type": "event"
    },
    {
      "inputs": [],
      "name": "PRECISION",
      "outputs": [
        {
          "internalType": "uint256",
          "name": "",
          "type": "uint256"
        }
      ],
      "stateMutability": "view",
      "type": "function"
    },
    {
      "inputs": [],
      "name": "admin",
      "outputs": [
        {
          "internalType": "address",
          "name": "",
          "type": "address"
        }
      ],
      "stateMutability": "view",
      "type": "function"
    },
    {
      "inputs": [
        {
          "internalType": "address",
          "name": "",
          "type": "address"
        }
      ],
      "name": "aggregatorConfig",
      "outputs": [
        {
          "internalType": "uint256",
          "name": "minimumDeposit",
          "type": "uint256"
        },
        {
          "internalType": "uint40",
          "name": "payoutMultiplier",
          "type": "uint40"
        },
        {
          "internalType": "uint40",
          "name": "minimumDuration",
          "type": "uint40"
        },
        {
          "internalType": "uint40",
          "name": "maximumDuration",
          "type": "uint40"
        },
        {
          "internalType": "uint40",
          "name": "priceExpiryThreshold",
          "type": "uint40"
        },
        {
          "internalType": "uint40",
          "name": "feeFraction",
          "type": "uint40"
        },
        {
          "internalType": "bool",
          "name": "enabled",
          "type": "bool"
        }
      ],
      "stateMutability": "view",
      "type": "function"
    },
    {
      "inputs": [
        {
          "internalType": "address",
          "name": "to",
          "type": "address"
        },
        {
          "internalType": "uint256",
          "name": "tokenId",
          "type": "uint256"
        }
      ],
      "name": "approve",
      "outputs": [],
      "stateMutability": "nonpayable",
      "type": "function"
    },
    {
      "inputs": [],
      "name": "asset",
      "outputs": [
        {
          "internalType": "contract IERC20",
          "name": "",
          "type": "address"
        }
      ],
      "stateMutability": "view",
      "type": "function"
    },
    {
      "inputs": [
        {
          "internalType": "address",
          "name": "owner",
          "type": "address"
        }
      ],
      "name": "balanceOf",
      "outputs": [
        {
          "internalType": "uint256",
          "name": "",
          "type": "uint256"
        }
      ],
      "stateMutability": "view",
      "type": "function"
    },
    {
      "inputs": [
        {
          "internalType": "uint256",
          "name": "tokenId",
          "type": "uint256"
        }
      ],
      "name": "close",
      "outputs": [],
      "stateMutability": "nonpayable",
      "type": "function"
    },
    {
      "inputs": [],
      "name": "feeReceiver",
      "outputs": [
        {
          "internalType": "address",
          "name": "",
          "type": "address"
        }
      ],
      "stateMutability": "view",
      "type": "function"
    },
    {
      "inputs": [
        {
          "internalType": "uint256",
          "name": "tokenId",
          "type": "uint256"
        }
      ],
      "name": "getApproved",
      "outputs": [
        {
          "internalType": "address",
          "name": "",
          "type": "address"
        }
      ],
      "stateMutability": "view",
      "type": "function"
    },
    {
      "inputs": [
        {
          "internalType": "address",
          "name": "owner",
          "type": "address"
        },
        {
          "internalType": "address",
          "name": "operator",
          "type": "address"
        }
      ],
      "name": "isApprovedForAll",
      "outputs": [
        {
          "internalType": "bool",
          "name": "",
          "type": "bool"
        }
      ],
      "stateMutability": "view",
      "type": "function"
    },
    {
      "inputs": [],
      "name": "liquidityPool",
      "outputs": [
        {
          "internalType": "contract LiquidityPool",
          "name": "",
          "type": "address"
        }
      ],
      "stateMutability": "view",
      "type": "function"
    },
    {
      "inputs": [],
      "name": "name",
      "outputs": [
        {
          "internalType": "string",
          "name": "",
          "type": "string"
        }
      ],
      "stateMutability": "view",
      "type": "function"
    },
    {
      "inputs": [
        {
          "internalType": "address",
          "name": "aggregator",
          "type": "address"
        },
        {
          "internalType": "uint40",
          "name": "duration",
          "type": "uint40"
        },
        {
          "internalType": "bool",
          "name": "isCall",
          "type": "bool"
        },
        {
          "internalType": "uint256",
          "name": "deposit",
          "type": "uint256"
        },
        {
          "internalType": "address",
          "name": "receiver",
          "type": "address"
        }
      ],
      "name": "open",
      "outputs": [],
      "stateMutability": "nonpayable",
      "type": "function"
    },
    {
      "inputs": [
        {
          "internalType": "uint256",
          "name": "",
          "type": "uint256"
        }
      ],
      "name": "options",
      "outputs": [
        {
          "internalType": "address",
          "name": "aggregator",
          "type": "address"
        },
        {
          "internalType": "uint40",
          "name": "openTime",
          "type": "uint40"
        },
        {
          "internalType": "uint40",
          "name": "expiry",
          "type": "uint40"
        },
        {
          "internalType": "bool",
          "name": "isCall",
          "type": "bool"
        },
        {
          "internalType": "int128",
          "name": "openPrice",
          "type": "int128"
        },
        {
          "internalType": "int128",
          "name": "closePrice",
          "type": "int128"
        },
        {
          "internalType": "uint256",
          "name": "deposit",
          "type": "uint256"
        },
        {
          "internalType": "uint256",
          "name": "payout",
          "type": "uint256"
        }
      ],
      "stateMutability": "view",
      "type": "function"
    },
    {
      "inputs": [
        {
          "internalType": "uint256",
          "name": "tokenId",
          "type": "uint256"
        }
      ],
      "name": "ownerOf",
      "outputs": [
        {
          "internalType": "address",
          "name": "",
          "type": "address"
        }
      ],
      "stateMutability": "view",
      "type": "function"
    },
    {
      "inputs": [],
      "name": "pause",
      "outputs": [],
      "stateMutability": "nonpayable",
      "type": "function"
    },
    {
      "inputs": [],
      "name": "paused",
      "outputs": [
        {
          "internalType": "bool",
          "name": "",
          "type": "bool"
        }
      ],
      "stateMutability": "view",
      "type": "function"
    },
    {
      "inputs": [
        {
          "internalType": "address",
          "name": "from",
          "type": "address"
        },
        {
          "internalType": "address",
          "name": "to",
          "type": "address"
        },
        {
          "internalType": "uint256",
          "name": "tokenId",
          "type": "uint256"
        }
      ],
      "name": "safeTransferFrom",
      "outputs": [],
      "stateMutability": "nonpayable",
      "type": "function"
    },
    {
      "inputs": [
        {
          "internalType": "address",
          "name": "from",
          "type": "address"
        },
        {
          "internalType": "address",
          "name": "to",
          "type": "address"
        },
        {
          "internalType": "uint256",
          "name": "tokenId",
          "type": "uint256"
        },
        {
          "internalType": "bytes",
          "name": "data",
          "type": "bytes"
        }
      ],
      "name": "safeTransferFrom",
      "outputs": [],
      "stateMutability": "nonpayable",
      "type": "function"
    },
    {
      "inputs": [
        {
          "internalType": "address",
          "name": "aggregator",
          "type": "address"
        },
        {
          "internalType": "uint256",
          "name": "minimumDeposit",
          "type": "uint256"
        },
        {
          "internalType": "uint40",
          "name": "payoutMultiplier",
          "type": "uint40"
        },
        {
          "internalType": "uint40",
          "name": "minimumDuration",
          "type": "uint40"
        },
        {
          "internalType": "uint40",
          "name": "maximumDuration",
          "type": "uint40"
        },
        {
          "internalType": "uint40",
          "name": "priceExpiryThreshold",
          "type": "uint40"
        },
        {
          "internalType": "uint40",
          "name": "feeFraction",
          "type": "uint40"
        },
        {
          "internalType": "bool",
          "name": "enabled",
          "type": "bool"
        }
      ],
      "name": "setAggregatorConfig",
      "outputs": [],
      "stateMutability": "nonpayable",
      "type": "function"
    },
    {
      "inputs": [
        {
          "internalType": "address",
          "name": "operator",
          "type": "address"
        },
        {
          "internalType": "bool",
          "name": "approved",
          "type": "bool"
        }
      ],
      "name": "setApprovalForAll",
      "outputs": [],
      "stateMutability": "nonpayable",
      "type": "function"
    },
    {
      "inputs": [
        {
          "internalType": "address",
          "name": "feeReceiver_",
          "type": "address"
        }
      ],
      "name": "setFeeReceiver",
      "outputs": [],
      "stateMutability": "nonpayable",
      "type": "function"
    },
    {
      "inputs": [
        {
          "internalType": "address",
          "name": "signer_",
          "type": "address"
        }
      ],
      "name": "setSigner",
      "outputs": [],
      "stateMutability": "nonpayable",
      "type": "function"
    },
    {
      "inputs": [],
      "name": "signer",
      "outputs": [
        {
          "internalType": "address",
          "name": "",
          "type": "address"
        }
      ],
      "stateMutability": "view",
      "type": "function"
    },
    {
      "inputs": [
        {
          "internalType": "bytes4",
          "name": "interfaceId",
          "type": "bytes4"
        }
      ],
      "name": "supportsInterface",
      "outputs": [
        {
          "internalType": "bool",
          "name": "",
          "type": "bool"
        }
      ],
      "stateMutability": "view",
      "type": "function"
    },
    {
      "inputs": [],
      "name": "symbol",
      "outputs": [
        {
          "internalType": "string",
          "name": "",
          "type": "string"
        }
      ],
      "stateMutability": "view",
      "type": "function"
    },
    {
      "inputs": [
        {
          "internalType": "uint256",
          "name": "tokenId",
          "type": "uint256"
        }
      ],
      "name": "tokenURI",
      "outputs": [
        {
          "internalType": "string",
          "name": "",
          "type": "string"
        }
      ],
      "stateMutability": "view",
      "type": "function"
    },
    {
      "inputs": [],
      "name": "totalSupply",
      "outputs": [
        {
          "internalType": "uint256",
          "name": "",
          "type": "uint256"
        }
      ],
      "stateMutability": "view",
      "type": "function"
    },
    {
      "inputs": [
        {
          "internalType": "address",
          "name": "admin_",
          "type": "address"
        }
      ],
      "name": "transferAdmin",
      "outputs": [],
      "stateMutability": "nonpayable",
      "type": "function"
    },
    {
      "inputs": [
        {
          "internalType": "address",
          "name": "from",
          "type": "address"
        },
        {
          "internalType": "address",
          "name": "to",
          "type": "address"
        },
        {
          "internalType": "uint256",
          "name": "tokenId",
          "type": "uint256"
        }
      ],
      "name": "transferFrom",
      "outputs": [],
      "stateMutability": "nonpayable",
      "type": "function"
    },
    {
      "inputs": [],
      "name": "unpause",
      "outputs": [],
      "stateMutability": "nonpayable",
      "type": "function"
    }
  ],
  "bytecode": "0x60c06040523480156200001157600080fd5b506040516200548438038062005484833981810160405281019062000037919062000257565b6040518060400160405280601481526020017f436f72616c2042696e617279204f7074696f6e730000000000000000000000008152506040518060400160405280600481526020017f432d424f00000000000000000000000000000000000000000000000000000000815250336000806101000a81548173ffffffffffffffffffffffffffffffffffffffff021916908373ffffffffffffffffffffffffffffffffffffffff1602179055508160029081620000f4919062000518565b50806003908162000106919062000518565b5050506000600860006101000a81548160ff0219169083151502179055508173ffffffffffffffffffffffffffffffffffffffff1660808173ffffffffffffffffffffffffffffffffffffffff16815250508073ffffffffffffffffffffffffffffffffffffffff1660a08173ffffffffffffffffffffffffffffffffffffffff16815250505050620005ff565b600080fd5b600073ffffffffffffffffffffffffffffffffffffffff82169050919050565b6000620001c68262000199565b9050919050565b6000620001da82620001b9565b9050919050565b620001ec81620001cd565b8114620001f857600080fd5b50565b6000815190506200020c81620001e1565b92915050565b60006200021f82620001b9565b9050919050565b620002318162000212565b81146200023d57600080fd5b50565b600081519050620002518162000226565b92915050565b6000806040838503121562000271576200027062000194565b5b60006200028185828601620001fb565b9250506020620002948582860162000240565b9150509250929050565b600081519050919050565b7f4e487b7100000000000000000000000000000000000000000000000000000000600052604160045260246000fd5b7f4e487b7100000000000000000000000000000000000000000000000000000000600052602260045260246000fd5b600060028204905060018216806200032057607f821691505b602082108103620003365762000335620002d8565b5b50919050565b60008190508160005260206000209050919050565b60006020601f8301049050919050565b600082821b905092915050565b600060088302620003a07fffffffffffffffffffffffffffffffffffffffffffffffffffffffffffffffff8262000361565b620003ac868362000361565b95508019841693508086168417925050509392505050565b6000819050919050565b6000819050919050565b6000620003f9620003f3620003ed84620003c4565b620003ce565b620003c4565b9050919050565b6000819050919050565b6200041583620003d8565b6200042d620004248262000400565b8484546200036e565b825550505050565b600090565b6200044462000435565b620004518184846200040a565b505050565b5b8181101562000479576200046d6000826200043a565b60018101905062000457565b5050565b601f821115620004c85762000492816200033c565b6200049d8462000351565b81016020851015620004ad578190505b620004c5620004bc8562000351565b83018262000456565b50505b505050565b600082821c905092915050565b6000620004ed60001984600802620004cd565b1980831691505092915050565b6000620005088383620004da565b9150826002028217905092915050565b62000523826200029e565b67ffffffffffffffff8111156200053f576200053e620002a9565b5b6200054b825462000307565b620005588282856200047d565b600060209050601f8311600181146200059057600084156200057b578287015190505b620005878582620004fa565b865550620005f7565b601f198416620005a0866200033c565b60005b82811015620005ca57848901518255600182019150602085019450602081019050620005a3565b86831015620005ea5784890151620005e6601f891682620004da565b8355505b6001600288020188555050505b505050505050565b60805160a051614e2e6200065660003960008181610afd01528181610ba501528181610d36015281816119980152611ae4015260008181610be101528181610f68015281816119d50152611a590152614e2e6000f3fe608060405234801561001057600080fd5b50600436106101e55760003560e01c80636c19e7831161010f578063aaf5eb68116100a2578063c87b56dd11610071578063c87b56dd14610551578063e985e9c514610581578063efdcd974146105b1578063f851a440146105cd576101e5565b8063aaf5eb68146104dd578063b3f00674146104fb578063b88d4fde14610519578063c5bfc0af14610535576101e5565b80638fc4254d116100de5780638fc4254d1461045157806395d89b41146104875780639eb4d2bf146104a5578063a22cb465146104c1576101e5565b80636c19e783146103df57806370a08231146103fb57806375829def1461042b5780638456cb5914610447576101e5565b806323b872dd1161018757806342842e0e1161015657806342842e0e146103575780635c975abb146103735780636352211e14610391578063665a11ca146103c1576101e5565b806323b872dd146102dc57806338d52e0f146102f85780633f4ba83a14610316578063409e220514610320576101e5565b8063095ea7b3116101c3578063095ea7b3146102685780630aebeb4e1461028457806318160ddd146102a0578063238ac933146102be576101e5565b806301ffc9a7146101ea57806306fdde031461021a578063081812fc14610238575b600080fd5b61020460048036038101906101ff9190613473565b6105eb565b60405161021191906134bb565b60405180910390f35b6102226106cd565b60405161022f9190613566565b60405180910390f35b610252600480360381019061024d91906135be565b61075f565b60405161025f919061362c565b60405180910390f35b610282600480360381019061027d9190613673565b6107a5565b005b61029e600480360381019061029991906135be565b6108bc565b005b6102a8610ca8565b6040516102b591906136c2565b60405180910390f35b6102c6610cae565b6040516102d3919061362c565b60405180910390f35b6102f660048036038101906102f191906136dd565b610cd4565b005b610300610d34565b60405161030d919061378f565b60405180910390f35b61031e610d58565b005b61033a600480360381019061033591906135be565b610df8565b60405161034e9897969594939291906137e6565b60405180910390f35b610371600480360381019061036c91906136dd565b610ea9565b005b61037b610ec9565b60405161038891906134bb565b60405180910390f35b6103ab60048036038101906103a691906135be565b610ee0565b6040516103b8919061362c565b60405180910390f35b6103c9610f66565b6040516103d69190613885565b60405180910390f35b6103f960048036038101906103f491906138a0565b610f8a565b005b610415600480360381019061041091906138a0565b611093565b60405161042291906136c2565b60405180910390f35b610445600480360381019061044091906138a0565b61114a565b005b61044f611252565b005b61046b600480360381019061046691906138a0565b6112f2565b60405161047e97969594939291906138cd565b60405180910390f35b61048f611396565b60405161049c9190613566565b60405180910390f35b6104bf60048036038101906104ba9190613994565b611428565b005b6104db60048036038101906104d69190613a0f565b611bb1565b005b6104e5611bc7565b6040516104f291906136c2565b60405180910390f35b610503611bcd565b604051610510919061362c565b60405180910390f35b610533600480360381019061052e9190613b84565b611bf3565b005b61054f600480360381019061054a9190613c07565b611c55565b005b61056b600480360381019061056691906135be565b611fe2565b6040516105789190613566565b60405180910390f35b61059b60048036038101906105969190613cbd565b61204a565b6040516105a891906134bb565b60405180910390f35b6105cb60048036038101906105c691906138a0565b6120de565b005b6105d56121e7565b6040516105e2919061362c565b60405180910390f35b60007f80ac58cd000000000000000000000000000000000000000000000000000000007bffffffffffffffffffffffffffffffffffffffffffffffffffffffff1916827bffffffffffffffffffffffffffffffffffffffffffffffffffffffff191614806106b657507f5b5e139f000000000000000000000000000000000000000000000000000000007bffffffffffffffffffffffffffffffffffffffffffffffffffffffff1916827bffffffffffffffffffffffffffffffffffffffffffffffffffffffff1916145b806106c657506106c58261220b565b5b9050919050565b6060600280546106dc90613d2c565b80601f016020809104026020016040519081016040528092919081815260200182805461070890613d2c565b80156107555780601f1061072a57610100808354040283529160200191610755565b820191906000526020600020905b81548152906001019060200180831161073857829003601f168201915b5050505050905090565b600061076a82612275565b6006600083815260200190815260200160002060009054906101000a900473ffffffffffffffffffffffffffffffffffffffff169050919050565b60006107b082610ee0565b90508073ffffffffffffffffffffffffffffffffffffffff168373ffffffffffffffffffffffffffffffffffffffff1603610820576040517f08c379a000000000000000000000000000000000000000000000000000000000815260040161081790613dcf565b60405180910390fd5b8073ffffffffffffffffffffffffffffffffffffffff1661083f6122c0565b73ffffffffffffffffffffffffffffffffffffffff16148061086e575061086d816108686122c0565b61204a565b5b6108ad576040517f08c379a00000000000000000000000000000000000000000000000000000000081526004016108a490613e61565b60405180910390fd5b6108b783836122c8565b505050565b6108c4612381565b6000600c60008381526020019081526020016000209050428160000160199054906101000a900464ffffffffff1664ffffffffff16111561093a576040517f08c379a000000000000000000000000000000000000000000000000000000000815260040161093190613ecd565b60405180910390fd5b610943826123cb565b610982576040517f08c379a000000000000000000000000000000000000000000000000000000000815260040161097990613f39565b60405180910390fd5b600061098d83610ee0565b90506109988361240c565b6000610a3f8360000160009054906101000a900473ffffffffffffffffffffffffffffffffffffffff16600960008660000160009054906101000a900473ffffffffffffffffffffffffffffffffffffffff1673ffffffffffffffffffffffffffffffffffffffff1673ffffffffffffffffffffffffffffffffffffffff168152602001908152602001600020600101600f9054906101000a900464ffffffffff1661255a565b9050808360010160106101000a8154816fffffffffffffffffffffffffffffffff0219169083600f0b6fffffffffffffffffffffffffffffffff160217905550600083600001601e9054906101000a900460ff16610ac7578360010160009054906101000a9004600f0b600f0b8460010160109054906101000a9004600f0b600f0b12610af3565b8360010160009054906101000a9004600f0b600f0b8460010160109054906101000a9004600f0b600f0b135b90508015610ba3577f000000000000000000000000000000000000000000000000000000000000000073ffffffffffffffffffffffffffffffffffffffff1663a9059cbb8486600301546040518363ffffffff1660e01b8152600401610b5a929190613f59565b6020604051808303816000875af1158015610b79573d6000803e3d6000fd5b505050506040513d601f19601f82011682018060405250810190610b9d9190613f97565b50610c67565b7f000000000000000000000000000000000000000000000000000000000000000073ffffffffffffffffffffffffffffffffffffffff1663a9059cbb7f000000000000000000000000000000000000000000000000000000000000000086600301546040518363ffffffff1660e01b8152600401610c22929190613f59565b6020604051808303816000875af1158015610c41573d6000803e3d6000fd5b505050506040513d601f19601f82011682018060405250810190610c659190613f97565b505b847f2be70e0a01ffe13c3d78f18e76f110043eb8de7e0f9ef8c321a2455b785fcb048385604051610c99929190613fc4565b60405180910390a25050505050565b600b5481565b600160009054906101000a900473ffffffffffffffffffffffffffffffffffffffff1681565b610ce5610cdf6122c0565b8261263a565b610d24576040517f08c379a0000000000000000000000000000000000000000000000000000000008152600401610d1b9061405f565b60405180910390fd5b610d2f8383836126cf565b505050565b7f000000000000000000000000000000000000000000000000000000000000000081565b610d606129c8565b60008054906101000a900473ffffffffffffffffffffffffffffffffffffffff1673ffffffffffffffffffffffffffffffffffffffff163373ffffffffffffffffffffffffffffffffffffffff1614610dee576040517f08c379a0000000000000000000000000000000000000000000000000000000008152600401610de5906140cb565b60405180910390fd5b610df6612a11565b565b600c6020528060005260406000206000915090508060000160009054906101000a900473ffffffffffffffffffffffffffffffffffffffff16908060000160149054906101000a900464ffffffffff16908060000160199054906101000a900464ffffffffff169080600001601e9054906101000a900460ff16908060010160009054906101000a9004600f0b908060010160109054906101000a9004600f0b908060020154908060030154905088565b610ec483838360405180602001604052806000815250611bf3565b505050565b6000600860009054906101000a900460ff16905090565b600080610eec83612a74565b9050600073ffffffffffffffffffffffffffffffffffffffff168173ffffffffffffffffffffffffffffffffffffffff1603610f5d576040517f08c379a0000000000000000000000000000000000000000000000000000000008152600401610f5490614137565b60405180910390fd5b80915050919050565b7f000000000000000000000000000000000000000000000000000000000000000081565b60008054906101000a900473ffffffffffffffffffffffffffffffffffffffff1673ffffffffffffffffffffffffffffffffffffffff163373ffffffffffffffffffffffffffffffffffffffff1614611018576040517f08c379a000000000000000000000000000000000000000000000000000000000815260040161100f906140cb565b60405180910390fd5b80600160006101000a81548173ffffffffffffffffffffffffffffffffffffffff021916908373ffffffffffffffffffffffffffffffffffffffff1602179055507fbb10aee7ef5a307b8097c6a7f2892b909ff1736fd24a6a5260640c185f7153b681604051611088919061362c565b60405180910390a150565b60008073ffffffffffffffffffffffffffffffffffffffff168273ffffffffffffffffffffffffffffffffffffffff1603611103576040517f08c379a00000000000000000000000000000000000000000000000000000000081526004016110fa906141c9565b60405180910390fd5b600560008373ffffffffffffffffffffffffffffffffffffffff1673ffffffffffffffffffffffffffffffffffffffff168152602001908152602001600020549050919050565b60008054906101000a900473ffffffffffffffffffffffffffffffffffffffff1673ffffffffffffffffffffffffffffffffffffffff163373ffffffffffffffffffffffffffffffffffffffff16146111d8576040517f08c379a00000000000000000000000000000000000000000000000000000000081526004016111cf906140cb565b60405180910390fd5b806000806101000a81548173ffffffffffffffffffffffffffffffffffffffff021916908373ffffffffffffffffffffffffffffffffffffffff1602179055507f5a272403b402d892977df56625f4164ccaf70ca3863991c43ecfe76a6905b0a181604051611247919061362c565b60405180910390a150565b61125a612381565b60008054906101000a900473ffffffffffffffffffffffffffffffffffffffff1673ffffffffffffffffffffffffffffffffffffffff163373ffffffffffffffffffffffffffffffffffffffff16146112e8576040517f08c379a00000000000000000000000000000000000000000000000000000000081526004016112df906140cb565b60405180910390fd5b6112f0612ab1565b565b60096020528060005260406000206000915090508060000154908060010160009054906101000a900464ffffffffff16908060010160059054906101000a900464ffffffffff169080600101600a9054906101000a900464ffffffffff169080600101600f9054906101000a900464ffffffffff16908060010160149054906101000a900464ffffffffff16908060010160199054906101000a900460ff16905087565b6060600380546113a590613d2c565b80601f01602080910402602001604051908101604052809291908181526020018280546113d190613d2c565b801561141e5780601f106113f35761010080835404028352916020019161141e565b820191906000526020600020905b81548152906001019060200180831161140157829003601f168201915b5050505050905090565b611430612381565b6000600960008773ffffffffffffffffffffffffffffffffffffffff1673ffffffffffffffffffffffffffffffffffffffff1681526020019081526020016000206040518060e0016040529081600082015481526020016001820160009054906101000a900464ffffffffff1664ffffffffff1664ffffffffff1681526020016001820160059054906101000a900464ffffffffff1664ffffffffff1664ffffffffff16815260200160018201600a9054906101000a900464ffffffffff1664ffffffffff1664ffffffffff16815260200160018201600f9054906101000a900464ffffffffff1664ffffffffff1664ffffffffff1681526020016001820160149054906101000a900464ffffffffff1664ffffffffff1664ffffffffff1681526020016001820160199054906101000a900460ff16151515158152505090508060c001516115b4576040517f08c379a00000000000000000000000000000000000000000000000000000000081526004016115ab90614235565b60405180910390fd5b806040015164ffffffffff168564ffffffffff16101580156115e85750806060015164ffffffffff168564ffffffffff1611155b611627576040517f08c379a000000000000000000000000000000000000000000000000000000000815260040161161e906142a1565b60405180910390fd5b806000015183101561166e576040517f08c379a00000000000000000000000000000000000000000000000000000000081526004016116659061430d565b60405180910390fd5b60006127108260a0015164ffffffffff168561168a919061435c565b61169491906143e5565b9050600081856116a49190614416565b9050600081116116e9576040517f08c379a00000000000000000000000000000000000000000000000000000000081526004016116e090614496565b60405180910390fd5b6000612710846020015164ffffffffff1683611705919061435c565b61170f91906143e5565b90506000600b60008154611722906144b6565b91905081905590506117348682612b14565b60008964ffffffffff164261174991906144fe565b9050600061175b8c886080015161255a565b90506040518061010001604052808d73ffffffffffffffffffffffffffffffffffffffff1681526020014264ffffffffff1681526020018364ffffffffff1681526020018b1515815260200182600f0b81526020016000600f0b815260200186815260200185815250600c600085815260200190815260200160002060008201518160000160006101000a81548173ffffffffffffffffffffffffffffffffffffffff021916908373ffffffffffffffffffffffffffffffffffffffff16021790555060208201518160000160146101000a81548164ffffffffff021916908364ffffffffff16021790555060408201518160000160196101000a81548164ffffffffff021916908364ffffffffff160217905550606082015181600001601e6101000a81548160ff02191690831515021790555060808201518160010160006101000a8154816fffffffffffffffffffffffffffffffff0219169083600f0b6fffffffffffffffffffffffffffffffff16021790555060a08201518160010160106101000a8154816fffffffffffffffffffffffffffffffff0219169083600f0b6fffffffffffffffffffffffffffffffff16021790555060c0820151816002015560e082015181600301559050508b73ffffffffffffffffffffffffffffffffffffffff16837f6817959c00b028c4c7b84ea29497fde7b8802d392d5ff34f565bac98d61fe8b88d64ffffffffff164261197791906144fe565b8d858a8c8b60405161198e96959493929190614532565b60405180910390a37f000000000000000000000000000000000000000000000000000000000000000073ffffffffffffffffffffffffffffffffffffffff166323b872dd337f0000000000000000000000000000000000000000000000000000000000000000886040518463ffffffff1660e01b8152600401611a1393929190614593565b6020604051808303816000875af1158015611a32573d6000803e3d6000fd5b505050506040513d601f19601f82011682018060405250810190611a569190613f97565b507f000000000000000000000000000000000000000000000000000000000000000073ffffffffffffffffffffffffffffffffffffffff1663f0dd71c7856040518263ffffffff1660e01b8152600401611ab091906136c2565b600060405180830381600087803b158015611aca57600080fd5b505af1158015611ade573d6000803e3d6000fd5b505050507f000000000000000000000000000000000000000000000000000000000000000073ffffffffffffffffffffffffffffffffffffffff1663a9059cbb600a60009054906101000a900473ffffffffffffffffffffffffffffffffffffffff16886040518363ffffffff1660e01b8152600401611b5f929190613f59565b6020604051808303816000875af1158015611b7e573d6000803e3d6000fd5b505050506040513d601f19601f82011682018060405250810190611ba29190613f97565b50505050505050505050505050565b611bc3611bbc6122c0565b8383612d31565b5050565b61271081565b600a60009054906101000a900473ffffffffffffffffffffffffffffffffffffffff1681565b611c04611bfe6122c0565b8361263a565b611c43576040517f08c379a0000000000000000000000000000000000000000000000000000000008152600401611c3a9061405f565b60405180910390fd5b611c4f84848484612e9d565b50505050565b60008054906101000a900473ffffffffffffffffffffffffffffffffffffffff1673ffffffffffffffffffffffffffffffffffffffff163373ffffffffffffffffffffffffffffffffffffffff1614611ce3576040517f08c379a0000000000000000000000000000000000000000000000000000000008152600401611cda906140cb565b60405180910390fd5b6127108664ffffffffff1610158015611d1157506127106002611d06919061435c565b8664ffffffffff1611155b611d50576040517f08c379a0000000000000000000000000000000000000000000000000000000008152600401611d4790614616565b60405180910390fd5b8364ffffffffff168564ffffffffff161115611da1576040517f08c379a0000000000000000000000000000000000000000000000000000000008152600401611d9890614682565b60405180910390fd5b6127108264ffffffffff1610611dec576040517f08c379a0000000000000000000000000000000000000000000000000000000008152600401611de3906146ee565b60405180910390fd5b6040518060e001604052808881526020018764ffffffffff1681526020018664ffffffffff1681526020018564ffffffffff1681526020018464ffffffffff1681526020018364ffffffffff168152602001821515815250600960008a73ffffffffffffffffffffffffffffffffffffffff1673ffffffffffffffffffffffffffffffffffffffff1681526020019081526020016000206000820151816000015560208201518160010160006101000a81548164ffffffffff021916908364ffffffffff16021790555060408201518160010160056101000a81548164ffffffffff021916908364ffffffffff160217905550606082015181600101600a6101000a81548164ffffffffff021916908364ffffffffff160217905550608082015181600101600f6101000a81548164ffffffffff021916908364ffffffffff16021790555060a08201518160010160146101000a81548164ffffffffff021916908364ffffffffff16021790555060c08201518160010160196101000a81548160ff0219169083151502179055509050508015158873ffffffffffffffffffffffffffffffffffffffff167f4239faf2cfbfea1c44f691a747f1a42f389acebe3dbf2c5adb01017aa61752c8898989898989604051611fd09695949392919061470e565b60405180910390a35050505050505050565b6060611fed82612275565b6000611ff7612ef9565b905060008151116120175760405180602001604052806000815250612042565b8061202184612f10565b6040516020016120329291906147ab565b6040516020818303038152906040525b915050919050565b6000600760008473ffffffffffffffffffffffffffffffffffffffff1673ffffffffffffffffffffffffffffffffffffffff16815260200190815260200160002060008373ffffffffffffffffffffffffffffffffffffffff1673ffffffffffffffffffffffffffffffffffffffff16815260200190815260200160002060009054906101000a900460ff16905092915050565b60008054906101000a900473ffffffffffffffffffffffffffffffffffffffff1673ffffffffffffffffffffffffffffffffffffffff163373ffffffffffffffffffffffffffffffffffffffff161461216c576040517f08c379a0000000000000000000000000000000000000000000000000000000008152600401612163906140cb565b60405180910390fd5b80600a60006101000a81548173ffffffffffffffffffffffffffffffffffffffff021916908373ffffffffffffffffffffffffffffffffffffffff1602179055507fffb40bfdfd246e95f543d08d9713c339f1d90fa9265e39b4f562f9011d7c919f816040516121dc919061362c565b60405180910390a150565b60008054906101000a900473ffffffffffffffffffffffffffffffffffffffff1681565b60007f01ffc9a7000000000000000000000000000000000000000000000000000000007bffffffffffffffffffffffffffffffffffffffffffffffffffffffff1916827bffffffffffffffffffffffffffffffffffffffffffffffffffffffff1916149050919050565b61227e816123cb565b6122bd576040517f08c379a00000000000000000000000000000000000000000000000000000000081526004016122b490614137565b60405180910390fd5b50565b600033905090565b816006600083815260200190815260200160002060006101000a81548173ffffffffffffffffffffffffffffffffffffffff021916908373ffffffffffffffffffffffffffffffffffffffff160217905550808273ffffffffffffffffffffffffffffffffffffffff1661233b83610ee0565b73ffffffffffffffffffffffffffffffffffffffff167f8c5be1e5ebec7d5bd14f71427d1e84f3dd0314c0f7b2291e5b200ac8c7c3b92560405160405180910390a45050565b612389610ec9565b156123c9576040517f08c379a00000000000000000000000000000000000000000000000000000000081526004016123c09061481b565b60405180910390fd5b565b60008073ffffffffffffffffffffffffffffffffffffffff166123ed83612a74565b73ffffffffffffffffffffffffffffffffffffffff1614159050919050565b600061241782610ee0565b9050612427816000846001612fde565b61243082610ee0565b90506006600083815260200190815260200160002060006101000a81549073ffffffffffffffffffffffffffffffffffffffff02191690556001600560008373ffffffffffffffffffffffffffffffffffffffff1673ffffffffffffffffffffffffffffffffffffffff168152602001908152602001600020600082825403925050819055506004600083815260200190815260200160002060006101000a81549073ffffffffffffffffffffffffffffffffffffffff021916905581600073ffffffffffffffffffffffffffffffffffffffff168273ffffffffffffffffffffffffffffffffffffffff167fddf252ad1be2c89b69c2b068fc378daa952ba7f163c4a11628f55a4df523b3ef60405160405180910390a4612556816000846001613104565b5050565b6000808390506000808273ffffffffffffffffffffffffffffffffffffffff1663feaf968c6040518163ffffffff1660e01b815260040160a060405180830381865afa1580156125ae573d6000803e3d6000fd5b505050506040513d601f19601f820116820180604052508101906125d291906148c8565b509350509250508464ffffffffff16816125ec91906144fe565b42111561262e576040517f08c379a00000000000000000000000000000000000000000000000000000000081526004016126259061498f565b60405180910390fd5b81935050505092915050565b60008061264683610ee0565b90508073ffffffffffffffffffffffffffffffffffffffff168473ffffffffffffffffffffffffffffffffffffffff1614806126885750612687818561204a565b5b806126c657508373ffffffffffffffffffffffffffffffffffffffff166126ae8461075f565b73ffffffffffffffffffffffffffffffffffffffff16145b91505092915050565b8273ffffffffffffffffffffffffffffffffffffffff166126ef82610ee0565b73ffffffffffffffffffffffffffffffffffffffff1614612745576040517f08c379a000000000000000000000000000000000000000000000000000000000815260040161273c90614a21565b60405180910390fd5b600073ffffffffffffffffffffffffffffffffffffffff168273ffffffffffffffffffffffffffffffffffffffff16036127b4576040517f08c379a00000000000000000000000000000000000000000000000000000000081526004016127ab90614ab3565b60405180910390fd5b6127c18383836001612fde565b8273ffffffffffffffffffffffffffffffffffffffff166127e182610ee0565b73ffffffffffffffffffffffffffffffffffffffff1614612837576040517f08c379a000000000000000000000000000000000000000000000000000000000815260040161282e90614a21565b60405180910390fd5b6006600082815260200190815260200160002060006101000a81549073ffffffffffffffffffffffffffffffffffffffff02191690556001600560008573ffffffffffffffffffffffffffffffffffffffff1673ffffffffffffffffffffffffffffffffffffffff168152602001908152602001600020600082825403925050819055506001600560008473ffffffffffffffffffffffffffffffffffffffff1673ffffffffffffffffffffffffffffffffffffffff16815260200190815260200160002060008282540192505081905550816004600083815260200190815260200160002060006101000a81548173ffffffffffffffffffffffffffffffffffffffff021916908373ffffffffffffffffffffffffffffffffffffffff160217905550808273ffffffffffffffffffffffffffffffffffffffff168473ffffffffffffffffffffffffffffffffffffffff167fddf252ad1be2c89b69c2b068fc378daa952ba7f163c4a11628f55a4df523b3ef60405160405180910390a46129c38383836001613104565b505050565b6129d0610ec9565b612a0f576040517f08c379a0000000000000000000000000000000000000000000000000000000008152600401612a0690614b1f565b60405180910390fd5b565b612a196129c8565b6000600860006101000a81548160ff0219169083151502179055507f5db9ee0a495bf2e6ff9c91a7834c1ba4fdd244a5e8aa4e537bd38aeae4b073aa612a5d6122c0565b604051612a6a919061362c565b60405180910390a1565b60006004600083815260200190815260200160002060009054906101000a900473ffffffffffffffffffffffffffffffffffffffff169050919050565b612ab9612381565b6001600860006101000a81548160ff0219169083151502179055507f62e78cea01bee320cd4e420270b5ea74000d11b0c9f74754ebdbfc544b05a258612afd6122c0565b604051612b0a919061362c565b60405180910390a1565b600073ffffffffffffffffffffffffffffffffffffffff168273ffffffffffffffffffffffffffffffffffffffff1603612b83576040517f08c379a0000000000000000000000000000000000000000000000000000000008152600401612b7a90614b8b565b60405180910390fd5b612b8c816123cb565b15612bcc576040517f08c379a0000000000000000000000000000000000000000000000000000000008152600401612bc390614bf7565b60405180910390fd5b612bda600083836001612fde565b612be3816123cb565b15612c23576040517f08c379a0000000000000000000000000000000000000000000000000000000008152600401612c1a90614bf7565b60405180910390fd5b6001600560008473ffffffffffffffffffffffffffffffffffffffff1673ffffffffffffffffffffffffffffffffffffffff16815260200190815260200160002060008282540192505081905550816004600083815260200190815260200160002060006101000a81548173ffffffffffffffffffffffffffffffffffffffff021916908373ffffffffffffffffffffffffffffffffffffffff160217905550808273ffffffffffffffffffffffffffffffffffffffff16600073ffffffffffffffffffffffffffffffffffffffff167fddf252ad1be2c89b69c2b068fc378daa952ba7f163c4a11628f55a4df523b3ef60405160405180910390a4612d2d600083836001613104565b5050565b8173ffffffffffffffffffffffffffffffffffffffff168373ffffffffffffffffffffffffffffffffffffffff1603612d9f576040517f08c379a0000000000000000000000000000000000000000000000000000000008152600401612d9690614c63565b60405180910390fd5b80600760008573ffffffffffffffffffffffffffffffffffffffff1673ffffffffffffffffffffffffffffffffffffffff16815260200190815260200160002060008473ffffffffffffffffffffffffffffffffffffffff1673ffffffffffffffffffffffffffffffffffffffff16815260200190815260200160002060006101000a81548160ff0219169083151502179055508173ffffffffffffffffffffffffffffffffffffffff168373ffffffffffffffffffffffffffffffffffffffff167f17307eab39ab6107e8899845ad3d59bd9653f200f220920489ca2b5937696c3183604051612e9091906134bb565b60405180910390a3505050565b612ea88484846126cf565b612eb48484848461310a565b612ef3576040517f08c379a0000000000000000000000000000000000000000000000000000000008152600401612eea90614cf5565b60405180910390fd5b50505050565b606060405180602001604052806000815250905090565b606060006001612f1f84613291565b01905060008167ffffffffffffffff811115612f3e57612f3d613a59565b5b6040519080825280601f01601f191660200182016040528015612f705781602001600182028036833780820191505090505b509050600082602001820190505b600115612fd3578080600190039150507f3031323334353637383961626364656600000000000000000000000000000000600a86061a8153600a8581612fc757612fc66143b6565b5b04945060008503612f7e575b819350505050919050565b60018111156130fe57600073ffffffffffffffffffffffffffffffffffffffff168473ffffffffffffffffffffffffffffffffffffffff16146130725780600560008673ffffffffffffffffffffffffffffffffffffffff1673ffffffffffffffffffffffffffffffffffffffff168152602001908152602001600020600082825461306a9190614416565b925050819055505b600073ffffffffffffffffffffffffffffffffffffffff168373ffffffffffffffffffffffffffffffffffffffff16146130fd5780600560008573ffffffffffffffffffffffffffffffffffffffff1673ffffffffffffffffffffffffffffffffffffffff16815260200190815260200160002060008282546130f591906144fe565b925050819055505b5b50505050565b50505050565b600061312b8473ffffffffffffffffffffffffffffffffffffffff166133e4565b15613284578373ffffffffffffffffffffffffffffffffffffffff1663150b7a026131546122c0565b8786866040518563ffffffff1660e01b81526004016131769493929190614d6a565b6020604051808303816000875af19250505080156131b257506040513d601f19601f820116820180604052508101906131af9190614dcb565b60015b613234573d80600081146131e2576040519150601f19603f3d011682016040523d82523d6000602084013e6131e7565b606091505b50600081510361322c576040517f08c379a000000000000000000000000000000000000000000000000000000000815260040161322390614cf5565b60405180910390fd5b805181602001fd5b63150b7a0260e01b7bffffffffffffffffffffffffffffffffffffffffffffffffffffffff1916817bffffffffffffffffffffffffffffffffffffffffffffffffffffffff191614915050613289565b600190505b949350505050565b600080600090507a184f03e93ff9f4daa797ed6e38ed64bf6a1f01000000000000000083106132ef577a184f03e93ff9f4daa797ed6e38ed64bf6a1f01000000000000000083816132e5576132e46143b6565b5b0492506040810190505b6d04ee2d6d415b85acef8100000000831061332c576d04ee2d6d415b85acef81000000008381613322576133216143b6565b5b0492506020810190505b662386f26fc10000831061335b57662386f26fc100008381613351576133506143b6565b5b0492506010810190505b6305f5e1008310613384576305f5e100838161337a576133796143b6565b5b0492506008810190505b61271083106133a957612710838161339f5761339e6143b6565b5b0492506004810190505b606483106133cc57606483816133c2576133c16143b6565b5b0492506002810190505b600a83106133db576001810190505b80915050919050565b6000808273ffffffffffffffffffffffffffffffffffffffff163b119050919050565b6000604051905090565b600080fd5b600080fd5b60007fffffffff0000000000000000000000000000000000000000000000000000000082169050919050565b6134508161341b565b811461345b57600080fd5b50565b60008135905061346d81613447565b92915050565b60006020828403121561348957613488613411565b5b60006134978482850161345e565b91505092915050565b60008115159050919050565b6134b5816134a0565b82525050565b60006020820190506134d060008301846134ac565b92915050565b600081519050919050565b600082825260208201905092915050565b60005b838110156135105780820151818401526020810190506134f5565b60008484015250505050565b6000601f19601f8301169050919050565b6000613538826134d6565b61354281856134e1565b93506135528185602086016134f2565b61355b8161351c565b840191505092915050565b60006020820190508181036000830152613580818461352d565b905092915050565b6000819050919050565b61359b81613588565b81146135a657600080fd5b50565b6000813590506135b881613592565b92915050565b6000602082840312156135d4576135d3613411565b5b60006135e2848285016135a9565b91505092915050565b600073ffffffffffffffffffffffffffffffffffffffff82169050919050565b6000613616826135eb565b9050919050565b6136268161360b565b82525050565b6000602082019050613641600083018461361d565b92915050565b6136508161360b565b811461365b57600080fd5b50565b60008135905061366d81613647565b92915050565b6000806040838503121561368a57613689613411565b5b60006136988582860161365e565b92505060206136a9858286016135a9565b9150509250929050565b6136bc81613588565b82525050565b60006020820190506136d760008301846136b3565b92915050565b6000806000606084860312156136f6576136f5613411565b5b60006137048682870161365e565b93505060206137158682870161365e565b9250506040613726868287016135a9565b9150509250925092565b6000819050919050565b600061375561375061374b846135eb565b613730565b6135eb565b9050919050565b60006137678261373a565b9050919050565b60006137798261375c565b9050919050565b6137898161376e565b82525050565b60006020820190506137a46000830184613780565b92915050565b600064ffffffffff82169050919050565b6137c4816137aa565b82525050565b600081600f0b9050919050565b6137e0816137ca565b82525050565b6000610100820190506137fc600083018b61361d565b613809602083018a6137bb565b61381660408301896137bb565b61382360608301886134ac565b61383060808301876137d7565b61383d60a08301866137d7565b61384a60c08301856136b3565b61385760e08301846136b3565b9998505050505050505050565b600061386f8261375c565b9050919050565b61387f81613864565b82525050565b600060208201905061389a6000830184613876565b92915050565b6000602082840312156138b6576138b5613411565b5b60006138c48482850161365e565b91505092915050565b600060e0820190506138e2600083018a6136b3565b6138ef60208301896137bb565b6138fc60408301886137bb565b61390960608301876137bb565b61391660808301866137bb565b61392360a08301856137bb565b61393060c08301846134ac565b98975050505050505050565b613945816137aa565b811461395057600080fd5b50565b6000813590506139628161393c565b92915050565b613971816134a0565b811461397c57600080fd5b50565b60008135905061398e81613968565b92915050565b600080600080600060a086880312156139b0576139af613411565b5b60006139be8882890161365e565b95505060206139cf88828901613953565b94505060406139e08882890161397f565b93505060606139f1888289016135a9565b9250506080613a028882890161365e565b9150509295509295909350565b60008060408385031215613a2657613a25613411565b5b6000613a348582860161365e565b9250506020613a458582860161397f565b9150509250929050565b600080fd5b600080fd5b7f4e487b7100000000000000000000000000000000000000000000000000000000600052604160045260246000fd5b613a918261351c565b810181811067ffffffffffffffff82111715613ab057613aaf613a59565b5b80604052505050565b6000613ac3613407565b9050613acf8282613a88565b919050565b600067ffffffffffffffff821115613aef57613aee613a59565b5b613af88261351c565b9050602081019050919050565b82818337600083830152505050565b6000613b27613b2284613ad4565b613ab9565b905082815260208101848484011115613b4357613b42613a54565b5b613b4e848285613b05565b509392505050565b600082601f830112613b6b57613b6a613a4f565b5b8135613b7b848260208601613b14565b91505092915050565b60008060008060808587031215613b9e57613b9d613411565b5b6000613bac8782880161365e565b9450506020613bbd8782880161365e565b9350506040613bce878288016135a9565b925050606085013567ffffffffffffffff811115613bef57613bee613416565b5b613bfb87828801613b56565b91505092959194509250565b600080600080600080600080610100898b031215613c2857613c27613411565b5b6000613c368b828c0161365e565b9850506020613c478b828c016135a9565b9750506040613c588b828c01613953565b9650506060613c698b828c01613953565b9550506080613c7a8b828c01613953565b94505060a0613c8b8b828c01613953565b93505060c0613c9c8b828c01613953565b92505060e0613cad8b828c0161397f565b9150509295985092959890939650565b60008060408385031215613cd457613cd3613411565b5b6000613ce28582860161365e565b9250506020613cf38582860161365e565b9150509250929050565b7f4e487b7100000000000000000000000000000000000000000000000000000000600052602260045260246000fd5b60006002820490506001821680613d4457607f821691505b602082108103613d5757613d56613cfd565b5b50919050565b7f4552433732313a20617070726f76616c20746f2063757272656e74206f776e6560008201527f7200000000000000000000000000000000000000000000000000000000000000602082015250565b6000613db96021836134e1565b9150613dc482613d5d565b604082019050919050565b60006020820190508181036000830152613de881613dac565b9050919050565b7f4552433732313a20617070726f76652063616c6c6572206973206e6f7420746f60008201527f6b656e206f776e6572206f7220617070726f76656420666f7220616c6c000000602082015250565b6000613e4b603d836134e1565b9150613e5682613def565b604082019050919050565b60006020820190508181036000830152613e7a81613e3e565b9050919050565b7f4f7074696f6e20686173206e6f74206578706972656400000000000000000000600082015250565b6000613eb76016836134e1565b9150613ec282613e81565b602082019050919050565b60006020820190508181036000830152613ee681613eaa565b9050919050565b7f4f7074696f6e206973206e6f74206f70656e0000000000000000000000000000600082015250565b6000613f236012836134e1565b9150613f2e82613eed565b602082019050919050565b60006020820190508181036000830152613f5281613f16565b9050919050565b6000604082019050613f6e600083018561361d565b613f7b60208301846136b3565b9392505050565b600081519050613f9181613968565b92915050565b600060208284031215613fad57613fac613411565b5b6000613fbb84828501613f82565b91505092915050565b6000604082019050613fd960008301856137d7565b613fe6602083018461361d565b9392505050565b7f4552433732313a2063616c6c6572206973206e6f7420746f6b656e206f776e6560008201527f72206f7220617070726f76656400000000000000000000000000000000000000602082015250565b6000614049602d836134e1565b915061405482613fed565b604082019050919050565b600060208201905081810360008301526140788161403c565b9050919050565b7f556e617574686f72697a65642063616c6c657200000000000000000000000000600082015250565b60006140b56013836134e1565b91506140c08261407f565b602082019050919050565b600060208201905081810360008301526140e4816140a8565b9050919050565b7f4552433732313a20696e76616c696420746f6b656e2049440000000000000000600082015250565b60006141216018836134e1565b915061412c826140eb565b602082019050919050565b6000602082019050818103600083015261415081614114565b9050919050565b7f4552433732313a2061646472657373207a65726f206973206e6f74206120766160008201527f6c6964206f776e65720000000000000000000000000000000000000000000000602082015250565b60006141b36029836134e1565b91506141be82614157565b604082019050919050565b600060208201905081810360008301526141e2816141a6565b9050919050565b7f41676772656761746f72206e6f7420656e61626c656400000000000000000000600082015250565b600061421f6016836134e1565b915061422a826141e9565b602082019050919050565b6000602082019050818103600083015261424e81614212565b9050919050565b7f4475726174696f6e206f7574206f6620626f756e647300000000000000000000600082015250565b600061428b6016836134e1565b915061429682614255565b602082019050919050565b600060208201905081810360008301526142ba8161427e565b9050919050565b7f4465706f73697420746f6f20736d616c6c000000000000000000000000000000600082015250565b60006142f76011836134e1565b9150614302826142c1565b602082019050919050565b60006020820190508181036000830152614326816142ea565b9050919050565b7f4e487b7100000000000000000000000000000000000000000000000000000000600052601160045260246000fd5b600061436782613588565b915061437283613588565b9250817fffffffffffffffffffffffffffffffffffffffffffffffffffffffffffffffff04831182151516156143ab576143aa61432d565b5b828202905092915050565b7f4e487b7100000000000000000000000000000000000000000000000000000000600052601260045260246000fd5b60006143f082613588565b91506143fb83613588565b92508261440b5761440a6143b6565b5b828204905092915050565b600061442182613588565b915061442c83613588565b92508282039050818111156144445761444361432d565b5b92915050565b7f4465706f7369742061667465722066656573206973207a65726f000000000000600082015250565b6000614480601a836134e1565b915061448b8261444a565b602082019050919050565b600060208201905081810360008301526144af81614473565b9050919050565b60006144c182613588565b91507fffffffffffffffffffffffffffffffffffffffffffffffffffffffffffffffff82036144f3576144f261432d565b5b600182019050919050565b600061450982613588565b915061451483613588565b925082820190508082111561452c5761452b61432d565b5b92915050565b600060c08201905061454760008301896137bb565b61455460208301886134ac565b61456160408301876137d7565b61456e60608301866136b3565b61457b60808301856136b3565b61458860a08301846136b3565b979650505050505050565b60006060820190506145a8600083018661361d565b6145b5602083018561361d565b6145c260408301846136b3565b949350505050565b7f496e76616c6964207061796f7574206d756c7469706c69657200000000000000600082015250565b60006146006019836134e1565b915061460b826145ca565b602082019050919050565b6000602082019050818103600083015261462f816145f3565b9050919050565b7f4d696e206475726174696f6e206f766572206d61780000000000000000000000600082015250565b600061466c6015836134e1565b915061467782614636565b602082019050919050565b6000602082019050818103600083015261469b8161465f565b9050919050565b7f496e76616c696420666565206672616374696f6e000000000000000000000000600082015250565b60006146d86014836134e1565b91506146e3826146a2565b602082019050919050565b60006020820190508181036000830152614707816146cb565b9050919050565b600060c08201905061472360008301896136b3565b61473060208301886137bb565b61473d60408301876137bb565b61474a60608301866137bb565b61475760808301856137bb565b61476460a08301846137bb565b979650505050505050565b600081905092915050565b6000614785826134d6565b61478f818561476f565b935061479f8185602086016134f2565b80840191505092915050565b60006147b7828561477a565b91506147c3828461477a565b91508190509392505050565b7f5061757361626c653a2070617573656400000000000000000000000000000000600082015250565b60006148056010836134e1565b9150614810826147cf565b602082019050919050565b60006020820190508181036000830152614834816147f8565b9050919050565b600069ffffffffffffffffffff82169050919050565b61485a8161483b565b811461486557600080fd5b50565b60008151905061487781614851565b92915050565b6000819050919050565b6148908161487d565b811461489b57600080fd5b50565b6000815190506148ad81614887565b92915050565b6000815190506148c281613592565b92915050565b600080600080600060a086880312156148e4576148e3613411565b5b60006148f288828901614868565b95505060206149038882890161489e565b9450506040614914888289016148b3565b9350506060614925888289016148b3565b925050608061493688828901614868565b9150509295509295909350565b7f507269636520746f6f206f6c6400000000000000000000000000000000000000600082015250565b6000614979600d836134e1565b915061498482614943565b602082019050919050565b600060208201905081810360008301526149a88161496c565b9050919050565b7f4552433732313a207472616e736665722066726f6d20696e636f72726563742060008201527f6f776e6572000000000000000000000000000000000000000000000000000000602082015250565b6000614a0b6025836134e1565b9150614a16826149af565b604082019050919050565b60006020820190508181036000830152614a3a816149fe565b9050919050565b7f4552433732313a207472616e7366657220746f20746865207a65726f2061646460008201527f7265737300000000000000000000000000000000000000000000000000000000602082015250565b6000614a9d6024836134e1565b9150614aa882614a41565b604082019050919050565b60006020820190508181036000830152614acc81614a90565b9050919050565b7f5061757361626c653a206e6f7420706175736564000000000000000000000000600082015250565b6000614b096014836134e1565b9150614b1482614ad3565b602082019050919050565b60006020820190508181036000830152614b3881614afc565b9050919050565b7f4552433732313a206d696e7420746f20746865207a65726f2061646472657373600082015250565b6000614b756020836134e1565b9150614b8082614b3f565b602082019050919050565b60006020820190508181036000830152614ba481614b68565b9050919050565b7f4552433732313a20746f6b656e20616c7265616479206d696e74656400000000600082015250565b6000614be1601c836134e1565b9150614bec82614bab565b602082019050919050565b60006020820190508181036000830152614c1081614bd4565b9050919050565b7f4552433732313a20617070726f766520746f2063616c6c657200000000000000600082015250565b6000614c4d6019836134e1565b9150614c5882614c17565b602082019050919050565b60006020820190508181036000830152614c7c81614c40565b9050919050565b7f4552433732313a207472616e7366657220746f206e6f6e20455243373231526560008201527f63656976657220696d706c656d656e7465720000000000000000000000000000602082015250565b6000614cdf6032836134e1565b9150614cea82614c83565b604082019050919050565b60006020820190508181036000830152614d0e81614cd2565b9050919050565b600081519050919050565b600082825260208201905092915050565b6000614d3c82614d15565b614d468185614d20565b9350614d568185602086016134f2565b614d5f8161351c565b840191505092915050565b6000608082019050614d7f600083018761361d565b614d8c602083018661361d565b614d9960408301856136b3565b8181036060830152614dab8184614d31565b905095945050505050565b600081519050614dc581613447565b92915050565b600060208284031215614de157614de0613411565b5b6000614def84828501614db6565b9150509291505056fea2646970667358221220684579702c7d8d53fac38bc6e6b2a39cb451be678739e5de1b828653277da99664736f6c63430008100033",
  "linkReferences": {},
  "deployedLinkReferences": {}
}