{
  "_format": "hh-sol-artifact-1",
  "contractName": "Market",
  "sourceName": "contracts/Market/Market.sol",
  "abi": [
    {
      "inputs": [
        {
          "internalType": "contract LiquidityPool",
          "name": "liquidityPool_",
          "type": "address"
        },
        {
          "internalType": "contract IERC20",
          "name": "asset_",
          "type": "address"
        },
        {
          "internalType": "address",
          "name": "initialOwner",
          "type": "address"
        }
      ],
      "stateMutability": "nonpayable",
      "type": "constructor"
    },
    {
      "anonymous": false,
      "inputs": [
        {
          "indexed": true,
          "internalType": "address",
          "name": "owner",
          "type": "address"
        },
        {
          "indexed": true,
          "internalType": "address",
          "name": "approved",
          "type": "address"
        },
        {
          "indexed": true,
          "internalType": "uint256",
          "name": "tokenId",
          "type": "uint256"
        }
      ],
      "name": "Approval",
      "type": "event"
    },
    {
      "anonymous": false,
      "inputs": [
        {
          "indexed": true,
          "internalType": "address",
          "name": "owner",
          "type": "address"
        },
        {
          "indexed": true,
          "internalType": "address",
          "name": "operator",
          "type": "address"
        },
        {
          "indexed": false,
          "internalType": "bool",
          "name": "approved",
          "type": "bool"
        }
      ],
      "name": "ApprovalForAll",
      "type": "event"
    },
    {
      "anonymous": false,
      "inputs": [
        {
          "indexed": true,
          "internalType": "uint256",
          "name": "id",
          "type": "uint256"
        },
        {
          "indexed": false,
          "internalType": "int128",
          "name": "closePrice",
          "type": "int128"
        },
        {
          "indexed": false,
          "internalType": "address",
          "name": "owner",
          "type": "address"
        }
      ],
      "name": "CloseOption",
      "type": "event"
    },
    {
      "anonymous": false,
      "inputs": [
        {
          "indexed": true,
          "internalType": "uint256",
          "name": "id",
          "type": "uint256"
        },
        {
          "indexed": true,
          "internalType": "address",
          "name": "aggregator",
          "type": "address"
        },
        {
          "indexed": false,
          "internalType": "uint40",
          "name": "expiry",
          "type": "uint40"
        },
        {
          "indexed": false,
          "internalType": "bool",
          "name": "isCall",
          "type": "bool"
        },
        {
          "indexed": false,
          "internalType": "int128",
          "name": "openPrice",
          "type": "int128"
        },
        {
          "indexed": false,
          "internalType": "uint256",
          "name": "deposit",
          "type": "uint256"
        },
        {
          "indexed": false,
          "internalType": "uint256",
          "name": "fee",
          "type": "uint256"
        },
        {
          "indexed": false,
          "internalType": "uint256",
          "name": "payout",
          "type": "uint256"
        }
      ],
      "name": "OpenOption",
      "type": "event"
    },
    {
      "anonymous": false,
      "inputs": [
        {
          "indexed": true,
          "internalType": "address",
          "name": "previousOwner",
          "type": "address"
        },
        {
          "indexed": true,
          "internalType": "address",
          "name": "newOwner",
          "type": "address"
        }
      ],
      "name": "OwnershipTransferStarted",
      "type": "event"
    },
    {
      "anonymous": false,
      "inputs": [
        {
          "indexed": true,
          "internalType": "address",
          "name": "previousOwner",
          "type": "address"
        },
        {
          "indexed": true,
          "internalType": "address",
          "name": "newOwner",
          "type": "address"
        }
      ],
      "name": "OwnershipTransferred",
      "type": "event"
    },
    {
      "anonymous": false,
      "inputs": [
        {
          "indexed": false,
          "internalType": "address",
          "name": "account",
          "type": "address"
        }
      ],
      "name": "Paused",
      "type": "event"
    },
    {
      "anonymous": false,
      "inputs": [
        {
          "indexed": true,
          "internalType": "address",
          "name": "aggregator",
          "type": "address"
        },
        {
          "indexed": false,
          "internalType": "uint256",
          "name": "minimumDeposit",
          "type": "uint256"
        },
        {
          "indexed": false,
          "internalType": "uint40",
          "name": "payoutMultiplier",
          "type": "uint40"
        },
        {
          "indexed": false,
          "internalType": "uint40",
          "name": "minimumDuration",
          "type": "uint40"
        },
        {
          "indexed": false,
          "internalType": "uint40",
          "name": "maximumDuration",
          "type": "uint40"
        },
        {
          "indexed": false,
          "internalType": "uint40",
          "name": "priceExpiryThreshold",
          "type": "uint40"
        },
        {
          "indexed": false,
          "internalType": "uint40",
          "name": "feeFraction",
          "type": "uint40"
        },
        {
          "indexed": true,
          "internalType": "bool",
          "name": "enabled",
          "type": "bool"
        }
      ],
      "name": "SetAggregatorConfig",
      "type": "event"
    },
    {
      "anonymous": false,
      "inputs": [
        {
          "indexed": false,
          "internalType": "address",
          "name": "feeReceiver",
          "type": "address"
        }
      ],
      "name": "SetFeeReceiver",
      "type": "event"
    },
    {
      "anonymous": false,
      "inputs": [
        {
          "indexed": false,
          "internalType": "address",
          "name": "signer",
          "type": "address"
        }
      ],
      "name": "SetSigner",
      "type": "event"
    },
    {
      "anonymous": false,
      "inputs": [
        {
          "indexed": true,
          "internalType": "address",
          "name": "from",
          "type": "address"
        },
        {
          "indexed": true,
          "internalType": "address",
          "name": "to",
          "type": "address"
        },
        {
          "indexed": true,
          "internalType": "uint256",
          "name": "tokenId",
          "type": "uint256"
        }
      ],
      "name": "Transfer",
      "type": "event"
    },
    {
      "anonymous": false,
      "inputs": [
        {
          "indexed": false,
          "internalType": "address",
          "name": "account",
          "type": "address"
        }
      ],
      "name": "Unpaused",
      "type": "event"
    },
    {
      "inputs": [],
      "name": "PRECISION",
      "outputs": [
        {
          "internalType": "uint256",
          "name": "",
          "type": "uint256"
        }
      ],
      "stateMutability": "view",
      "type": "function"
    },
    {
      "inputs": [],
      "name": "acceptOwnership",
      "outputs": [],
      "stateMutability": "nonpayable",
      "type": "function"
    },
    {
      "inputs": [
        {
          "internalType": "address",
          "name": "",
          "type": "address"
        }
      ],
      "name": "aggregatorConfig",
      "outputs": [
        {
          "internalType": "uint256",
          "name": "minimumDeposit",
          "type": "uint256"
        },
        {
          "internalType": "uint40",
          "name": "payoutMultiplier",
          "type": "uint40"
        },
        {
          "internalType": "uint40",
          "name": "minimumDuration",
          "type": "uint40"
        },
        {
          "internalType": "uint40",
          "name": "maximumDuration",
          "type": "uint40"
        },
        {
          "internalType": "uint40",
          "name": "priceExpiryThreshold",
          "type": "uint40"
        },
        {
          "internalType": "uint40",
          "name": "feeFraction",
          "type": "uint40"
        },
        {
          "internalType": "bool",
          "name": "enabled",
          "type": "bool"
        }
      ],
      "stateMutability": "view",
      "type": "function"
    },
    {
      "inputs": [
        {
          "internalType": "address",
          "name": "to",
          "type": "address"
        },
        {
          "internalType": "uint256",
          "name": "tokenId",
          "type": "uint256"
        }
      ],
      "name": "approve",
      "outputs": [],
      "stateMutability": "nonpayable",
      "type": "function"
    },
    {
      "inputs": [],
      "name": "asset",
      "outputs": [
        {
          "internalType": "contract IERC20",
          "name": "",
          "type": "address"
        }
      ],
      "stateMutability": "view",
      "type": "function"
    },
    {
      "inputs": [
        {
          "internalType": "address",
          "name": "owner",
          "type": "address"
        }
      ],
      "name": "balanceOf",
      "outputs": [
        {
          "internalType": "uint256",
          "name": "",
          "type": "uint256"
        }
      ],
      "stateMutability": "view",
      "type": "function"
    },
    {
      "inputs": [
        {
          "internalType": "uint256",
          "name": "tokenId",
          "type": "uint256"
        }
      ],
      "name": "close",
      "outputs": [],
      "stateMutability": "nonpayable",
      "type": "function"
    },
    {
      "inputs": [],
      "name": "feeReceiver",
      "outputs": [
        {
          "internalType": "address",
          "name": "",
          "type": "address"
        }
      ],
      "stateMutability": "view",
      "type": "function"
    },
    {
      "inputs": [
        {
          "internalType": "uint256",
          "name": "tokenId",
          "type": "uint256"
        }
      ],
      "name": "getApproved",
      "outputs": [
        {
          "internalType": "address",
          "name": "",
          "type": "address"
        }
      ],
      "stateMutability": "view",
      "type": "function"
    },
    {
      "inputs": [
        {
          "internalType": "address",
          "name": "owner",
          "type": "address"
        },
        {
          "internalType": "address",
          "name": "operator",
          "type": "address"
        }
      ],
      "name": "isApprovedForAll",
      "outputs": [
        {
          "internalType": "bool",
          "name": "",
          "type": "bool"
        }
      ],
      "stateMutability": "view",
      "type": "function"
    },
    {
      "inputs": [],
      "name": "liquidityPool",
      "outputs": [
        {
          "internalType": "contract LiquidityPool",
          "name": "",
          "type": "address"
        }
      ],
      "stateMutability": "view",
      "type": "function"
    },
    {
      "inputs": [],
      "name": "name",
      "outputs": [
        {
          "internalType": "string",
          "name": "",
          "type": "string"
        }
      ],
      "stateMutability": "view",
      "type": "function"
    },
    {
      "inputs": [
        {
          "internalType": "address",
          "name": "aggregator",
          "type": "address"
        },
        {
          "internalType": "uint40",
          "name": "duration",
          "type": "uint40"
        },
        {
          "internalType": "bool",
          "name": "isCall",
          "type": "bool"
        },
        {
          "internalType": "uint256",
          "name": "deposit",
          "type": "uint256"
        },
        {
          "internalType": "address",
          "name": "receiver",
          "type": "address"
        }
      ],
      "name": "open",
      "outputs": [],
      "stateMutability": "nonpayable",
      "type": "function"
    },
    {
      "inputs": [
        {
          "internalType": "uint256",
          "name": "",
          "type": "uint256"
        }
      ],
      "name": "options",
      "outputs": [
        {
          "internalType": "address",
          "name": "aggregator",
          "type": "address"
        },
        {
          "internalType": "uint40",
          "name": "openTime",
          "type": "uint40"
        },
        {
          "internalType": "uint40",
          "name": "expiry",
          "type": "uint40"
        },
        {
          "internalType": "bool",
          "name": "isCall",
          "type": "bool"
        },
        {
          "internalType": "int128",
          "name": "openPrice",
          "type": "int128"
        },
        {
          "internalType": "int128",
          "name": "closePrice",
          "type": "int128"
        },
        {
          "internalType": "uint256",
          "name": "deposit",
          "type": "uint256"
        },
        {
          "internalType": "uint256",
          "name": "payout",
          "type": "uint256"
        }
      ],
      "stateMutability": "view",
      "type": "function"
    },
    {
      "inputs": [],
      "name": "owner",
      "outputs": [
        {
          "internalType": "address",
          "name": "",
          "type": "address"
        }
      ],
      "stateMutability": "view",
      "type": "function"
    },
    {
      "inputs": [
        {
          "internalType": "uint256",
          "name": "tokenId",
          "type": "uint256"
        }
      ],
      "name": "ownerOf",
      "outputs": [
        {
          "internalType": "address",
          "name": "",
          "type": "address"
        }
      ],
      "stateMutability": "view",
      "type": "function"
    },
    {
      "inputs": [],
      "name": "pause",
      "outputs": [],
      "stateMutability": "nonpayable",
      "type": "function"
    },
    {
      "inputs": [],
      "name": "paused",
      "outputs": [
        {
          "internalType": "bool",
          "name": "",
          "type": "bool"
        }
      ],
      "stateMutability": "view",
      "type": "function"
    },
    {
      "inputs": [],
      "name": "pendingOwner",
      "outputs": [
        {
          "internalType": "address",
          "name": "",
          "type": "address"
        }
      ],
      "stateMutability": "view",
      "type": "function"
    },
    {
      "inputs": [],
      "name": "renounceOwnership",
      "outputs": [],
      "stateMutability": "nonpayable",
      "type": "function"
    },
    {
      "inputs": [],
      "name": "reservedAmount",
      "outputs": [
        {
          "internalType": "uint256",
          "name": "",
          "type": "uint256"
        }
      ],
      "stateMutability": "view",
      "type": "function"
    },
    {
      "inputs": [
        {
          "internalType": "address",
          "name": "from",
          "type": "address"
        },
        {
          "internalType": "address",
          "name": "to",
          "type": "address"
        },
        {
          "internalType": "uint256",
          "name": "tokenId",
          "type": "uint256"
        }
      ],
      "name": "safeTransferFrom",
      "outputs": [],
      "stateMutability": "nonpayable",
      "type": "function"
    },
    {
      "inputs": [
        {
          "internalType": "address",
          "name": "from",
          "type": "address"
        },
        {
          "internalType": "address",
          "name": "to",
          "type": "address"
        },
        {
          "internalType": "uint256",
          "name": "tokenId",
          "type": "uint256"
        },
        {
          "internalType": "bytes",
          "name": "data",
          "type": "bytes"
        }
      ],
      "name": "safeTransferFrom",
      "outputs": [],
      "stateMutability": "nonpayable",
      "type": "function"
    },
    {
      "inputs": [
        {
          "internalType": "address",
          "name": "aggregator",
          "type": "address"
        },
        {
          "internalType": "uint256",
          "name": "minimumDeposit",
          "type": "uint256"
        },
        {
          "internalType": "uint40",
          "name": "payoutMultiplier",
          "type": "uint40"
        },
        {
          "internalType": "uint40",
          "name": "minimumDuration",
          "type": "uint40"
        },
        {
          "internalType": "uint40",
          "name": "maximumDuration",
          "type": "uint40"
        },
        {
          "internalType": "uint40",
          "name": "priceExpiryThreshold",
          "type": "uint40"
        },
        {
          "internalType": "uint40",
          "name": "feeFraction",
          "type": "uint40"
        },
        {
          "internalType": "bool",
          "name": "enabled",
          "type": "bool"
        }
      ],
      "name": "setAggregatorConfig",
      "outputs": [],
      "stateMutability": "nonpayable",
      "type": "function"
    },
    {
      "inputs": [
        {
          "internalType": "address",
          "name": "operator",
          "type": "address"
        },
        {
          "internalType": "bool",
          "name": "approved",
          "type": "bool"
        }
      ],
      "name": "setApprovalForAll",
      "outputs": [],
      "stateMutability": "nonpayable",
      "type": "function"
    },
    {
      "inputs": [
        {
          "internalType": "address",
          "name": "feeReceiver_",
          "type": "address"
        }
      ],
      "name": "setFeeReceiver",
      "outputs": [],
      "stateMutability": "nonpayable",
      "type": "function"
    },
    {
      "inputs": [
        {
          "internalType": "address",
          "name": "signer_",
          "type": "address"
        }
      ],
      "name": "setSigner",
      "outputs": [],
      "stateMutability": "nonpayable",
      "type": "function"
    },
    {
      "inputs": [],
      "name": "signer",
      "outputs": [
        {
          "internalType": "address",
          "name": "",
          "type": "address"
        }
      ],
      "stateMutability": "view",
      "type": "function"
    },
    {
      "inputs": [
        {
          "internalType": "bytes4",
          "name": "interfaceId",
          "type": "bytes4"
        }
      ],
      "name": "supportsInterface",
      "outputs": [
        {
          "internalType": "bool",
          "name": "",
          "type": "bool"
        }
      ],
      "stateMutability": "view",
      "type": "function"
    },
    {
      "inputs": [],
      "name": "symbol",
      "outputs": [
        {
          "internalType": "string",
          "name": "",
          "type": "string"
        }
      ],
      "stateMutability": "view",
      "type": "function"
    },
    {
      "inputs": [
        {
          "internalType": "uint256",
          "name": "tokenId",
          "type": "uint256"
        }
      ],
      "name": "tokenURI",
      "outputs": [
        {
          "internalType": "string",
          "name": "",
          "type": "string"
        }
      ],
      "stateMutability": "view",
      "type": "function"
    },
    {
      "inputs": [],
      "name": "totalSupply",
      "outputs": [
        {
          "internalType": "uint256",
          "name": "",
          "type": "uint256"
        }
      ],
      "stateMutability": "view",
      "type": "function"
    },
    {
      "inputs": [
        {
          "internalType": "address",
          "name": "from",
          "type": "address"
        },
        {
          "internalType": "address",
          "name": "to",
          "type": "address"
        },
        {
          "internalType": "uint256",
          "name": "tokenId",
          "type": "uint256"
        }
      ],
      "name": "transferFrom",
      "outputs": [],
      "stateMutability": "nonpayable",
      "type": "function"
    },
    {
      "inputs": [
        {
          "internalType": "address",
          "name": "newOwner",
          "type": "address"
        }
      ],
      "name": "transferOwnership",
      "outputs": [],
      "stateMutability": "nonpayable",
      "type": "function"
    },
    {
      "inputs": [],
      "name": "unpause",
      "outputs": [],
      "stateMutability": "nonpayable",
      "type": "function"
    }
  ],
  "bytecode": "0x60c06040523480156200001157600080fd5b50604051620031783803806200317883398101604081905262000034916200018d565b806040518060400160405280601481526020017f436f72616c2042696e617279204f7074696f6e7300000000000000000000000081525060405180604001604052806004815260200163432d424f60e01b815250816000908162000099919062000286565b506001620000a8828262000286565b505050620000c5620000bf620000f760201b60201c565b620000fb565b620000d081620000fb565b50506008805460ff60a01b191690556001600160a01b039182166080521660a05262000352565b3390565b600780546001600160a01b0319169055620001228162000125602090811b62001ab117901c565b50565b600680546001600160a01b038381166001600160a01b0319831681179093556040519116919082907f8be0079c531659141344cd1fd0a4f28419497f9722a3daafe3b4186f6b6457e090600090a35050565b6001600160a01b03811681146200012257600080fd5b600080600060608486031215620001a357600080fd5b8351620001b08162000177565b6020850151909350620001c38162000177565b6040850151909250620001d68162000177565b809150509250925092565b634e487b7160e01b600052604160045260246000fd5b600181811c908216806200020c57607f821691505b6020821081036200022d57634e487b7160e01b600052602260045260246000fd5b50919050565b601f8211156200028157600081815260208120601f850160051c810160208610156200025c5750805b601f850160051c820191505b818110156200027d5782815560010162000268565b5050505b505050565b81516001600160401b03811115620002a257620002a2620001e1565b620002ba81620002b38454620001f7565b8462000233565b602080601f831160018114620002f25760008415620002d95750858301515b600019600386901b1c1916600185901b1785556200027d565b600085815260208120601f198616915b82811015620003235788860151825594840194600190910190840162000302565b5085821015620003425787850151600019600388901b60f8161c191681555b5050505050600190811b01905550565b60805160a051612dcf620003a9600039600081816102e801528181610a4401528181610ad50152818161130301526113bf01526000818161041b01528181610b0201528181611390015261227e0152612dcf6000f3fe608060405234801561001057600080fd5b50600436106102115760003560e01c8063715018a611610125578063b3f00674116100ad578063e30c39781161007c578063e30c3978146105b8578063e985e9c5146105c9578063efdcd974146105dc578063f2fde38b146105ef578063f92c45b71461060257600080fd5b8063b3f006741461056c578063b88d4fde1461057f578063c5bfc0af14610592578063c87b56dd146105a557600080fd5b80638fc4254d116100f45780638fc4254d1461048c57806395d89b41146105355780639eb4d2bf1461053d578063a22cb46514610550578063aaf5eb681461056357600080fd5b8063715018a61461046357806379ba50971461046b5780638456cb59146104735780638da5cb5b1461047b57600080fd5b806338d52e0f116101a85780635c975abb116101775780635c975abb146103f15780636352211e14610403578063665a11ca146104165780636c19e7831461043d57806370a082311461045057600080fd5b806338d52e0f146102e35780633f4ba83a1461030a578063409e22051461031257806342842e0e146103de57600080fd5b80630aebeb4e116101e45780630aebeb4e1461029357806318160ddd146102a6578063238ac933146102bd57806323b872dd146102d057600080fd5b806301ffc9a71461021657806306fdde031461023e578063081812fc14610253578063095ea7b31461027e575b600080fd5b6102296102243660046126f0565b61060b565b60405190151581526020015b60405180910390f35b61024661065d565b604051610235919061275d565b610266610261366004612770565b6106ef565b6040516001600160a01b039091168152602001610235565b61029161028c3660046127a5565b610716565b005b6102916102a1366004612770565b610830565b6102af600b5481565b604051908152602001610235565b600854610266906001600160a01b031681565b6102916102de3660046127cf565b610bec565b6102667f000000000000000000000000000000000000000000000000000000000000000081565b610291610c1d565b610388610320366004612770565b600c6020526000908152604090208054600182015460028301546003909301546001600160a01b03831693600160a01b840464ffffffffff90811694600160c81b810490911693600160f01b90910460ff1692600f82810b93600160801b909304900b919088565b604080516001600160a01b0399909916895264ffffffffff97881660208a015295909616948701949094529115156060860152600f90810b60808601520b60a084015260c083015260e082015261010001610235565b6102916103ec3660046127cf565b610c37565b600854600160a01b900460ff16610229565b610266610411366004612770565b610c52565b6102667f000000000000000000000000000000000000000000000000000000000000000081565b61029161044b36600461280b565b610cb2565b6102af61045e36600461280b565b610d0f565b610291610d95565b610291610da7565b610291610e21565b6006546001600160a01b0316610266565b6104f061049a36600461280b565b6009602052600090815260409020805460019091015464ffffffffff80821691650100000000008104821691600160501b8204811691600160781b8104821691600160a01b82041690600160c81b900460ff1687565b6040805197885264ffffffffff96871660208901529486169487019490945291841660608601528316608085015290911660a0830152151560c082015260e001610235565b610246610e39565b61029161054b366004612849565b610e48565b61029161055e3660046128a9565b611444565b6102af61271081565b600a54610266906001600160a01b031681565b61029161058d3660046128f6565b611453565b6102916105a03660046129d2565b61148b565b6102466105b3366004612770565b611948565b6007546001600160a01b0316610266565b6102296105d7366004612a66565b6119bc565b6102916105ea36600461280b565b6119ea565b6102916105fd36600461280b565b611a40565b6102af600d5481565b60006001600160e01b031982166380ac58cd60e01b148061063c57506001600160e01b03198216635b5e139f60e01b145b8061065757506301ffc9a760e01b6001600160e01b03198316145b92915050565b60606000805461066c90612a99565b80601f016020809104026020016040519081016040528092919081815260200182805461069890612a99565b80156106e55780601f106106ba576101008083540402835291602001916106e5565b820191906000526020600020905b8154815290600101906020018083116106c857829003601f168201915b5050505050905090565b60006106fa82611b03565b506000908152600460205260409020546001600160a01b031690565b600061072182610c52565b9050806001600160a01b0316836001600160a01b0316036107935760405162461bcd60e51b815260206004820152602160248201527f4552433732313a20617070726f76616c20746f2063757272656e74206f776e656044820152603960f91b60648201526084015b60405180910390fd5b336001600160a01b03821614806107af57506107af81336119bc565b6108215760405162461bcd60e51b815260206004820152603d60248201527f4552433732313a20617070726f76652063616c6c6572206973206e6f7420746f60448201527f6b656e206f776e6572206f7220617070726f76656420666f7220616c6c000000606482015260840161078a565b61082b8383611b62565b505050565b610838611bd0565b6000818152600c602090815260409182902082516101008101845281546001600160a01b0381168252600160a01b810464ffffffffff90811694830194909452600160c81b8104909316938101849052600160f01b90920460ff16151560608301526001810154600f81810b6080850152600160801b909104900b60a0830152600281015460c08301526003015460e0820152904210156109145760405162461bcd60e51b815260206004820152601660248201527513dc1d1a5bdb881a185cc81b9bdd08195e1c1a5c995960521b604482015260640161078a565b6000828152600260205260409020546001600160a01b031661096d5760405162461bcd60e51b815260206004820152601260248201527127b83a34b7b71034b9903737ba1037b832b760711b604482015260640161078a565b600061097883610c52565b905061098383611c1d565b81516001600160a01b03811660009081526009602052604081206001015490916109ba91600160781b900464ffffffffff16611cc0565b6000858152600c6020526040812060010180546001600160801b03808516600160801b029116179055606085015191925090610a02578360800151600f0b82600f0b12610a10565b8360800151600f0b82600f0b135b90508015610ab95760e084015160405163a9059cbb60e01b81526001600160a01b03858116600483015260248201929092527f00000000000000000000000000000000000000000000000000000000000000009091169063a9059cbb906044016020604051808303816000875af1158015610a8f573d6000803e3d6000fd5b505050506040513d601f19601f82011682018060405250810190610ab39190612ad3565b50610b83565b60e084015160405163a9059cbb60e01b81526001600160a01b037f0000000000000000000000000000000000000000000000000000000000000000169163a9059cbb91610b3e917f0000000000000000000000000000000000000000000000000000000000000000916004016001600160a01b03929092168252602082015260400190565b6020604051808303816000875af1158015610b5d573d6000803e3d6000fd5b505050506040513d601f19601f82011682018060405250810190610b819190612ad3565b505b8360e00151600d6000828254610b999190612b06565b909155505060408051600f84900b81526001600160a01b038516602082015286917f2be70e0a01ffe13c3d78f18e76f110043eb8de7e0f9ef8c321a2455b785fcb04910160405180910390a25050505050565b610bf63382611d8d565b610c125760405162461bcd60e51b815260040161078a90612b19565b61082b838383611dec565b610c25611f5d565b610c2d611fad565b610c35612007565b565b61082b83838360405180602001604052806000815250611453565b6000818152600260205260408120546001600160a01b0316806106575760405162461bcd60e51b8152602060048201526018602482015277115490cdcc8c4e881a5b9d985b1a59081d1bdad95b88125160421b604482015260640161078a565b610cba611fad565b600880546001600160a01b0319166001600160a01b0383169081179091556040519081527fbb10aee7ef5a307b8097c6a7f2892b909ff1736fd24a6a5260640c185f7153b6906020015b60405180910390a150565b60006001600160a01b038216610d795760405162461bcd60e51b815260206004820152602960248201527f4552433732313a2061646472657373207a65726f206973206e6f7420612076616044820152683634b21037bbb732b960b91b606482015260840161078a565b506001600160a01b031660009081526003602052604090205490565b610d9d611fad565b610c35600061205c565b60075433906001600160a01b03168114610e155760405162461bcd60e51b815260206004820152602960248201527f4f776e61626c6532537465703a2063616c6c6572206973206e6f7420746865206044820152683732bb9037bbb732b960b91b606482015260840161078a565b610e1e8161205c565b50565b610e29611bd0565b610e31611fad565b610c35612075565b60606001805461066c90612a99565b610e50611bd0565b6001600160a01b038516600090815260096020908152604091829020825160e0810184528154815260019091015464ffffffffff80821693830193909352650100000000008104831693820193909352600160501b830482166060820152600160781b830482166080820152600160a01b830490911660a0820152600160c81b90910460ff16151560c08201819052610f245760405162461bcd60e51b81526020600482015260166024820152751059d9dc9959d85d1bdc881b9bdd08195b98589b195960521b604482015260640161078a565b806040015164ffffffffff168564ffffffffff1610158015610f585750806060015164ffffffffff168564ffffffffff1611155b610f9d5760405162461bcd60e51b81526020600482015260166024820152754475726174696f6e206f7574206f6620626f756e647360501b604482015260640161078a565b8051831015610fe25760405162461bcd60e51b815260206004820152601160248201527011195c1bdcda5d081d1bdbc81cdb585b1b607a1b604482015260640161078a565b60006127108260a0015164ffffffffff1685610ffe9190612b66565b6110089190612b85565b905060006110168286612b06565b9050600081116110685760405162461bcd60e51b815260206004820152601a60248201527f4465706f7369742061667465722066656573206973207a65726f000000000000604482015260640161078a565b6000612710846020015164ffffffffff16836110849190612b66565b61108e9190612b85565b90506000600b600081546110a190612ba7565b918290555090506110b286826120b8565b60006110be8a42612bc0565b905060006110d08c8860800151611cc0565b90506040518061010001604052808d6001600160a01b031681526020014264ffffffffff1681526020018364ffffffffff1681526020018b1515815260200182600f0b81526020016000600f0b815260200186815260200185815250600c600085815260200190815260200160002060008201518160000160006101000a8154816001600160a01b0302191690836001600160a01b0316021790555060208201518160000160146101000a81548164ffffffffff021916908364ffffffffff16021790555060408201518160000160196101000a81548164ffffffffff021916908364ffffffffff160217905550606082015181600001601e6101000a81548160ff02191690831515021790555060808201518160010160006101000a8154816001600160801b030219169083600f0b6001600160801b0316021790555060a08201518160010160106101000a8154816001600160801b030219169083600f0b6001600160801b0316021790555060c0820151816002015560e082015181600301559050508b6001600160a01b0316837f6817959c00b028c4c7b84ea29497fde7b8802d392d5ff34f565bac98d61fe8b88d64ffffffffff16426112949190612be5565b6040805164ffffffffff90921682528e15156020830152600f86900b9082015260608101899052608081018a905260a0810188905260c00160405180910390a3600a546040516323b872dd60e01b81523360048201526001600160a01b039182166024820152604481018890527f0000000000000000000000000000000000000000000000000000000000000000909116906323b872dd906064016020604051808303816000875af115801561134e573d6000803e3d6000fd5b505050506040513d601f19601f820116820180604052508101906113729190612ad3565b506040516323b872dd60e01b81523360048201526001600160a01b037f000000000000000000000000000000000000000000000000000000000000000081166024830152604482018790527f000000000000000000000000000000000000000000000000000000000000000016906323b872dd906064016020604051808303816000875af1158015611408573d6000803e3d6000fd5b505050506040513d601f19601f8201168201806040525081019061142c9190612ad3565b5061143684612251565b505050505050505050505050565b61144f3383836122e5565b5050565b61145d3383611d8d565b6114795760405162461bcd60e51b815260040161078a90612b19565b611485848484846123b3565b50505050565b611493611fad565b80611521576001600160a01b038816600081815260096020908152604080832083815560010180546001600160d01b031916905580518381529182018390528101829052606081018290526080810182905260a081018290529091907f4239faf2cfbfea1c44f691a747f1a42f389acebe3dbf2c5adb01017aa61752c89060c00160405180910390a361193e565b876001600160a01b031663313ce5676040518163ffffffff1660e01b8152600401602060405180830381865afa15801561155f573d6000803e3d6000fd5b505050506040513d601f19601f820116820180604052508101906115839190612bf8565b60ff166008146115d55760405162461bcd60e51b815260206004820152601d60248201527f41676772656761746f7220646563696d616c73206d7573742062652038000000604482015260640161078a565b6127108664ffffffffff161015801561160157506115f66127106002612b66565b8664ffffffffff1611155b61164d5760405162461bcd60e51b815260206004820152601960248201527f496e76616c6964207061796f7574206d756c7469706c69657200000000000000604482015260640161078a565b8364ffffffffff168564ffffffffff1611156116a35760405162461bcd60e51b815260206004820152601560248201527409ad2dc40c8eae4c2e8d2dedc40deeccae440dac2f605b1b604482015260640161078a565b8015806116ae575060015b6116fa5760405162461bcd60e51b815260206004820152601b60248201527f4d696e206475726174696f6e2063616e6e6f74206265207a65726f0000000000604482015260640161078a565b6127108264ffffffffff16106117495760405162461bcd60e51b815260206004820152601460248201527324b73b30b634b2103332b290333930b1ba34b7b760611b604482015260640161078a565b6040518060e001604052808881526020018764ffffffffff1681526020018664ffffffffff1681526020018564ffffffffff1681526020018464ffffffffff1681526020018364ffffffffff168152602001821515815250600960008a6001600160a01b03166001600160a01b031681526020019081526020016000206000820151816000015560208201518160010160006101000a81548164ffffffffff021916908364ffffffffff16021790555060408201518160010160056101000a81548164ffffffffff021916908364ffffffffff160217905550606082015181600101600a6101000a81548164ffffffffff021916908364ffffffffff160217905550608082015181600101600f6101000a81548164ffffffffff021916908364ffffffffff16021790555060a08201518160010160146101000a81548164ffffffffff021916908364ffffffffff16021790555060c08201518160010160196101000a81548160ff021916908315150217905550905050801515886001600160a01b03167f4239faf2cfbfea1c44f691a747f1a42f389acebe3dbf2c5adb01017aa61752c88989898989896040516119359695949392919095865264ffffffffff948516602087015292841660408601529083166060850152821660808401521660a082015260c00190565b60405180910390a35b5050505050505050565b606061195382611b03565b600061196a60408051602081019091526000815290565b9050600081511161198a57604051806020016040528060008152506119b5565b80611994846123e6565b6040516020016119a5929190612c1b565b6040516020818303038152906040525b9392505050565b6001600160a01b03918216600090815260056020908152604080832093909416825291909152205460ff1690565b6119f2611fad565b600a80546001600160a01b0319166001600160a01b0383169081179091556040519081527fffb40bfdfd246e95f543d08d9713c339f1d90fa9265e39b4f562f9011d7c919f90602001610d04565b611a48611fad565b600780546001600160a01b0383166001600160a01b03199091168117909155611a796006546001600160a01b031690565b6001600160a01b03167f38d16b8cac22d99fc7c124b9cd0de2d3fa1faef420bfe791d8c362d765e2270060405160405180910390a350565b600680546001600160a01b038381166001600160a01b0319831681179093556040519116919082907f8be0079c531659141344cd1fd0a4f28419497f9722a3daafe3b4186f6b6457e090600090a35050565b6000818152600260205260409020546001600160a01b0316610e1e5760405162461bcd60e51b8152602060048201526018602482015277115490cdcc8c4e881a5b9d985b1a59081d1bdad95b88125160421b604482015260640161078a565b600081815260046020526040902080546001600160a01b0319166001600160a01b0384169081179091558190611b9782610c52565b6001600160a01b03167f8c5be1e5ebec7d5bd14f71427d1e84f3dd0314c0f7b2291e5b200ac8c7c3b92560405160405180910390a45050565b600854600160a01b900460ff1615610c355760405162461bcd60e51b815260206004820152601060248201526f14185d5cd8589b194e881c185d5cd95960821b604482015260640161078a565b6000611c2882610c52565b9050611c38816000846001612479565b611c4182610c52565b600083815260046020908152604080832080546001600160a01b03199081169091556001600160a01b0385168085526003845282852080546000190190558785526002909352818420805490911690555192935084927fddf252ad1be2c89b69c2b068fc378daa952ba7f163c4a11628f55a4df523b3ef908390a45050565b600080839050600080826001600160a01b031663feaf968c6040518163ffffffff1660e01b815260040160a060405180830381865afa158015611d07573d6000803e3d6000fd5b505050506040513d601f19601f82011682018060405250810190611d2b9190612c64565b509350509250508464ffffffffff1681611d459190612be5565b421115611d845760405162461bcd60e51b815260206004820152600d60248201526c141c9a58d9481d1bdbc81bdb19609a1b604482015260640161078a565b50949350505050565b600080611d9983610c52565b9050806001600160a01b0316846001600160a01b03161480611dc05750611dc081856119bc565b80611de45750836001600160a01b0316611dd9846106ef565b6001600160a01b0316145b949350505050565b826001600160a01b0316611dff82610c52565b6001600160a01b031614611e255760405162461bcd60e51b815260040161078a90612ca8565b6001600160a01b038216611e875760405162461bcd60e51b8152602060048201526024808201527f4552433732313a207472616e7366657220746f20746865207a65726f206164646044820152637265737360e01b606482015260840161078a565b611e948383836001612479565b826001600160a01b0316611ea782610c52565b6001600160a01b031614611ecd5760405162461bcd60e51b815260040161078a90612ca8565b600081815260046020908152604080832080546001600160a01b03199081169091556001600160a01b0387811680865260038552838620805460001901905590871680865283862080546001019055868652600290945282852080549092168417909155905184937fddf252ad1be2c89b69c2b068fc378daa952ba7f163c4a11628f55a4df523b3ef91a4505050565b600854600160a01b900460ff16610c355760405162461bcd60e51b815260206004820152601460248201527314185d5cd8589b194e881b9bdd081c185d5cd95960621b604482015260640161078a565b6006546001600160a01b03163314610c355760405162461bcd60e51b815260206004820181905260248201527f4f776e61626c653a2063616c6c6572206973206e6f7420746865206f776e6572604482015260640161078a565b61200f611f5d565b6008805460ff60a01b191690557f5db9ee0a495bf2e6ff9c91a7834c1ba4fdd244a5e8aa4e537bd38aeae4b073aa335b6040516001600160a01b03909116815260200160405180910390a1565b600780546001600160a01b0319169055610e1e81611ab1565b61207d611bd0565b6008805460ff60a01b1916600160a01b1790557f62e78cea01bee320cd4e420270b5ea74000d11b0c9f74754ebdbfc544b05a25861203f3390565b6001600160a01b03821661210e5760405162461bcd60e51b815260206004820181905260248201527f4552433732313a206d696e7420746f20746865207a65726f2061646472657373604482015260640161078a565b6000818152600260205260409020546001600160a01b0316156121735760405162461bcd60e51b815260206004820152601c60248201527f4552433732313a20746f6b656e20616c7265616479206d696e74656400000000604482015260640161078a565b612181600083836001612479565b6000818152600260205260409020546001600160a01b0316156121e65760405162461bcd60e51b815260206004820152601c60248201527f4552433732313a20746f6b656e20616c7265616479206d696e74656400000000604482015260640161078a565b6001600160a01b038216600081815260036020908152604080832080546001019055848352600290915280822080546001600160a01b0319168417905551839291907fddf252ad1be2c89b69c2b068fc378daa952ba7f163c4a11628f55a4df523b3ef908290a45050565b80600d60008282546122639190612be5565b909155505060405163f0dd71c760e01b8152600481018290527f00000000000000000000000000000000000000000000000000000000000000006001600160a01b03169063f0dd71c790602401600060405180830381600087803b1580156122ca57600080fd5b505af11580156122de573d6000803e3d6000fd5b5050505050565b816001600160a01b0316836001600160a01b0316036123465760405162461bcd60e51b815260206004820152601960248201527f4552433732313a20617070726f766520746f2063616c6c657200000000000000604482015260640161078a565b6001600160a01b03838116600081815260056020908152604080832094871680845294825291829020805460ff191686151590811790915591519182527f17307eab39ab6107e8899845ad3d59bd9653f200f220920489ca2b5937696c31910160405180910390a3505050565b6123be848484611dec565b6123ca84848484612501565b6114855760405162461bcd60e51b815260040161078a90612ced565b606060006123f383612602565b600101905060008167ffffffffffffffff811115612413576124136128e0565b6040519080825280601f01601f19166020018201604052801561243d576020820181803683370190505b5090508181016020015b600019016f181899199a1a9b1b9c1cb0b131b232b360811b600a86061a8153600a850494508461244757509392505050565b6001811115611485576001600160a01b038416156124bf576001600160a01b038416600090815260036020526040812080548392906124b9908490612b06565b90915550505b6001600160a01b03831615611485576001600160a01b038316600090815260036020526040812080548392906124f6908490612be5565b909155505050505050565b60006001600160a01b0384163b156125f757604051630a85bd0160e11b81526001600160a01b0385169063150b7a0290612545903390899088908890600401612d3f565b6020604051808303816000875af1925050508015612580575060408051601f3d908101601f1916820190925261257d91810190612d7c565b60015b6125dd573d8080156125ae576040519150601f19603f3d011682016040523d82523d6000602084013e6125b3565b606091505b5080516000036125d55760405162461bcd60e51b815260040161078a90612ced565b805181602001fd5b6001600160e01b031916630a85bd0160e11b149050611de4565b506001949350505050565b60008072184f03e93ff9f4daa797ed6e38ed64bf6a1f0160401b83106126415772184f03e93ff9f4daa797ed6e38ed64bf6a1f0160401b830492506040015b6d04ee2d6d415b85acef8100000000831061266d576d04ee2d6d415b85acef8100000000830492506020015b662386f26fc10000831061268b57662386f26fc10000830492506010015b6305f5e10083106126a3576305f5e100830492506008015b61271083106126b757612710830492506004015b606483106126c9576064830492506002015b600a83106106575760010192915050565b6001600160e01b031981168114610e1e57600080fd5b60006020828403121561270257600080fd5b81356119b5816126da565b60005b83811015612728578181015183820152602001612710565b50506000910152565b6000815180845261274981602086016020860161270d565b601f01601f19169290920160200192915050565b6020815260006119b56020830184612731565b60006020828403121561278257600080fd5b5035919050565b80356001600160a01b03811681146127a057600080fd5b919050565b600080604083850312156127b857600080fd5b6127c183612789565b946020939093013593505050565b6000806000606084860312156127e457600080fd5b6127ed84612789565b92506127fb60208501612789565b9150604084013590509250925092565b60006020828403121561281d57600080fd5b6119b582612789565b803564ffffffffff811681146127a057600080fd5b8015158114610e1e57600080fd5b600080600080600060a0868803121561286157600080fd5b61286a86612789565b945061287860208701612826565b935060408601356128888161283b565b92506060860135915061289d60808701612789565b90509295509295909350565b600080604083850312156128bc57600080fd5b6128c583612789565b915060208301356128d58161283b565b809150509250929050565b634e487b7160e01b600052604160045260246000fd5b6000806000806080858703121561290c57600080fd5b61291585612789565b935061292360208601612789565b925060408501359150606085013567ffffffffffffffff8082111561294757600080fd5b818701915087601f83011261295b57600080fd5b81358181111561296d5761296d6128e0565b604051601f8201601f19908116603f01168101908382118183101715612995576129956128e0565b816040528281528a60208487010111156129ae57600080fd5b82602086016020830137600060208483010152809550505050505092959194509250565b600080600080600080600080610100898b0312156129ef57600080fd5b6129f889612789565b975060208901359650612a0d60408a01612826565b9550612a1b60608a01612826565b9450612a2960808a01612826565b9350612a3760a08a01612826565b9250612a4560c08a01612826565b915060e0890135612a558161283b565b809150509295985092959890939650565b60008060408385031215612a7957600080fd5b612a8283612789565b9150612a9060208401612789565b90509250929050565b600181811c90821680612aad57607f821691505b602082108103612acd57634e487b7160e01b600052602260045260246000fd5b50919050565b600060208284031215612ae557600080fd5b81516119b58161283b565b634e487b7160e01b600052601160045260246000fd5b8181038181111561065757610657612af0565b6020808252602d908201527f4552433732313a2063616c6c6572206973206e6f7420746f6b656e206f776e6560408201526c1c881bdc88185c1c1c9bdd9959609a1b606082015260800190565b6000816000190483118215151615612b8057612b80612af0565b500290565b600082612ba257634e487b7160e01b600052601260045260246000fd5b500490565b600060018201612bb957612bb9612af0565b5060010190565b64ffffffffff818116838216019080821115612bde57612bde612af0565b5092915050565b8082018082111561065757610657612af0565b600060208284031215612c0a57600080fd5b815160ff811681146119b557600080fd5b60008351612c2d81846020880161270d565b835190830190612c4181836020880161270d565b01949350505050565b805169ffffffffffffffffffff811681146127a057600080fd5b600080600080600060a08688031215612c7c57600080fd5b612c8586612c4a565b945060208601519350604086015192506060860151915061289d60808701612c4a565b60208082526025908201527f4552433732313a207472616e736665722066726f6d20696e636f72726563742060408201526437bbb732b960d91b606082015260800190565b60208082526032908201527f4552433732313a207472616e7366657220746f206e6f6e20455243373231526560408201527131b2b4bb32b91034b6b83632b6b2b73a32b960711b606082015260800190565b6001600160a01b0385811682528416602082015260408101839052608060608201819052600090612d7290830184612731565b9695505050505050565b600060208284031215612d8e57600080fd5b81516119b5816126da56fea2646970667358221220e7d78fff866f3f0f80fa6dc4beb0280d07078750f47f0454eca491f7bafe10b164736f6c63430008100033",
  "linkReferences": {},
  "deployedLinkReferences": {}
}