{
  "_format": "hh-sol-artifact-1",
  "contractName": "Market",
  "sourceName": "contracts/Market/Market.sol",
  "abi": [
    {
      "inputs": [
        {
          "internalType": "address",
          "name": "liquidityPool_",
          "type": "address"
        }
      ],
      "stateMutability": "nonpayable",
      "type": "constructor"
    },
    {
      "anonymous": false,
      "inputs": [
        {
          "indexed": true,
          "internalType": "address",
          "name": "owner",
          "type": "address"
        },
        {
          "indexed": true,
          "internalType": "address",
          "name": "approved",
          "type": "address"
        },
        {
          "indexed": true,
          "internalType": "uint256",
          "name": "tokenId",
          "type": "uint256"
        }
      ],
      "name": "Approval",
      "type": "event"
    },
    {
      "anonymous": false,
      "inputs": [
        {
          "indexed": true,
          "internalType": "address",
          "name": "owner",
          "type": "address"
        },
        {
          "indexed": true,
          "internalType": "address",
          "name": "operator",
          "type": "address"
        },
        {
          "indexed": false,
          "internalType": "bool",
          "name": "approved",
          "type": "bool"
        }
      ],
      "name": "ApprovalForAll",
      "type": "event"
    },
    {
      "anonymous": false,
      "inputs": [
        {
          "indexed": true,
          "internalType": "uint256",
          "name": "id",
          "type": "uint256"
        },
        {
          "indexed": false,
          "internalType": "int128",
          "name": "closePrice",
          "type": "int128"
        },
        {
          "indexed": false,
          "internalType": "address",
          "name": "owner",
          "type": "address"
        }
      ],
      "name": "BurnOption",
      "type": "event"
    },
    {
      "anonymous": false,
      "inputs": [
        {
          "indexed": true,
          "internalType": "uint256",
          "name": "id",
          "type": "uint256"
        },
        {
          "indexed": true,
          "internalType": "address",
          "name": "aggregator",
          "type": "address"
        },
        {
          "indexed": false,
          "internalType": "uint40",
          "name": "expiry",
          "type": "uint40"
        },
        {
          "indexed": false,
          "internalType": "bool",
          "name": "isCall",
          "type": "bool"
        },
        {
          "indexed": false,
          "internalType": "int128",
          "name": "openPrice",
          "type": "int128"
        },
        {
          "indexed": false,
          "internalType": "uint256",
          "name": "deposit",
          "type": "uint256"
        },
        {
          "indexed": false,
          "internalType": "uint256",
          "name": "payout",
          "type": "uint256"
        }
      ],
      "name": "MintOption",
      "type": "event"
    },
    {
      "anonymous": false,
      "inputs": [
        {
          "indexed": false,
          "internalType": "address",
          "name": "admin",
          "type": "address"
        }
      ],
      "name": "SetAdmin",
      "type": "event"
    },
    {
      "anonymous": false,
      "inputs": [
        {
          "indexed": true,
          "internalType": "address",
          "name": "aggregator",
          "type": "address"
        },
        {
          "indexed": false,
          "internalType": "uint40",
          "name": "payoutMultiplier",
          "type": "uint40"
        },
        {
          "indexed": false,
          "internalType": "uint40",
          "name": "minimumDuration",
          "type": "uint40"
        },
        {
          "indexed": false,
          "internalType": "uint40",
          "name": "maximumDuration",
          "type": "uint40"
        },
        {
          "indexed": false,
          "internalType": "uint40",
          "name": "priceExpiryThreshold",
          "type": "uint40"
        },
        {
          "indexed": false,
          "internalType": "uint40",
          "name": "feeFraction",
          "type": "uint40"
        },
        {
          "indexed": true,
          "internalType": "bool",
          "name": "enabled",
          "type": "bool"
        }
      ],
      "name": "SetAggregatorConfig",
      "type": "event"
    },
    {
      "anonymous": false,
      "inputs": [
        {
          "indexed": false,
          "internalType": "address",
          "name": "feeReceiver",
          "type": "address"
        }
      ],
      "name": "SetFeeReceiver",
      "type": "event"
    },
    {
      "anonymous": false,
      "inputs": [
        {
          "indexed": false,
          "internalType": "address",
          "name": "signer",
          "type": "address"
        }
      ],
      "name": "SetSigner",
      "type": "event"
    },
    {
      "anonymous": false,
      "inputs": [
        {
          "indexed": true,
          "internalType": "address",
          "name": "from",
          "type": "address"
        },
        {
          "indexed": true,
          "internalType": "address",
          "name": "to",
          "type": "address"
        },
        {
          "indexed": true,
          "internalType": "uint256",
          "name": "tokenId",
          "type": "uint256"
        }
      ],
      "name": "Transfer",
      "type": "event"
    },
    {
      "inputs": [],
      "name": "PRECISION",
      "outputs": [
        {
          "internalType": "uint256",
          "name": "",
          "type": "uint256"
        }
      ],
      "stateMutability": "view",
      "type": "function"
    },
    {
      "inputs": [],
      "name": "admin",
      "outputs": [
        {
          "internalType": "address",
          "name": "",
          "type": "address"
        }
      ],
      "stateMutability": "view",
      "type": "function"
    },
    {
      "inputs": [
        {
          "internalType": "address",
          "name": "",
          "type": "address"
        }
      ],
      "name": "aggregatorConfig",
      "outputs": [
        {
          "internalType": "uint40",
          "name": "payoutMultiplier",
          "type": "uint40"
        },
        {
          "internalType": "uint40",
          "name": "minimumDuration",
          "type": "uint40"
        },
        {
          "internalType": "uint40",
          "name": "maximumDuration",
          "type": "uint40"
        },
        {
          "internalType": "uint40",
          "name": "priceExpiryThreshold",
          "type": "uint40"
        },
        {
          "internalType": "uint40",
          "name": "feeFraction",
          "type": "uint40"
        },
        {
          "internalType": "bool",
          "name": "enabled",
          "type": "bool"
        }
      ],
      "stateMutability": "view",
      "type": "function"
    },
    {
      "inputs": [
        {
          "internalType": "address",
          "name": "to",
          "type": "address"
        },
        {
          "internalType": "uint256",
          "name": "tokenId",
          "type": "uint256"
        }
      ],
      "name": "approve",
      "outputs": [],
      "stateMutability": "nonpayable",
      "type": "function"
    },
    {
      "inputs": [],
      "name": "asset",
      "outputs": [
        {
          "internalType": "contract IERC20",
          "name": "",
          "type": "address"
        }
      ],
      "stateMutability": "view",
      "type": "function"
    },
    {
      "inputs": [
        {
          "internalType": "address",
          "name": "owner",
          "type": "address"
        }
      ],
      "name": "balanceOf",
      "outputs": [
        {
          "internalType": "uint256",
          "name": "",
          "type": "uint256"
        }
      ],
      "stateMutability": "view",
      "type": "function"
    },
    {
      "inputs": [
        {
          "internalType": "uint256",
          "name": "tokenId",
          "type": "uint256"
        }
      ],
      "name": "burn",
      "outputs": [],
      "stateMutability": "nonpayable",
      "type": "function"
    },
    {
      "inputs": [],
      "name": "feeReceiver",
      "outputs": [
        {
          "internalType": "address",
          "name": "",
          "type": "address"
        }
      ],
      "stateMutability": "view",
      "type": "function"
    },
    {
      "inputs": [
        {
          "internalType": "uint256",
          "name": "tokenId",
          "type": "uint256"
        }
      ],
      "name": "getApproved",
      "outputs": [
        {
          "internalType": "address",
          "name": "",
          "type": "address"
        }
      ],
      "stateMutability": "view",
      "type": "function"
    },
    {
      "inputs": [
        {
          "internalType": "address",
          "name": "owner",
          "type": "address"
        },
        {
          "internalType": "address",
          "name": "operator",
          "type": "address"
        }
      ],
      "name": "isApprovedForAll",
      "outputs": [
        {
          "internalType": "bool",
          "name": "",
          "type": "bool"
        }
      ],
      "stateMutability": "view",
      "type": "function"
    },
    {
      "inputs": [],
      "name": "liquidityPool",
      "outputs": [
        {
          "internalType": "contract LiquidityPool",
          "name": "",
          "type": "address"
        }
      ],
      "stateMutability": "view",
      "type": "function"
    },
    {
      "inputs": [
        {
          "internalType": "address",
          "name": "aggregator",
          "type": "address"
        },
        {
          "internalType": "uint40",
          "name": "duration",
          "type": "uint40"
        },
        {
          "internalType": "bool",
          "name": "isCall",
          "type": "bool"
        },
        {
          "internalType": "uint256",
          "name": "deposit",
          "type": "uint256"
        },
        {
          "internalType": "address",
          "name": "receiver",
          "type": "address"
        }
      ],
      "name": "mint",
      "outputs": [],
      "stateMutability": "nonpayable",
      "type": "function"
    },
    {
      "inputs": [],
      "name": "name",
      "outputs": [
        {
          "internalType": "string",
          "name": "",
          "type": "string"
        }
      ],
      "stateMutability": "view",
      "type": "function"
    },
    {
      "inputs": [
        {
          "internalType": "uint256",
          "name": "",
          "type": "uint256"
        }
      ],
      "name": "options",
      "outputs": [
        {
          "internalType": "address",
          "name": "aggregator",
          "type": "address"
        },
        {
          "internalType": "uint40",
          "name": "expiry",
          "type": "uint40"
        },
        {
          "internalType": "bool",
          "name": "isCall",
          "type": "bool"
        },
        {
          "internalType": "int128",
          "name": "openPrice",
          "type": "int128"
        },
        {
          "internalType": "int128",
          "name": "closePrice",
          "type": "int128"
        },
        {
          "internalType": "uint256",
          "name": "deposit",
          "type": "uint256"
        },
        {
          "internalType": "uint256",
          "name": "payout",
          "type": "uint256"
        }
      ],
      "stateMutability": "view",
      "type": "function"
    },
    {
      "inputs": [
        {
          "internalType": "uint256",
          "name": "tokenId",
          "type": "uint256"
        }
      ],
      "name": "ownerOf",
      "outputs": [
        {
          "internalType": "address",
          "name": "",
          "type": "address"
        }
      ],
      "stateMutability": "view",
      "type": "function"
    },
    {
      "inputs": [
        {
          "internalType": "address",
          "name": "from",
          "type": "address"
        },
        {
          "internalType": "address",
          "name": "to",
          "type": "address"
        },
        {
          "internalType": "uint256",
          "name": "tokenId",
          "type": "uint256"
        }
      ],
      "name": "safeTransferFrom",
      "outputs": [],
      "stateMutability": "nonpayable",
      "type": "function"
    },
    {
      "inputs": [
        {
          "internalType": "address",
          "name": "from",
          "type": "address"
        },
        {
          "internalType": "address",
          "name": "to",
          "type": "address"
        },
        {
          "internalType": "uint256",
          "name": "tokenId",
          "type": "uint256"
        },
        {
          "internalType": "bytes",
          "name": "data",
          "type": "bytes"
        }
      ],
      "name": "safeTransferFrom",
      "outputs": [],
      "stateMutability": "nonpayable",
      "type": "function"
    },
    {
      "inputs": [
        {
          "internalType": "address",
          "name": "aggregator",
          "type": "address"
        },
        {
          "internalType": "uint40",
          "name": "payoutMultiplier",
          "type": "uint40"
        },
        {
          "internalType": "uint40",
          "name": "minimumDuration",
          "type": "uint40"
        },
        {
          "internalType": "uint40",
          "name": "maximumDuration",
          "type": "uint40"
        },
        {
          "internalType": "uint40",
          "name": "priceExpiryThreshold",
          "type": "uint40"
        },
        {
          "internalType": "uint40",
          "name": "feeFraction",
          "type": "uint40"
        },
        {
          "internalType": "bool",
          "name": "enabled",
          "type": "bool"
        }
      ],
      "name": "setAggregatorConfig",
      "outputs": [],
      "stateMutability": "nonpayable",
      "type": "function"
    },
    {
      "inputs": [
        {
          "internalType": "address",
          "name": "operator",
          "type": "address"
        },
        {
          "internalType": "bool",
          "name": "approved",
          "type": "bool"
        }
      ],
      "name": "setApprovalForAll",
      "outputs": [],
      "stateMutability": "nonpayable",
      "type": "function"
    },
    {
      "inputs": [
        {
          "internalType": "address",
          "name": "feeReceiver_",
          "type": "address"
        }
      ],
      "name": "setFeeReceiver",
      "outputs": [],
      "stateMutability": "nonpayable",
      "type": "function"
    },
    {
      "inputs": [
        {
          "internalType": "address",
          "name": "signer_",
          "type": "address"
        }
      ],
      "name": "setSigner",
      "outputs": [],
      "stateMutability": "nonpayable",
      "type": "function"
    },
    {
      "inputs": [],
      "name": "signer",
      "outputs": [
        {
          "internalType": "address",
          "name": "",
          "type": "address"
        }
      ],
      "stateMutability": "view",
      "type": "function"
    },
    {
      "inputs": [
        {
          "internalType": "bytes4",
          "name": "interfaceId",
          "type": "bytes4"
        }
      ],
      "name": "supportsInterface",
      "outputs": [
        {
          "internalType": "bool",
          "name": "",
          "type": "bool"
        }
      ],
      "stateMutability": "view",
      "type": "function"
    },
    {
      "inputs": [],
      "name": "symbol",
      "outputs": [
        {
          "internalType": "string",
          "name": "",
          "type": "string"
        }
      ],
      "stateMutability": "view",
      "type": "function"
    },
    {
      "inputs": [
        {
          "internalType": "uint256",
          "name": "tokenId",
          "type": "uint256"
        }
      ],
      "name": "tokenURI",
      "outputs": [
        {
          "internalType": "string",
          "name": "",
          "type": "string"
        }
      ],
      "stateMutability": "view",
      "type": "function"
    },
    {
      "inputs": [],
      "name": "totalSupply",
      "outputs": [
        {
          "internalType": "uint256",
          "name": "",
          "type": "uint256"
        }
      ],
      "stateMutability": "view",
      "type": "function"
    },
    {
      "inputs": [
        {
          "internalType": "address",
          "name": "admin_",
          "type": "address"
        }
      ],
      "name": "transferAdmin",
      "outputs": [],
      "stateMutability": "nonpayable",
      "type": "function"
    },
    {
      "inputs": [
        {
          "internalType": "address",
          "name": "from",
          "type": "address"
        },
        {
          "internalType": "address",
          "name": "to",
          "type": "address"
        },
        {
          "internalType": "uint256",
          "name": "tokenId",
          "type": "uint256"
        }
      ],
      "name": "transferFrom",
      "outputs": [],
      "stateMutability": "nonpayable",
      "type": "function"
    }
  ],
  "bytecode": "0x60a06040523480156200001157600080fd5b5060405162004de738038062004de78339818101604052810190620000379190620001af565b6040518060400160405280601481526020017f436f72616c2042696e617279204f7074696f6e730000000000000000000000008152506040518060400160405280600481526020017f432d424f000000000000000000000000000000000000000000000000000000008152508160009081620000b491906200045b565b508060019081620000c691906200045b565b50505033600660006101000a81548173ffffffffffffffffffffffffffffffffffffffff021916908373ffffffffffffffffffffffffffffffffffffffff1602179055508073ffffffffffffffffffffffffffffffffffffffff1660808173ffffffffffffffffffffffffffffffffffffffff16815250505062000542565b600080fd5b600073ffffffffffffffffffffffffffffffffffffffff82169050919050565b600062000177826200014a565b9050919050565b62000189816200016a565b81146200019557600080fd5b50565b600081519050620001a9816200017e565b92915050565b600060208284031215620001c857620001c762000145565b5b6000620001d88482850162000198565b91505092915050565b600081519050919050565b7f4e487b7100000000000000000000000000000000000000000000000000000000600052604160045260246000fd5b7f4e487b7100000000000000000000000000000000000000000000000000000000600052602260045260246000fd5b600060028204905060018216806200026357607f821691505b6020821081036200027957620002786200021b565b5b50919050565b60008190508160005260206000209050919050565b60006020601f8301049050919050565b600082821b905092915050565b600060088302620002e37fffffffffffffffffffffffffffffffffffffffffffffffffffffffffffffffff82620002a4565b620002ef8683620002a4565b95508019841693508086168417925050509392505050565b6000819050919050565b6000819050919050565b60006200033c62000336620003308462000307565b62000311565b62000307565b9050919050565b6000819050919050565b62000358836200031b565b62000370620003678262000343565b848454620002b1565b825550505050565b600090565b6200038762000378565b620003948184846200034d565b505050565b5b81811015620003bc57620003b06000826200037d565b6001810190506200039a565b5050565b601f8211156200040b57620003d5816200027f565b620003e08462000294565b81016020851015620003f0578190505b62000408620003ff8562000294565b83018262000399565b50505b505050565b600082821c905092915050565b6000620004306000198460080262000410565b1980831691505092915050565b60006200044b83836200041d565b9150826002028217905092915050565b6200046682620001e1565b67ffffffffffffffff811115620004825762000481620001ec565b5b6200048e82546200024a565b6200049b828285620003c0565b600060209050601f831160018114620004d35760008415620004be578287015190505b620004ca85826200043d565b8655506200053a565b601f198416620004e3866200027f565b60005b828110156200050d57848901518255600182019150602085019450602081019050620004e6565b868310156200052d578489015162000529601f8916826200041d565b8355505b6001600288020188555050505b505050505050565b60805161486d6200057a600039600081816108f701528181610cb601528181610e0501528181611a220152611aa6015261486d6000f3fe608060405234801561001057600080fd5b50600436106101c45760003560e01c806370a08231116100f9578063aaf5eb6811610097578063c87b56dd11610071578063c87b56dd146104fc578063e985e9c51461052c578063efdcd9741461055c578063f851a44014610578576101c4565b8063aaf5eb68146104a4578063b3f00674146104c2578063b88d4fde146104e0576101c4565b80638fc4254d116100d35780638fc4254d1461041957806395d89b411461044e578063a22cb4651461046c578063a74e63ac14610488576101c4565b806370a08231146103b157806370d43e28146103e157806375829def146103fd576101c4565b806338d52e0f1161016657806342966c681161014057806342966c681461032b5780636352211e14610347578063665a11ca146103775780636c19e78314610395576101c4565b806338d52e0f146102bb578063409e2205146102d957806342842e0e1461030f576101c4565b8063095ea7b3116101a2578063095ea7b31461024757806318160ddd14610263578063238ac9331461028157806323b872dd1461029f576101c4565b806301ffc9a7146101c957806306fdde03146101f9578063081812fc14610217575b600080fd5b6101e360048036038101906101de9190613001565b610596565b6040516101f09190613049565b60405180910390f35b610201610678565b60405161020e91906130f4565b60405180910390f35b610231600480360381019061022c919061314c565b61070a565b60405161023e91906131ba565b60405180910390f35b610261600480360381019061025c9190613201565b610750565b005b61026b610867565b6040516102789190613250565b60405180910390f35b61028961086d565b60405161029691906131ba565b60405180910390f35b6102b960048036038101906102b4919061326b565b610893565b005b6102c36108f3565b6040516102d0919061331d565b60405180910390f35b6102f360048036038101906102ee919061314c565b610989565b6040516103069796959493929190613374565b60405180910390f35b6103296004803603810190610324919061326b565b610a23565b005b6103456004803603810190610340919061314c565b610a43565b005b610361600480360381019061035c919061314c565b610d7d565b60405161036e91906131ba565b60405180910390f35b61037f610e03565b60405161038c9190613404565b60405180910390f35b6103af60048036038101906103aa919061341f565b610e27565b005b6103cb60048036038101906103c6919061341f565b610f32565b6040516103d89190613250565b60405180910390f35b6103fb60048036038101906103f691906134a4565b610fe9565b005b6104176004803603810190610412919061341f565b6112d4565b005b610433600480360381019061042e919061341f565b6113df565b60405161044596959493929190613546565b60405180910390f35b61045661147d565b60405161046391906130f4565b60405180910390f35b610486600480360381019061048191906135a7565b61150f565b005b6104a2600480360381019061049d91906135e7565b611525565b005b6104ac611be5565b6040516104b99190613250565b60405180910390f35b6104ca611beb565b6040516104d791906131ba565b60405180910390f35b6104fa60048036038101906104f59190613797565b611c11565b005b6105166004803603810190610511919061314c565b611c73565b60405161052391906130f4565b60405180910390f35b6105466004803603810190610541919061381a565b611cdb565b6040516105539190613049565b60405180910390f35b6105766004803603810190610571919061341f565b611d6f565b005b610580611e7a565b60405161058d91906131ba565b60405180910390f35b60007f80ac58cd000000000000000000000000000000000000000000000000000000007bffffffffffffffffffffffffffffffffffffffffffffffffffffffff1916827bffffffffffffffffffffffffffffffffffffffffffffffffffffffff1916148061066157507f5b5e139f000000000000000000000000000000000000000000000000000000007bffffffffffffffffffffffffffffffffffffffffffffffffffffffff1916827bffffffffffffffffffffffffffffffffffffffffffffffffffffffff1916145b80610671575061067082611ea0565b5b9050919050565b60606000805461068790613889565b80601f01602080910402602001604051908101604052809291908181526020018280546106b390613889565b80156107005780601f106106d557610100808354040283529160200191610700565b820191906000526020600020905b8154815290600101906020018083116106e357829003601f168201915b5050505050905090565b600061071582611f0a565b6004600083815260200190815260200160002060009054906101000a900473ffffffffffffffffffffffffffffffffffffffff169050919050565b600061075b82610d7d565b90508073ffffffffffffffffffffffffffffffffffffffff168373ffffffffffffffffffffffffffffffffffffffff16036107cb576040517f08c379a00000000000000000000000000000000000000000000000000000000081526004016107c29061392c565b60405180910390fd5b8073ffffffffffffffffffffffffffffffffffffffff166107ea611f55565b73ffffffffffffffffffffffffffffffffffffffff161480610819575061081881610813611f55565b611cdb565b5b610858576040517f08c379a000000000000000000000000000000000000000000000000000000000815260040161084f906139be565b60405180910390fd5b6108628383611f5d565b505050565b600a5481565b600760009054906101000a900473ffffffffffffffffffffffffffffffffffffffff1681565b6108a461089e611f55565b82612016565b6108e3576040517f08c379a00000000000000000000000000000000000000000000000000000000081526004016108da90613a50565b60405180910390fd5b6108ee8383836120ab565b505050565b60007f000000000000000000000000000000000000000000000000000000000000000073ffffffffffffffffffffffffffffffffffffffff166338d52e0f6040518163ffffffff1660e01b8152600401602060405180830381865afa158015610960573d6000803e3d6000fd5b505050506040513d601f19601f820116820180604052508101906109849190613a85565b905090565b600b6020528060005260406000206000915090508060000160009054906101000a900473ffffffffffffffffffffffffffffffffffffffff16908060000160149054906101000a900464ffffffffff16908060000160199054906101000a900460ff16908060010160009054906101000a9004600f0b908060010160109054906101000a9004600f0b908060020154908060030154905087565b610a3e83838360405180602001604052806000815250611c11565b505050565b6000600b60008381526020019081526020016000209050428160000160149054906101000a900464ffffffffff1664ffffffffff161115610ab9576040517f08c379a0000000000000000000000000000000000000000000000000000000008152600401610ab090613afe565b60405180910390fd5b610ac2826123a4565b610b01576040517f08c379a0000000000000000000000000000000000000000000000000000000008152600401610af890613b6a565b60405180910390fd5b6000610b0c83610d7d565b9050610b17836123e5565b6000610b468360000160009054906101000a900473ffffffffffffffffffffffffffffffffffffffff16612533565b9050808360010160106101000a8154816fffffffffffffffffffffffffffffffff0219169083600f0b6fffffffffffffffffffffffffffffffff16021790555060008360000160199054906101000a900460ff16610bce578360010160009054906101000a9004600f0b600f0b8460010160109054906101000a9004600f0b600f0b12610bfa565b8360010160009054906101000a9004600f0b600f0b8460010160109054906101000a9004600f0b600f0b135b90508015610c9157610c0a6108f3565b73ffffffffffffffffffffffffffffffffffffffff1663a9059cbb8486600301546040518363ffffffff1660e01b8152600401610c48929190613b8a565b6020604051808303816000875af1158015610c67573d6000803e3d6000fd5b505050506040513d601f19601f82011682018060405250810190610c8b9190613bc8565b50610d3c565b610c996108f3565b73ffffffffffffffffffffffffffffffffffffffff1663a9059cbb7f000000000000000000000000000000000000000000000000000000000000000086600301546040518363ffffffff1660e01b8152600401610cf7929190613b8a565b6020604051808303816000875af1158015610d16573d6000803e3d6000fd5b505050506040513d601f19601f82011682018060405250810190610d3a9190613bc8565b505b847fdaf9b88c84b572819d2c21d88d77f3c238c58c654ddc469f989125e5a0d829108385604051610d6e929190613bf5565b60405180910390a25050505050565b600080610d8983612665565b9050600073ffffffffffffffffffffffffffffffffffffffff168173ffffffffffffffffffffffffffffffffffffffff1603610dfa576040517f08c379a0000000000000000000000000000000000000000000000000000000008152600401610df190613c6a565b60405180910390fd5b80915050919050565b7f000000000000000000000000000000000000000000000000000000000000000081565b600660009054906101000a900473ffffffffffffffffffffffffffffffffffffffff1673ffffffffffffffffffffffffffffffffffffffff163373ffffffffffffffffffffffffffffffffffffffff1614610eb7576040517f08c379a0000000000000000000000000000000000000000000000000000000008152600401610eae90613cd6565b60405180910390fd5b80600760006101000a81548173ffffffffffffffffffffffffffffffffffffffff021916908373ffffffffffffffffffffffffffffffffffffffff1602179055507fbb10aee7ef5a307b8097c6a7f2892b909ff1736fd24a6a5260640c185f7153b681604051610f2791906131ba565b60405180910390a150565b60008073ffffffffffffffffffffffffffffffffffffffff168273ffffffffffffffffffffffffffffffffffffffff1603610fa2576040517f08c379a0000000000000000000000000000000000000000000000000000000008152600401610f9990613d68565b60405180910390fd5b600360008373ffffffffffffffffffffffffffffffffffffffff1673ffffffffffffffffffffffffffffffffffffffff168152602001908152602001600020549050919050565b6127108664ffffffffff161180156110165750612710600261100b9190613db7565b8664ffffffffff1611155b611055576040517f08c379a000000000000000000000000000000000000000000000000000000000815260040161104c90613e5d565b60405180910390fd5b8364ffffffffff168564ffffffffff1611156110a6576040517f08c379a000000000000000000000000000000000000000000000000000000000815260040161109d90613ec9565b60405180910390fd5b6127108264ffffffffff16106110f1576040517f08c379a00000000000000000000000000000000000000000000000000000000081526004016110e890613f35565b60405180910390fd5b6040518060c001604052808764ffffffffff1681526020018664ffffffffff1681526020018564ffffffffff1681526020018464ffffffffff1681526020018364ffffffffff168152602001821515815250600860008973ffffffffffffffffffffffffffffffffffffffff1673ffffffffffffffffffffffffffffffffffffffff16815260200190815260200160002060008201518160000160006101000a81548164ffffffffff021916908364ffffffffff16021790555060208201518160000160056101000a81548164ffffffffff021916908364ffffffffff160217905550604082015181600001600a6101000a81548164ffffffffff021916908364ffffffffff160217905550606082015181600001600f6101000a81548164ffffffffff021916908364ffffffffff16021790555060808201518160000160146101000a81548164ffffffffff021916908364ffffffffff16021790555060a08201518160000160196101000a81548160ff0219169083151502179055509050508015158773ffffffffffffffffffffffffffffffffffffffff167fa28b2358854d180d9b78670f2dd046382164d6ea96f67207fc0f75c1b911428c88888888886040516112c3959493929190613f55565b60405180910390a350505050505050565b600660009054906101000a900473ffffffffffffffffffffffffffffffffffffffff1673ffffffffffffffffffffffffffffffffffffffff163373ffffffffffffffffffffffffffffffffffffffff1614611364576040517f08c379a000000000000000000000000000000000000000000000000000000000815260040161135b90613cd6565b60405180910390fd5b80600660006101000a81548173ffffffffffffffffffffffffffffffffffffffff021916908373ffffffffffffffffffffffffffffffffffffffff1602179055507f5a272403b402d892977df56625f4164ccaf70ca3863991c43ecfe76a6905b0a1816040516113d491906131ba565b60405180910390a150565b60086020528060005260406000206000915090508060000160009054906101000a900464ffffffffff16908060000160059054906101000a900464ffffffffff169080600001600a9054906101000a900464ffffffffff169080600001600f9054906101000a900464ffffffffff16908060000160149054906101000a900464ffffffffff16908060000160199054906101000a900460ff16905086565b60606001805461148c90613889565b80601f01602080910402602001604051908101604052809291908181526020018280546114b890613889565b80156115055780601f106114da57610100808354040283529160200191611505565b820191906000526020600020905b8154815290600101906020018083116114e857829003601f168201915b5050505050905090565b61152161151a611f55565b83836126a2565b5050565b6000600860008773ffffffffffffffffffffffffffffffffffffffff1673ffffffffffffffffffffffffffffffffffffffff1681526020019081526020016000206040518060c00160405290816000820160009054906101000a900464ffffffffff1664ffffffffff1664ffffffffff1681526020016000820160059054906101000a900464ffffffffff1664ffffffffff1664ffffffffff16815260200160008201600a9054906101000a900464ffffffffff1664ffffffffff1664ffffffffff16815260200160008201600f9054906101000a900464ffffffffff1664ffffffffff1664ffffffffff1681526020016000820160149054906101000a900464ffffffffff1664ffffffffff1664ffffffffff1681526020016000820160199054906101000a900460ff16151515158152505090508060a0015161169f576040517f08c379a000000000000000000000000000000000000000000000000000000000815260040161169690613ff4565b60405180910390fd5b806020015164ffffffffff168564ffffffffff16101580156116d35750806040015164ffffffffff168564ffffffffff1611155b611712576040517f08c379a000000000000000000000000000000000000000000000000000000000815260040161170990614060565b60405180910390fd5b6000612710826080015164ffffffffff168561172e9190613db7565b61173891906140af565b90506000818561174891906140e0565b90506000811161178d576040517f08c379a000000000000000000000000000000000000000000000000000000000815260040161178490614160565b60405180910390fd5b6000612710846000015164ffffffffff16836117a99190613db7565b6117b391906140af565b90506000600a600081546117c690614180565b91905081905590506117d8868261280e565b60008964ffffffffff16426117ed91906141c8565b905060006117fa8c612533565b90506040518060e001604052808d73ffffffffffffffffffffffffffffffffffffffff1681526020018364ffffffffff1681526020018b1515815260200182600f0b81526020016000600f0b815260200186815260200185815250600b600085815260200190815260200160002060008201518160000160006101000a81548173ffffffffffffffffffffffffffffffffffffffff021916908373ffffffffffffffffffffffffffffffffffffffff16021790555060208201518160000160146101000a81548164ffffffffff021916908364ffffffffff16021790555060408201518160000160196101000a81548160ff02191690831515021790555060608201518160010160006101000a8154816fffffffffffffffffffffffffffffffff0219169083600f0b6fffffffffffffffffffffffffffffffff16021790555060808201518160010160106101000a8154816fffffffffffffffffffffffffffffffff0219169083600f0b6fffffffffffffffffffffffffffffffff16021790555060a0820151816002015560c082015181600301559050508b73ffffffffffffffffffffffffffffffffffffffff16837f11c57561ecc5e841e791bcc216d01047adcdaaa91a8e99eb594e07154d9ae5f18d64ffffffffff16426119df91906141c8565b8d858e8a6040516119f49594939291906141fc565b60405180910390a3611a046108f3565b73ffffffffffffffffffffffffffffffffffffffff166323b872dd337f0000000000000000000000000000000000000000000000000000000000000000886040518463ffffffff1660e01b8152600401611a609392919061424f565b6020604051808303816000875af1158015611a7f573d6000803e3d6000fd5b505050506040513d601f19601f82011682018060405250810190611aa39190613bc8565b507f000000000000000000000000000000000000000000000000000000000000000073ffffffffffffffffffffffffffffffffffffffff1663f0dd71c7856040518263ffffffff1660e01b8152600401611afd9190613250565b600060405180830381600087803b158015611b1757600080fd5b505af1158015611b2b573d6000803e3d6000fd5b50505050611b376108f3565b73ffffffffffffffffffffffffffffffffffffffff1663a9059cbb600960009054906101000a900473ffffffffffffffffffffffffffffffffffffffff16886040518363ffffffff1660e01b8152600401611b93929190613b8a565b6020604051808303816000875af1158015611bb2573d6000803e3d6000fd5b505050506040513d601f19601f82011682018060405250810190611bd69190613bc8565b50505050505050505050505050565b61271081565b600960009054906101000a900473ffffffffffffffffffffffffffffffffffffffff1681565b611c22611c1c611f55565b83612016565b611c61576040517f08c379a0000000000000000000000000000000000000000000000000000000008152600401611c5890613a50565b60405180910390fd5b611c6d84848484612a2b565b50505050565b6060611c7e82611f0a565b6000611c88612a87565b90506000815111611ca85760405180602001604052806000815250611cd3565b80611cb284612a9e565b604051602001611cc39291906142c2565b6040516020818303038152906040525b915050919050565b6000600560008473ffffffffffffffffffffffffffffffffffffffff1673ffffffffffffffffffffffffffffffffffffffff16815260200190815260200160002060008373ffffffffffffffffffffffffffffffffffffffff1673ffffffffffffffffffffffffffffffffffffffff16815260200190815260200160002060009054906101000a900460ff16905092915050565b600660009054906101000a900473ffffffffffffffffffffffffffffffffffffffff1673ffffffffffffffffffffffffffffffffffffffff163373ffffffffffffffffffffffffffffffffffffffff1614611dff576040517f08c379a0000000000000000000000000000000000000000000000000000000008152600401611df690613cd6565b60405180910390fd5b80600960006101000a81548173ffffffffffffffffffffffffffffffffffffffff021916908373ffffffffffffffffffffffffffffffffffffffff1602179055507fffb40bfdfd246e95f543d08d9713c339f1d90fa9265e39b4f562f9011d7c919f81604051611e6f91906131ba565b60405180910390a150565b600660009054906101000a900473ffffffffffffffffffffffffffffffffffffffff1681565b60007f01ffc9a7000000000000000000000000000000000000000000000000000000007bffffffffffffffffffffffffffffffffffffffffffffffffffffffff1916827bffffffffffffffffffffffffffffffffffffffffffffffffffffffff1916149050919050565b611f13816123a4565b611f52576040517f08c379a0000000000000000000000000000000000000000000000000000000008152600401611f4990613c6a565b60405180910390fd5b50565b600033905090565b816004600083815260200190815260200160002060006101000a81548173ffffffffffffffffffffffffffffffffffffffff021916908373ffffffffffffffffffffffffffffffffffffffff160217905550808273ffffffffffffffffffffffffffffffffffffffff16611fd083610d7d565b73ffffffffffffffffffffffffffffffffffffffff167f8c5be1e5ebec7d5bd14f71427d1e84f3dd0314c0f7b2291e5b200ac8c7c3b92560405160405180910390a45050565b60008061202283610d7d565b90508073ffffffffffffffffffffffffffffffffffffffff168473ffffffffffffffffffffffffffffffffffffffff16148061206457506120638185611cdb565b5b806120a257508373ffffffffffffffffffffffffffffffffffffffff1661208a8461070a565b73ffffffffffffffffffffffffffffffffffffffff16145b91505092915050565b8273ffffffffffffffffffffffffffffffffffffffff166120cb82610d7d565b73ffffffffffffffffffffffffffffffffffffffff1614612121576040517f08c379a000000000000000000000000000000000000000000000000000000000815260040161211890614358565b60405180910390fd5b600073ffffffffffffffffffffffffffffffffffffffff168273ffffffffffffffffffffffffffffffffffffffff1603612190576040517f08c379a0000000000000000000000000000000000000000000000000000000008152600401612187906143ea565b60405180910390fd5b61219d8383836001612b6c565b8273ffffffffffffffffffffffffffffffffffffffff166121bd82610d7d565b73ffffffffffffffffffffffffffffffffffffffff1614612213576040517f08c379a000000000000000000000000000000000000000000000000000000000815260040161220a90614358565b60405180910390fd5b6004600082815260200190815260200160002060006101000a81549073ffffffffffffffffffffffffffffffffffffffff02191690556001600360008573ffffffffffffffffffffffffffffffffffffffff1673ffffffffffffffffffffffffffffffffffffffff168152602001908152602001600020600082825403925050819055506001600360008473ffffffffffffffffffffffffffffffffffffffff1673ffffffffffffffffffffffffffffffffffffffff16815260200190815260200160002060008282540192505081905550816002600083815260200190815260200160002060006101000a81548173ffffffffffffffffffffffffffffffffffffffff021916908373ffffffffffffffffffffffffffffffffffffffff160217905550808273ffffffffffffffffffffffffffffffffffffffff168473ffffffffffffffffffffffffffffffffffffffff167fddf252ad1be2c89b69c2b068fc378daa952ba7f163c4a11628f55a4df523b3ef60405160405180910390a461239f8383836001612c92565b505050565b60008073ffffffffffffffffffffffffffffffffffffffff166123c683612665565b73ffffffffffffffffffffffffffffffffffffffff1614159050919050565b60006123f082610d7d565b9050612400816000846001612b6c565b61240982610d7d565b90506004600083815260200190815260200160002060006101000a81549073ffffffffffffffffffffffffffffffffffffffff02191690556001600360008373ffffffffffffffffffffffffffffffffffffffff1673ffffffffffffffffffffffffffffffffffffffff168152602001908152602001600020600082825403925050819055506002600083815260200190815260200160002060006101000a81549073ffffffffffffffffffffffffffffffffffffffff021916905581600073ffffffffffffffffffffffffffffffffffffffff168273ffffffffffffffffffffffffffffffffffffffff167fddf252ad1be2c89b69c2b068fc378daa952ba7f163c4a11628f55a4df523b3ef60405160405180910390a461252f816000846001612c92565b5050565b6000808290506000808273ffffffffffffffffffffffffffffffffffffffff1663feaf968c6040518163ffffffff1660e01b815260040160a060405180830381865afa158015612587573d6000803e3d6000fd5b505050506040513d601f19601f820116820180604052508101906125ab9190614497565b50935050925050600860008673ffffffffffffffffffffffffffffffffffffffff1673ffffffffffffffffffffffffffffffffffffffff168152602001908152602001600020600001600f9054906101000a900464ffffffffff1664ffffffffff168161261891906141c8565b42111561265a576040517f08c379a00000000000000000000000000000000000000000000000000000000081526004016126519061455e565b60405180910390fd5b819350505050919050565b60006002600083815260200190815260200160002060009054906101000a900473ffffffffffffffffffffffffffffffffffffffff169050919050565b8173ffffffffffffffffffffffffffffffffffffffff168373ffffffffffffffffffffffffffffffffffffffff1603612710576040517f08c379a0000000000000000000000000000000000000000000000000000000008152600401612707906145ca565b60405180910390fd5b80600560008573ffffffffffffffffffffffffffffffffffffffff1673ffffffffffffffffffffffffffffffffffffffff16815260200190815260200160002060008473ffffffffffffffffffffffffffffffffffffffff1673ffffffffffffffffffffffffffffffffffffffff16815260200190815260200160002060006101000a81548160ff0219169083151502179055508173ffffffffffffffffffffffffffffffffffffffff168373ffffffffffffffffffffffffffffffffffffffff167f17307eab39ab6107e8899845ad3d59bd9653f200f220920489ca2b5937696c31836040516128019190613049565b60405180910390a3505050565b600073ffffffffffffffffffffffffffffffffffffffff168273ffffffffffffffffffffffffffffffffffffffff160361287d576040517f08c379a000000000000000000000000000000000000000000000000000000000815260040161287490614636565b60405180910390fd5b612886816123a4565b156128c6576040517f08c379a00000000000000000000000000000000000000000000000000000000081526004016128bd906146a2565b60405180910390fd5b6128d4600083836001612b6c565b6128dd816123a4565b1561291d576040517f08c379a0000000000000000000000000000000000000000000000000000000008152600401612914906146a2565b60405180910390fd5b6001600360008473ffffffffffffffffffffffffffffffffffffffff1673ffffffffffffffffffffffffffffffffffffffff16815260200190815260200160002060008282540192505081905550816002600083815260200190815260200160002060006101000a81548173ffffffffffffffffffffffffffffffffffffffff021916908373ffffffffffffffffffffffffffffffffffffffff160217905550808273ffffffffffffffffffffffffffffffffffffffff16600073ffffffffffffffffffffffffffffffffffffffff167fddf252ad1be2c89b69c2b068fc378daa952ba7f163c4a11628f55a4df523b3ef60405160405180910390a4612a27600083836001612c92565b5050565b612a368484846120ab565b612a4284848484612c98565b612a81576040517f08c379a0000000000000000000000000000000000000000000000000000000008152600401612a7890614734565b60405180910390fd5b50505050565b606060405180602001604052806000815250905090565b606060006001612aad84612e1f565b01905060008167ffffffffffffffff811115612acc57612acb61366c565b5b6040519080825280601f01601f191660200182016040528015612afe5781602001600182028036833780820191505090505b509050600082602001820190505b600115612b61578080600190039150507f3031323334353637383961626364656600000000000000000000000000000000600a86061a8153600a8581612b5557612b54614080565b5b04945060008503612b0c575b819350505050919050565b6001811115612c8c57600073ffffffffffffffffffffffffffffffffffffffff168473ffffffffffffffffffffffffffffffffffffffff1614612c005780600360008673ffffffffffffffffffffffffffffffffffffffff1673ffffffffffffffffffffffffffffffffffffffff1681526020019081526020016000206000828254612bf891906140e0565b925050819055505b600073ffffffffffffffffffffffffffffffffffffffff168373ffffffffffffffffffffffffffffffffffffffff1614612c8b5780600360008573ffffffffffffffffffffffffffffffffffffffff1673ffffffffffffffffffffffffffffffffffffffff1681526020019081526020016000206000828254612c8391906141c8565b925050819055505b5b50505050565b50505050565b6000612cb98473ffffffffffffffffffffffffffffffffffffffff16612f72565b15612e12578373ffffffffffffffffffffffffffffffffffffffff1663150b7a02612ce2611f55565b8786866040518563ffffffff1660e01b8152600401612d0494939291906147a9565b6020604051808303816000875af1925050508015612d4057506040513d601f19601f82011682018060405250810190612d3d919061480a565b60015b612dc2573d8060008114612d70576040519150601f19603f3d011682016040523d82523d6000602084013e612d75565b606091505b506000815103612dba576040517f08c379a0000000000000000000000000000000000000000000000000000000008152600401612db190614734565b60405180910390fd5b805181602001fd5b63150b7a0260e01b7bffffffffffffffffffffffffffffffffffffffffffffffffffffffff1916817bffffffffffffffffffffffffffffffffffffffffffffffffffffffff191614915050612e17565b600190505b949350505050565b600080600090507a184f03e93ff9f4daa797ed6e38ed64bf6a1f0100000000000000008310612e7d577a184f03e93ff9f4daa797ed6e38ed64bf6a1f0100000000000000008381612e7357612e72614080565b5b0492506040810190505b6d04ee2d6d415b85acef81000000008310612eba576d04ee2d6d415b85acef81000000008381612eb057612eaf614080565b5b0492506020810190505b662386f26fc100008310612ee957662386f26fc100008381612edf57612ede614080565b5b0492506010810190505b6305f5e1008310612f12576305f5e1008381612f0857612f07614080565b5b0492506008810190505b6127108310612f37576127108381612f2d57612f2c614080565b5b0492506004810190505b60648310612f5a5760648381612f5057612f4f614080565b5b0492506002810190505b600a8310612f69576001810190505b80915050919050565b6000808273ffffffffffffffffffffffffffffffffffffffff163b119050919050565b6000604051905090565b600080fd5b600080fd5b60007fffffffff0000000000000000000000000000000000000000000000000000000082169050919050565b612fde81612fa9565b8114612fe957600080fd5b50565b600081359050612ffb81612fd5565b92915050565b60006020828403121561301757613016612f9f565b5b600061302584828501612fec565b91505092915050565b60008115159050919050565b6130438161302e565b82525050565b600060208201905061305e600083018461303a565b92915050565b600081519050919050565b600082825260208201905092915050565b60005b8381101561309e578082015181840152602081019050613083565b60008484015250505050565b6000601f19601f8301169050919050565b60006130c682613064565b6130d0818561306f565b93506130e0818560208601613080565b6130e9816130aa565b840191505092915050565b6000602082019050818103600083015261310e81846130bb565b905092915050565b6000819050919050565b61312981613116565b811461313457600080fd5b50565b60008135905061314681613120565b92915050565b60006020828403121561316257613161612f9f565b5b600061317084828501613137565b91505092915050565b600073ffffffffffffffffffffffffffffffffffffffff82169050919050565b60006131a482613179565b9050919050565b6131b481613199565b82525050565b60006020820190506131cf60008301846131ab565b92915050565b6131de81613199565b81146131e957600080fd5b50565b6000813590506131fb816131d5565b92915050565b6000806040838503121561321857613217612f9f565b5b6000613226858286016131ec565b925050602061323785828601613137565b9150509250929050565b61324a81613116565b82525050565b60006020820190506132656000830184613241565b92915050565b60008060006060848603121561328457613283612f9f565b5b6000613292868287016131ec565b93505060206132a3868287016131ec565b92505060406132b486828701613137565b9150509250925092565b6000819050919050565b60006132e36132de6132d984613179565b6132be565b613179565b9050919050565b60006132f5826132c8565b9050919050565b6000613307826132ea565b9050919050565b613317816132fc565b82525050565b6000602082019050613332600083018461330e565b92915050565b600064ffffffffff82169050919050565b61335281613338565b82525050565b600081600f0b9050919050565b61336e81613358565b82525050565b600060e082019050613389600083018a6131ab565b6133966020830189613349565b6133a3604083018861303a565b6133b06060830187613365565b6133bd6080830186613365565b6133ca60a0830185613241565b6133d760c0830184613241565b98975050505050505050565b60006133ee826132ea565b9050919050565b6133fe816133e3565b82525050565b600060208201905061341960008301846133f5565b92915050565b60006020828403121561343557613434612f9f565b5b6000613443848285016131ec565b91505092915050565b61345581613338565b811461346057600080fd5b50565b6000813590506134728161344c565b92915050565b6134818161302e565b811461348c57600080fd5b50565b60008135905061349e81613478565b92915050565b600080600080600080600060e0888a0312156134c3576134c2612f9f565b5b60006134d18a828b016131ec565b97505060206134e28a828b01613463565b96505060406134f38a828b01613463565b95505060606135048a828b01613463565b94505060806135158a828b01613463565b93505060a06135268a828b01613463565b92505060c06135378a828b0161348f565b91505092959891949750929550565b600060c08201905061355b6000830189613349565b6135686020830188613349565b6135756040830187613349565b6135826060830186613349565b61358f6080830185613349565b61359c60a083018461303a565b979650505050505050565b600080604083850312156135be576135bd612f9f565b5b60006135cc858286016131ec565b92505060206135dd8582860161348f565b9150509250929050565b600080600080600060a0868803121561360357613602612f9f565b5b6000613611888289016131ec565b955050602061362288828901613463565b94505060406136338882890161348f565b935050606061364488828901613137565b9250506080613655888289016131ec565b9150509295509295909350565b600080fd5b600080fd5b7f4e487b7100000000000000000000000000000000000000000000000000000000600052604160045260246000fd5b6136a4826130aa565b810181811067ffffffffffffffff821117156136c3576136c261366c565b5b80604052505050565b60006136d6612f95565b90506136e2828261369b565b919050565b600067ffffffffffffffff8211156137025761370161366c565b5b61370b826130aa565b9050602081019050919050565b82818337600083830152505050565b600061373a613735846136e7565b6136cc565b90508281526020810184848401111561375657613755613667565b5b613761848285613718565b509392505050565b600082601f83011261377e5761377d613662565b5b813561378e848260208601613727565b91505092915050565b600080600080608085870312156137b1576137b0612f9f565b5b60006137bf878288016131ec565b94505060206137d0878288016131ec565b93505060406137e187828801613137565b925050606085013567ffffffffffffffff81111561380257613801612fa4565b5b61380e87828801613769565b91505092959194509250565b6000806040838503121561383157613830612f9f565b5b600061383f858286016131ec565b9250506020613850858286016131ec565b9150509250929050565b7f4e487b7100000000000000000000000000000000000000000000000000000000600052602260045260246000fd5b600060028204905060018216806138a157607f821691505b6020821081036138b4576138b361385a565b5b50919050565b7f4552433732313a20617070726f76616c20746f2063757272656e74206f776e6560008201527f7200000000000000000000000000000000000000000000000000000000000000602082015250565b600061391660218361306f565b9150613921826138ba565b604082019050919050565b6000602082019050818103600083015261394581613909565b9050919050565b7f4552433732313a20617070726f76652063616c6c6572206973206e6f7420746f60008201527f6b656e206f776e6572206f7220617070726f76656420666f7220616c6c000000602082015250565b60006139a8603d8361306f565b91506139b38261394c565b604082019050919050565b600060208201905081810360008301526139d78161399b565b9050919050565b7f4552433732313a2063616c6c6572206973206e6f7420746f6b656e206f776e6560008201527f72206f7220617070726f76656400000000000000000000000000000000000000602082015250565b6000613a3a602d8361306f565b9150613a45826139de565b604082019050919050565b60006020820190508181036000830152613a6981613a2d565b9050919050565b600081519050613a7f816131d5565b92915050565b600060208284031215613a9b57613a9a612f9f565b5b6000613aa984828501613a70565b91505092915050565b7f4f7074696f6e20686173206e6f74206578706972656400000000000000000000600082015250565b6000613ae860168361306f565b9150613af382613ab2565b602082019050919050565b60006020820190508181036000830152613b1781613adb565b9050919050565b7f4f7074696f6e206275726e742f646f6573206e6f742065786973740000000000600082015250565b6000613b54601b8361306f565b9150613b5f82613b1e565b602082019050919050565b60006020820190508181036000830152613b8381613b47565b9050919050565b6000604082019050613b9f60008301856131ab565b613bac6020830184613241565b9392505050565b600081519050613bc281613478565b92915050565b600060208284031215613bde57613bdd612f9f565b5b6000613bec84828501613bb3565b91505092915050565b6000604082019050613c0a6000830185613365565b613c1760208301846131ab565b9392505050565b7f4552433732313a20696e76616c696420746f6b656e2049440000000000000000600082015250565b6000613c5460188361306f565b9150613c5f82613c1e565b602082019050919050565b60006020820190508181036000830152613c8381613c47565b9050919050565b7f556e617574686f72697a65642063616c6c657200000000000000000000000000600082015250565b6000613cc060138361306f565b9150613ccb82613c8a565b602082019050919050565b60006020820190508181036000830152613cef81613cb3565b9050919050565b7f4552433732313a2061646472657373207a65726f206973206e6f74206120766160008201527f6c6964206f776e65720000000000000000000000000000000000000000000000602082015250565b6000613d5260298361306f565b9150613d5d82613cf6565b604082019050919050565b60006020820190508181036000830152613d8181613d45565b9050919050565b7f4e487b7100000000000000000000000000000000000000000000000000000000600052601160045260246000fd5b6000613dc282613116565b9150613dcd83613116565b9250817fffffffffffffffffffffffffffffffffffffffffffffffffffffffffffffffff0483118215151615613e0657613e05613d88565b5b828202905092915050565b7f496e76616c6964207061796f7574206d756c7469706c69657200000000000000600082015250565b6000613e4760198361306f565b9150613e5282613e11565b602082019050919050565b60006020820190508181036000830152613e7681613e3a565b9050919050565b7f4d696e206475726174696f6e206f766572206d61780000000000000000000000600082015250565b6000613eb360158361306f565b9150613ebe82613e7d565b602082019050919050565b60006020820190508181036000830152613ee281613ea6565b9050919050565b7f496e76616c696420666565206672616374696f6e000000000000000000000000600082015250565b6000613f1f60148361306f565b9150613f2a82613ee9565b602082019050919050565b60006020820190508181036000830152613f4e81613f12565b9050919050565b600060a082019050613f6a6000830188613349565b613f776020830187613349565b613f846040830186613349565b613f916060830185613349565b613f9e6080830184613349565b9695505050505050565b7f41676772656761746f72206e6f7420656e61626c656400000000000000000000600082015250565b6000613fde60168361306f565b9150613fe982613fa8565b602082019050919050565b6000602082019050818103600083015261400d81613fd1565b9050919050565b7f4475726174696f6e206f7574206f6620626f756e647300000000000000000000600082015250565b600061404a60168361306f565b915061405582614014565b602082019050919050565b600060208201905081810360008301526140798161403d565b9050919050565b7f4e487b7100000000000000000000000000000000000000000000000000000000600052601260045260246000fd5b60006140ba82613116565b91506140c583613116565b9250826140d5576140d4614080565b5b828204905092915050565b60006140eb82613116565b91506140f683613116565b925082820390508181111561410e5761410d613d88565b5b92915050565b7f4465706f7369742061667465722066656573206973207a65726f000000000000600082015250565b600061414a601a8361306f565b915061415582614114565b602082019050919050565b600060208201905081810360008301526141798161413d565b9050919050565b600061418b82613116565b91507fffffffffffffffffffffffffffffffffffffffffffffffffffffffffffffffff82036141bd576141bc613d88565b5b600182019050919050565b60006141d382613116565b91506141de83613116565b92508282019050808211156141f6576141f5613d88565b5b92915050565b600060a0820190506142116000830188613349565b61421e602083018761303a565b61422b6040830186613365565b6142386060830185613241565b6142456080830184613241565b9695505050505050565b600060608201905061426460008301866131ab565b61427160208301856131ab565b61427e6040830184613241565b949350505050565b600081905092915050565b600061429c82613064565b6142a68185614286565b93506142b6818560208601613080565b80840191505092915050565b60006142ce8285614291565b91506142da8284614291565b91508190509392505050565b7f4552433732313a207472616e736665722066726f6d20696e636f72726563742060008201527f6f776e6572000000000000000000000000000000000000000000000000000000602082015250565b600061434260258361306f565b915061434d826142e6565b604082019050919050565b6000602082019050818103600083015261437181614335565b9050919050565b7f4552433732313a207472616e7366657220746f20746865207a65726f2061646460008201527f7265737300000000000000000000000000000000000000000000000000000000602082015250565b60006143d460248361306f565b91506143df82614378565b604082019050919050565b60006020820190508181036000830152614403816143c7565b9050919050565b600069ffffffffffffffffffff82169050919050565b6144298161440a565b811461443457600080fd5b50565b60008151905061444681614420565b92915050565b6000819050919050565b61445f8161444c565b811461446a57600080fd5b50565b60008151905061447c81614456565b92915050565b60008151905061449181613120565b92915050565b600080600080600060a086880312156144b3576144b2612f9f565b5b60006144c188828901614437565b95505060206144d28882890161446d565b94505060406144e388828901614482565b93505060606144f488828901614482565b925050608061450588828901614437565b9150509295509295909350565b7f507269636520746f6f206f6c6400000000000000000000000000000000000000600082015250565b6000614548600d8361306f565b915061455382614512565b602082019050919050565b600060208201905081810360008301526145778161453b565b9050919050565b7f4552433732313a20617070726f766520746f2063616c6c657200000000000000600082015250565b60006145b460198361306f565b91506145bf8261457e565b602082019050919050565b600060208201905081810360008301526145e3816145a7565b9050919050565b7f4552433732313a206d696e7420746f20746865207a65726f2061646472657373600082015250565b600061462060208361306f565b915061462b826145ea565b602082019050919050565b6000602082019050818103600083015261464f81614613565b9050919050565b7f4552433732313a20746f6b656e20616c7265616479206d696e74656400000000600082015250565b600061468c601c8361306f565b915061469782614656565b602082019050919050565b600060208201905081810360008301526146bb8161467f565b9050919050565b7f4552433732313a207472616e7366657220746f206e6f6e20455243373231526560008201527f63656976657220696d706c656d656e7465720000000000000000000000000000602082015250565b600061471e60328361306f565b9150614729826146c2565b604082019050919050565b6000602082019050818103600083015261474d81614711565b9050919050565b600081519050919050565b600082825260208201905092915050565b600061477b82614754565b614785818561475f565b9350614795818560208601613080565b61479e816130aa565b840191505092915050565b60006080820190506147be60008301876131ab565b6147cb60208301866131ab565b6147d86040830185613241565b81810360608301526147ea8184614770565b905095945050505050565b60008151905061480481612fd5565b92915050565b6000602082840312156148205761481f612f9f565b5b600061482e848285016147f5565b9150509291505056fea2646970667358221220a870ede7188865c9170f093ced9de84cdadb18b25cdca353a5c5425ad8d5c02164736f6c63430008100033",
  "linkReferences": {},
  "deployedLinkReferences": {}
}