{
  "_format": "hh-sol-artifact-1",
  "contractName": "Market",
  "sourceName": "contracts/Market/Market.sol",
  "abi": [
    {
      "inputs": [
        {
          "internalType": "address",
          "name": "liquidityPool_",
          "type": "address"
        }
      ],
      "stateMutability": "nonpayable",
      "type": "constructor"
    },
    {
      "anonymous": false,
      "inputs": [
        {
          "indexed": true,
          "internalType": "address",
          "name": "owner",
          "type": "address"
        },
        {
          "indexed": true,
          "internalType": "address",
          "name": "approved",
          "type": "address"
        },
        {
          "indexed": true,
          "internalType": "uint256",
          "name": "tokenId",
          "type": "uint256"
        }
      ],
      "name": "Approval",
      "type": "event"
    },
    {
      "anonymous": false,
      "inputs": [
        {
          "indexed": true,
          "internalType": "address",
          "name": "owner",
          "type": "address"
        },
        {
          "indexed": true,
          "internalType": "address",
          "name": "operator",
          "type": "address"
        },
        {
          "indexed": false,
          "internalType": "bool",
          "name": "approved",
          "type": "bool"
        }
      ],
      "name": "ApprovalForAll",
      "type": "event"
    },
    {
      "anonymous": false,
      "inputs": [
        {
          "indexed": true,
          "internalType": "uint256",
          "name": "id",
          "type": "uint256"
        },
        {
          "indexed": false,
          "internalType": "int128",
          "name": "closePrice",
          "type": "int128"
        },
        {
          "indexed": false,
          "internalType": "address",
          "name": "owner",
          "type": "address"
        }
      ],
      "name": "BurnOption",
      "type": "event"
    },
    {
      "anonymous": false,
      "inputs": [
        {
          "indexed": true,
          "internalType": "uint256",
          "name": "id",
          "type": "uint256"
        },
        {
          "indexed": true,
          "internalType": "address",
          "name": "aggregator",
          "type": "address"
        },
        {
          "indexed": false,
          "internalType": "uint40",
          "name": "expiry",
          "type": "uint40"
        },
        {
          "indexed": false,
          "internalType": "bool",
          "name": "isCall",
          "type": "bool"
        },
        {
          "indexed": false,
          "internalType": "int128",
          "name": "openPrice",
          "type": "int128"
        },
        {
          "indexed": false,
          "internalType": "uint256",
          "name": "deposit",
          "type": "uint256"
        },
        {
          "indexed": false,
          "internalType": "uint256",
          "name": "payout",
          "type": "uint256"
        }
      ],
      "name": "MintOption",
      "type": "event"
    },
    {
      "anonymous": false,
      "inputs": [
        {
          "indexed": false,
          "internalType": "address",
          "name": "admin",
          "type": "address"
        }
      ],
      "name": "SetAdmin",
      "type": "event"
    },
    {
      "anonymous": false,
      "inputs": [
        {
          "indexed": false,
          "internalType": "address",
          "name": "aggregator",
          "type": "address"
        },
        {
          "indexed": false,
          "internalType": "bool",
          "name": "enabled",
          "type": "bool"
        }
      ],
      "name": "SetAggregator",
      "type": "event"
    },
    {
      "anonymous": false,
      "inputs": [
        {
          "indexed": false,
          "internalType": "uint256",
          "name": "feeFraction",
          "type": "uint256"
        }
      ],
      "name": "SetFeeFraction",
      "type": "event"
    },
    {
      "anonymous": false,
      "inputs": [
        {
          "indexed": false,
          "internalType": "address",
          "name": "feeReceiver",
          "type": "address"
        }
      ],
      "name": "SetFeeReceiver",
      "type": "event"
    },
    {
      "anonymous": false,
      "inputs": [
        {
          "indexed": false,
          "internalType": "uint40",
          "name": "expiry",
          "type": "uint40"
        },
        {
          "indexed": false,
          "internalType": "uint256",
          "name": "payoutMultiplier",
          "type": "uint256"
        }
      ],
      "name": "SetPayoutMultiplier",
      "type": "event"
    },
    {
      "anonymous": false,
      "inputs": [
        {
          "indexed": false,
          "internalType": "uint256",
          "name": "priceExpiryThreshold",
          "type": "uint256"
        }
      ],
      "name": "SetPriceExpiryThreshold",
      "type": "event"
    },
    {
      "anonymous": false,
      "inputs": [
        {
          "indexed": false,
          "internalType": "address",
          "name": "signer",
          "type": "address"
        }
      ],
      "name": "SetSigner",
      "type": "event"
    },
    {
      "anonymous": false,
      "inputs": [
        {
          "indexed": true,
          "internalType": "address",
          "name": "from",
          "type": "address"
        },
        {
          "indexed": true,
          "internalType": "address",
          "name": "to",
          "type": "address"
        },
        {
          "indexed": true,
          "internalType": "uint256",
          "name": "tokenId",
          "type": "uint256"
        }
      ],
      "name": "Transfer",
      "type": "event"
    },
    {
      "inputs": [],
      "name": "admin",
      "outputs": [
        {
          "internalType": "address",
          "name": "",
          "type": "address"
        }
      ],
      "stateMutability": "view",
      "type": "function"
    },
    {
      "inputs": [
        {
          "internalType": "address",
          "name": "to",
          "type": "address"
        },
        {
          "internalType": "uint256",
          "name": "tokenId",
          "type": "uint256"
        }
      ],
      "name": "approve",
      "outputs": [],
      "stateMutability": "nonpayable",
      "type": "function"
    },
    {
      "inputs": [],
      "name": "asset",
      "outputs": [
        {
          "internalType": "contract IERC20",
          "name": "",
          "type": "address"
        }
      ],
      "stateMutability": "view",
      "type": "function"
    },
    {
      "inputs": [
        {
          "internalType": "address",
          "name": "owner",
          "type": "address"
        }
      ],
      "name": "balanceOf",
      "outputs": [
        {
          "internalType": "uint256",
          "name": "",
          "type": "uint256"
        }
      ],
      "stateMutability": "view",
      "type": "function"
    },
    {
      "inputs": [
        {
          "internalType": "uint256",
          "name": "tokenId",
          "type": "uint256"
        }
      ],
      "name": "burn",
      "outputs": [],
      "stateMutability": "nonpayable",
      "type": "function"
    },
    {
      "inputs": [
        {
          "internalType": "uint40",
          "name": "",
          "type": "uint40"
        }
      ],
      "name": "durationMultiplier",
      "outputs": [
        {
          "internalType": "uint256",
          "name": "",
          "type": "uint256"
        }
      ],
      "stateMutability": "view",
      "type": "function"
    },
    {
      "inputs": [],
      "name": "feeFraction",
      "outputs": [
        {
          "internalType": "uint256",
          "name": "",
          "type": "uint256"
        }
      ],
      "stateMutability": "view",
      "type": "function"
    },
    {
      "inputs": [],
      "name": "feeReceiver",
      "outputs": [
        {
          "internalType": "address",
          "name": "",
          "type": "address"
        }
      ],
      "stateMutability": "view",
      "type": "function"
    },
    {
      "inputs": [
        {
          "internalType": "uint256",
          "name": "tokenId",
          "type": "uint256"
        }
      ],
      "name": "getApproved",
      "outputs": [
        {
          "internalType": "address",
          "name": "",
          "type": "address"
        }
      ],
      "stateMutability": "view",
      "type": "function"
    },
    {
      "inputs": [
        {
          "internalType": "address",
          "name": "",
          "type": "address"
        }
      ],
      "name": "isAggregatorEnabled",
      "outputs": [
        {
          "internalType": "bool",
          "name": "",
          "type": "bool"
        }
      ],
      "stateMutability": "view",
      "type": "function"
    },
    {
      "inputs": [
        {
          "internalType": "address",
          "name": "owner",
          "type": "address"
        },
        {
          "internalType": "address",
          "name": "operator",
          "type": "address"
        }
      ],
      "name": "isApprovedForAll",
      "outputs": [
        {
          "internalType": "bool",
          "name": "",
          "type": "bool"
        }
      ],
      "stateMutability": "view",
      "type": "function"
    },
    {
      "inputs": [],
      "name": "liquidityPool",
      "outputs": [
        {
          "internalType": "contract LiquidityPool",
          "name": "",
          "type": "address"
        }
      ],
      "stateMutability": "view",
      "type": "function"
    },
    {
      "inputs": [
        {
          "internalType": "address",
          "name": "aggregator",
          "type": "address"
        },
        {
          "internalType": "uint40",
          "name": "duration",
          "type": "uint40"
        },
        {
          "internalType": "bool",
          "name": "isCall",
          "type": "bool"
        },
        {
          "internalType": "uint256",
          "name": "deposit",
          "type": "uint256"
        },
        {
          "internalType": "address",
          "name": "receiver",
          "type": "address"
        }
      ],
      "name": "mint",
      "outputs": [],
      "stateMutability": "nonpayable",
      "type": "function"
    },
    {
      "inputs": [],
      "name": "name",
      "outputs": [
        {
          "internalType": "string",
          "name": "",
          "type": "string"
        }
      ],
      "stateMutability": "view",
      "type": "function"
    },
    {
      "inputs": [
        {
          "internalType": "uint256",
          "name": "",
          "type": "uint256"
        }
      ],
      "name": "options",
      "outputs": [
        {
          "internalType": "address",
          "name": "aggregator",
          "type": "address"
        },
        {
          "internalType": "uint40",
          "name": "expiry",
          "type": "uint40"
        },
        {
          "internalType": "bool",
          "name": "isCall",
          "type": "bool"
        },
        {
          "internalType": "int128",
          "name": "openPrice",
          "type": "int128"
        },
        {
          "internalType": "int128",
          "name": "closePrice",
          "type": "int128"
        },
        {
          "internalType": "uint256",
          "name": "deposit",
          "type": "uint256"
        },
        {
          "internalType": "uint256",
          "name": "payout",
          "type": "uint256"
        }
      ],
      "stateMutability": "view",
      "type": "function"
    },
    {
      "inputs": [
        {
          "internalType": "uint256",
          "name": "tokenId",
          "type": "uint256"
        }
      ],
      "name": "ownerOf",
      "outputs": [
        {
          "internalType": "address",
          "name": "",
          "type": "address"
        }
      ],
      "stateMutability": "view",
      "type": "function"
    },
    {
      "inputs": [],
      "name": "priceExpiryThreshold",
      "outputs": [
        {
          "internalType": "uint256",
          "name": "",
          "type": "uint256"
        }
      ],
      "stateMutability": "view",
      "type": "function"
    },
    {
      "inputs": [
        {
          "internalType": "address",
          "name": "from",
          "type": "address"
        },
        {
          "internalType": "address",
          "name": "to",
          "type": "address"
        },
        {
          "internalType": "uint256",
          "name": "tokenId",
          "type": "uint256"
        }
      ],
      "name": "safeTransferFrom",
      "outputs": [],
      "stateMutability": "nonpayable",
      "type": "function"
    },
    {
      "inputs": [
        {
          "internalType": "address",
          "name": "from",
          "type": "address"
        },
        {
          "internalType": "address",
          "name": "to",
          "type": "address"
        },
        {
          "internalType": "uint256",
          "name": "tokenId",
          "type": "uint256"
        },
        {
          "internalType": "bytes",
          "name": "data",
          "type": "bytes"
        }
      ],
      "name": "safeTransferFrom",
      "outputs": [],
      "stateMutability": "nonpayable",
      "type": "function"
    },
    {
      "inputs": [
        {
          "internalType": "address",
          "name": "operator",
          "type": "address"
        },
        {
          "internalType": "bool",
          "name": "approved",
          "type": "bool"
        }
      ],
      "name": "setApprovalForAll",
      "outputs": [],
      "stateMutability": "nonpayable",
      "type": "function"
    },
    {
      "inputs": [
        {
          "internalType": "uint40",
          "name": "duration",
          "type": "uint40"
        },
        {
          "internalType": "uint256",
          "name": "payoutMultiplier",
          "type": "uint256"
        }
      ],
      "name": "setDurationMultiplier",
      "outputs": [],
      "stateMutability": "nonpayable",
      "type": "function"
    },
    {
      "inputs": [
        {
          "internalType": "address",
          "name": "aggregator",
          "type": "address"
        },
        {
          "internalType": "bool",
          "name": "enabled",
          "type": "bool"
        }
      ],
      "name": "setEnabledAggregator",
      "outputs": [],
      "stateMutability": "nonpayable",
      "type": "function"
    },
    {
      "inputs": [
        {
          "internalType": "uint256",
          "name": "feeFraction_",
          "type": "uint256"
        }
      ],
      "name": "setFeeFraction",
      "outputs": [],
      "stateMutability": "nonpayable",
      "type": "function"
    },
    {
      "inputs": [
        {
          "internalType": "address",
          "name": "feeReceiver_",
          "type": "address"
        }
      ],
      "name": "setFeeReceiver",
      "outputs": [],
      "stateMutability": "nonpayable",
      "type": "function"
    },
    {
      "inputs": [
        {
          "internalType": "uint256",
          "name": "priceExpiryThreshold_",
          "type": "uint256"
        }
      ],
      "name": "setPriceExpiryThreshold",
      "outputs": [],
      "stateMutability": "nonpayable",
      "type": "function"
    },
    {
      "inputs": [
        {
          "internalType": "address",
          "name": "signer_",
          "type": "address"
        }
      ],
      "name": "setSigner",
      "outputs": [],
      "stateMutability": "nonpayable",
      "type": "function"
    },
    {
      "inputs": [],
      "name": "signer",
      "outputs": [
        {
          "internalType": "address",
          "name": "",
          "type": "address"
        }
      ],
      "stateMutability": "view",
      "type": "function"
    },
    {
      "inputs": [
        {
          "internalType": "bytes4",
          "name": "interfaceId",
          "type": "bytes4"
        }
      ],
      "name": "supportsInterface",
      "outputs": [
        {
          "internalType": "bool",
          "name": "",
          "type": "bool"
        }
      ],
      "stateMutability": "view",
      "type": "function"
    },
    {
      "inputs": [],
      "name": "symbol",
      "outputs": [
        {
          "internalType": "string",
          "name": "",
          "type": "string"
        }
      ],
      "stateMutability": "view",
      "type": "function"
    },
    {
      "inputs": [
        {
          "internalType": "uint256",
          "name": "tokenId",
          "type": "uint256"
        }
      ],
      "name": "tokenURI",
      "outputs": [
        {
          "internalType": "string",
          "name": "",
          "type": "string"
        }
      ],
      "stateMutability": "view",
      "type": "function"
    },
    {
      "inputs": [],
      "name": "totalSupply",
      "outputs": [
        {
          "internalType": "uint256",
          "name": "",
          "type": "uint256"
        }
      ],
      "stateMutability": "view",
      "type": "function"
    },
    {
      "inputs": [
        {
          "internalType": "address",
          "name": "admin_",
          "type": "address"
        }
      ],
      "name": "transferAdmin",
      "outputs": [],
      "stateMutability": "nonpayable",
      "type": "function"
    },
    {
      "inputs": [
        {
          "internalType": "address",
          "name": "from",
          "type": "address"
        },
        {
          "internalType": "address",
          "name": "to",
          "type": "address"
        },
        {
          "internalType": "uint256",
          "name": "tokenId",
          "type": "uint256"
        }
      ],
      "name": "transferFrom",
      "outputs": [],
      "stateMutability": "nonpayable",
      "type": "function"
    }
  ],
  "bytecode": "0x60a06040523480156200001157600080fd5b5060405162004efe38038062004efe8339818101604052810190620000379190620001af565b6040518060400160405280601481526020017f436f72616c2042696e617279204f7074696f6e730000000000000000000000008152506040518060400160405280600481526020017f432d424f000000000000000000000000000000000000000000000000000000008152508160009081620000b491906200045b565b508060019081620000c691906200045b565b50505033600660006101000a81548173ffffffffffffffffffffffffffffffffffffffff021916908373ffffffffffffffffffffffffffffffffffffffff1602179055508073ffffffffffffffffffffffffffffffffffffffff1660808173ffffffffffffffffffffffffffffffffffffffff16815250505062000542565b600080fd5b600073ffffffffffffffffffffffffffffffffffffffff82169050919050565b600062000177826200014a565b9050919050565b62000189816200016a565b81146200019557600080fd5b50565b600081519050620001a9816200017e565b92915050565b600060208284031215620001c857620001c762000145565b5b6000620001d88482850162000198565b91505092915050565b600081519050919050565b7f4e487b7100000000000000000000000000000000000000000000000000000000600052604160045260246000fd5b7f4e487b7100000000000000000000000000000000000000000000000000000000600052602260045260246000fd5b600060028204905060018216806200026357607f821691505b6020821081036200027957620002786200021b565b5b50919050565b60008190508160005260206000209050919050565b60006020601f8301049050919050565b600082821b905092915050565b600060088302620002e37fffffffffffffffffffffffffffffffffffffffffffffffffffffffffffffffff82620002a4565b620002ef8683620002a4565b95508019841693508086168417925050509392505050565b6000819050919050565b6000819050919050565b60006200033c62000336620003308462000307565b62000311565b62000307565b9050919050565b6000819050919050565b62000358836200031b565b62000370620003678262000343565b848454620002b1565b825550505050565b600090565b6200038762000378565b620003948184846200034d565b505050565b5b81811015620003bc57620003b06000826200037d565b6001810190506200039a565b5050565b601f8211156200040b57620003d5816200027f565b620003e08462000294565b81016020851015620003f0578190505b62000408620003ff8562000294565b83018262000399565b50505b505050565b600082821c905092915050565b6000620004306000198460080262000410565b1980831691505092915050565b60006200044b83836200041d565b9150826002028217905092915050565b6200046682620001e1565b67ffffffffffffffff811115620004825762000481620001ec565b5b6200048e82546200024a565b6200049b828285620003c0565b600060209050601f831160018114620004d35760008415620004be578287015190505b620004ca85826200043d565b8655506200053a565b601f198416620004e3866200027f565b60005b828110156200050d57848901518255600182019150602085019450602081019050620004e6565b868310156200052d578489015162000529601f8916826200041d565b8355505b6001600288020188555050505b505050505050565b6080516149846200057a60003960008181610be001528181610f9f015281816110f401528181611a780152611afc01526149846000f3fe608060405234801561001057600080fd5b50600436106101fb5760003560e01c80636352211e1161011a578063a22cb465116100ad578063c87b56dd1161007c578063c87b56dd146105b4578063e985e9c5146105e4578063eb1ff0df14610614578063efdcd97414610630578063f851a4401461064c576101fb565b8063a22cb46514610542578063a74e63ac1461055e578063b3f006741461057a578063b88d4fde14610598576101fb565b806370a08231116100e957806370a08231146104a857806375829def146104d857806395d89b41146104f4578063984deed314610512576101fb565b80636352211e14610422578063665a11ca146104525780636c19e783146104705780636c66e60e1461048c576101fb565b8063238ac93311610192578063409e220511610161578063409e22051461039657806342842e0e146103cc57806342966c68146103e85780635bf8eddd14610404576101fb565b8063238ac9331461030e57806323b872dd1461032c57806336eacb8a1461034857806338d52e0f14610378576101fb565b8063081812fc116101ce578063081812fc14610288578063095ea7b3146102b857806318160ddd146102d457806320ddf6c4146102f2576101fb565b806301ffc9a7146102005780630317a7ae1461023057806303ff65141461024c57806306fdde031461026a575b600080fd5b61021a60048036038101906102159190613149565b61066a565b6040516102279190613191565b60405180910390f35b61024a600480360381019061024591906131e2565b61074c565b005b61025461081d565b604051610261919061321e565b60405180910390f35b610272610823565b60405161027f91906132c9565b60405180910390f35b6102a2600480360381019061029d91906131e2565b6108b5565b6040516102af919061332c565b60405180910390f35b6102d260048036038101906102cd9190613373565b6108fb565b005b6102dc610a12565b6040516102e9919061321e565b60405180910390f35b61030c600480360381019061030791906131e2565b610a18565b005b610316610b36565b604051610323919061332c565b60405180910390f35b610346600480360381019061034191906133b3565b610b5c565b005b610362600480360381019061035d9190613406565b610bbc565b60405161036f9190613191565b60405180910390f35b610380610bdc565b60405161038d9190613492565b60405180910390f35b6103b060048036038101906103ab91906131e2565b610c72565b6040516103c397969594939291906134e9565b60405180910390f35b6103e660048036038101906103e191906133b3565b610d0c565b005b61040260048036038101906103fd91906131e2565b610d2c565b005b61040c611066565b604051610419919061321e565b60405180910390f35b61043c600480360381019061043791906131e2565b61106c565b604051610449919061332c565b60405180910390f35b61045a6110f2565b6040516104679190613579565b60405180910390f35b61048a60048036038101906104859190613406565b611116565b005b6104a660048036038101906104a191906135c0565b611221565b005b6104c260048036038101906104bd9190613406565b6113f9565b6040516104cf919061321e565b60405180910390f35b6104f260048036038101906104ed9190613406565b6114b0565b005b6104fc6115bb565b60405161050991906132c9565b60405180910390f35b61052c6004803603810190610527919061362c565b61164d565b604051610539919061321e565b60405180910390f35b61055c600480360381019061055791906135c0565b611665565b005b61057860048036038101906105739190613659565b61167b565b005b610582611c3b565b60405161058f919061332c565b60405180910390f35b6105b260048036038101906105ad9190613809565b611c61565b005b6105ce60048036038101906105c991906131e2565b611cc3565b6040516105db91906132c9565b60405180910390f35b6105fe60048036038101906105f9919061388c565b611d2b565b60405161060b9190613191565b60405180910390f35b61062e600480360381019061062991906138cc565b611dbf565b005b61064a60048036038101906106459190613406565b611f0f565b005b61065461201a565b604051610661919061332c565b60405180910390f35b60007f80ac58cd000000000000000000000000000000000000000000000000000000007bffffffffffffffffffffffffffffffffffffffffffffffffffffffff1916827bffffffffffffffffffffffffffffffffffffffffffffffffffffffff1916148061073557507f5b5e139f000000000000000000000000000000000000000000000000000000007bffffffffffffffffffffffffffffffffffffffffffffffffffffffff1916827bffffffffffffffffffffffffffffffffffffffffffffffffffffffff1916145b80610745575061074482612040565b5b9050919050565b600660009054906101000a900473ffffffffffffffffffffffffffffffffffffffff1673ffffffffffffffffffffffffffffffffffffffff163373ffffffffffffffffffffffffffffffffffffffff16146107dc576040517f08c379a00000000000000000000000000000000000000000000000000000000081526004016107d390613958565b60405180910390fd5b80600a819055507f600402539d74115b6f49dd461ae530d9d61af94da449f5d8579b2ca76469d94281604051610812919061321e565b60405180910390a150565b600a5481565b606060008054610832906139a7565b80601f016020809104026020016040519081016040528092919081815260200182805461085e906139a7565b80156108ab5780601f10610880576101008083540402835291602001916108ab565b820191906000526020600020905b81548152906001019060200180831161088e57829003601f168201915b5050505050905090565b60006108c0826120aa565b6004600083815260200190815260200160002060009054906101000a900473ffffffffffffffffffffffffffffffffffffffff169050919050565b60006109068261106c565b90508073ffffffffffffffffffffffffffffffffffffffff168373ffffffffffffffffffffffffffffffffffffffff1603610976576040517f08c379a000000000000000000000000000000000000000000000000000000000815260040161096d90613a4a565b60405180910390fd5b8073ffffffffffffffffffffffffffffffffffffffff166109956120f5565b73ffffffffffffffffffffffffffffffffffffffff1614806109c457506109c3816109be6120f5565b611d2b565b5b610a03576040517f08c379a00000000000000000000000000000000000000000000000000000000081526004016109fa90613adc565b60405180910390fd5b610a0d83836120fd565b505050565b600d5481565b600660009054906101000a900473ffffffffffffffffffffffffffffffffffffffff1673ffffffffffffffffffffffffffffffffffffffff163373ffffffffffffffffffffffffffffffffffffffff1614610aa8576040517f08c379a0000000000000000000000000000000000000000000000000000000008152600401610a9f90613958565b60405180910390fd5b670de0b6b3a7640000600b541115610af5576040517f08c379a0000000000000000000000000000000000000000000000000000000008152600401610aec90613b48565b60405180910390fd5b80600b819055507faba48c82b3b59be546317db9a1a6b7420aa35496ab2c20e34eb3c2419ace36c781604051610b2b919061321e565b60405180910390a150565b600760009054906101000a900473ffffffffffffffffffffffffffffffffffffffff1681565b610b6d610b676120f5565b826121b6565b610bac576040517f08c379a0000000000000000000000000000000000000000000000000000000008152600401610ba390613bda565b60405180910390fd5b610bb783838361224b565b505050565b60086020528060005260406000206000915054906101000a900460ff1681565b60007f000000000000000000000000000000000000000000000000000000000000000073ffffffffffffffffffffffffffffffffffffffff166338d52e0f6040518163ffffffff1660e01b8152600401602060405180830381865afa158015610c49573d6000803e3d6000fd5b505050506040513d601f19601f82011682018060405250810190610c6d9190613c0f565b905090565b600e6020528060005260406000206000915090508060000160009054906101000a900473ffffffffffffffffffffffffffffffffffffffff16908060000160149054906101000a900464ffffffffff16908060000160199054906101000a900460ff16908060010160009054906101000a9004600f0b908060010160109054906101000a9004600f0b908060020154908060030154905087565b610d2783838360405180602001604052806000815250611c61565b505050565b6000600e60008381526020019081526020016000209050428160000160149054906101000a900464ffffffffff1664ffffffffff161115610da2576040517f08c379a0000000000000000000000000000000000000000000000000000000008152600401610d9990613c88565b60405180910390fd5b610dab82612544565b610dea576040517f08c379a0000000000000000000000000000000000000000000000000000000008152600401610de190613cf4565b60405180910390fd5b6000610df58361106c565b9050610e0083612585565b6000610e2f8360000160009054906101000a900473ffffffffffffffffffffffffffffffffffffffff166126d3565b9050808360010160106101000a8154816fffffffffffffffffffffffffffffffff0219169083600f0b6fffffffffffffffffffffffffffffffff16021790555060008360000160199054906101000a900460ff16610eb7578360010160009054906101000a9004600f0b600f0b8460010160109054906101000a9004600f0b600f0b12610ee3565b8360010160009054906101000a9004600f0b600f0b8460010160109054906101000a9004600f0b600f0b135b90508015610f7a57610ef3610bdc565b73ffffffffffffffffffffffffffffffffffffffff1663a9059cbb8486600301546040518363ffffffff1660e01b8152600401610f31929190613d14565b6020604051808303816000875af1158015610f50573d6000803e3d6000fd5b505050506040513d601f19601f82011682018060405250810190610f749190613d52565b50611025565b610f82610bdc565b73ffffffffffffffffffffffffffffffffffffffff1663a9059cbb7f000000000000000000000000000000000000000000000000000000000000000086600301546040518363ffffffff1660e01b8152600401610fe0929190613d14565b6020604051808303816000875af1158015610fff573d6000803e3d6000fd5b505050506040513d601f19601f820116820180604052508101906110239190613d52565b505b847fdaf9b88c84b572819d2c21d88d77f3c238c58c654ddc469f989125e5a0d829108385604051611057929190613d7f565b60405180910390a25050505050565b600b5481565b600080611078836127ad565b9050600073ffffffffffffffffffffffffffffffffffffffff168173ffffffffffffffffffffffffffffffffffffffff16036110e9576040517f08c379a00000000000000000000000000000000000000000000000000000000081526004016110e090613df4565b60405180910390fd5b80915050919050565b7f000000000000000000000000000000000000000000000000000000000000000081565b600660009054906101000a900473ffffffffffffffffffffffffffffffffffffffff1673ffffffffffffffffffffffffffffffffffffffff163373ffffffffffffffffffffffffffffffffffffffff16146111a6576040517f08c379a000000000000000000000000000000000000000000000000000000000815260040161119d90613958565b60405180910390fd5b80600760006101000a81548173ffffffffffffffffffffffffffffffffffffffff021916908373ffffffffffffffffffffffffffffffffffffffff1602179055507fbb10aee7ef5a307b8097c6a7f2892b909ff1736fd24a6a5260640c185f7153b681604051611216919061332c565b60405180910390a150565b600660009054906101000a900473ffffffffffffffffffffffffffffffffffffffff1673ffffffffffffffffffffffffffffffffffffffff163373ffffffffffffffffffffffffffffffffffffffff16146112b1576040517f08c379a00000000000000000000000000000000000000000000000000000000081526004016112a890613958565b60405180910390fd5b60088273ffffffffffffffffffffffffffffffffffffffff1663313ce5676040518163ffffffff1660e01b8152600401602060405180830381865afa1580156112fe573d6000803e3d6000fd5b505050506040513d601f19601f820116820180604052508101906113229190613e4d565b60ff1614611365576040517f08c379a000000000000000000000000000000000000000000000000000000000815260040161135c90613ec6565b60405180910390fd5b80600860008473ffffffffffffffffffffffffffffffffffffffff1673ffffffffffffffffffffffffffffffffffffffff16815260200190815260200160002060006101000a81548160ff0219169083151502179055507f9aaad5d73fc4de1befd3e790b855dfdc6363f068e93abfdf01ad70681d31d0ce82826040516113ed929190613ee6565b60405180910390a15050565b60008073ffffffffffffffffffffffffffffffffffffffff168273ffffffffffffffffffffffffffffffffffffffff1603611469576040517f08c379a000000000000000000000000000000000000000000000000000000000815260040161146090613f81565b60405180910390fd5b600360008373ffffffffffffffffffffffffffffffffffffffff1673ffffffffffffffffffffffffffffffffffffffff168152602001908152602001600020549050919050565b600660009054906101000a900473ffffffffffffffffffffffffffffffffffffffff1673ffffffffffffffffffffffffffffffffffffffff163373ffffffffffffffffffffffffffffffffffffffff1614611540576040517f08c379a000000000000000000000000000000000000000000000000000000000815260040161153790613958565b60405180910390fd5b80600660006101000a81548173ffffffffffffffffffffffffffffffffffffffff021916908373ffffffffffffffffffffffffffffffffffffffff1602179055507f5a272403b402d892977df56625f4164ccaf70ca3863991c43ecfe76a6905b0a1816040516115b0919061332c565b60405180910390a150565b6060600180546115ca906139a7565b80601f01602080910402602001604051908101604052809291908181526020018280546115f6906139a7565b80156116435780601f1061161857610100808354040283529160200191611643565b820191906000526020600020905b81548152906001019060200180831161162657829003601f168201915b5050505050905090565b60096020528060005260406000206000915090505481565b6116776116706120f5565b83836127ea565b5050565b600860008673ffffffffffffffffffffffffffffffffffffffff1673ffffffffffffffffffffffffffffffffffffffff16815260200190815260200160002060009054906101000a900460ff16611707576040517f08c379a00000000000000000000000000000000000000000000000000000000081526004016116fe90613fed565b60405180910390fd5b6000600960008664ffffffffff1664ffffffffff16815260200190815260200160002054905060008103611770576040517f08c379a000000000000000000000000000000000000000000000000000000000815260040161176790614059565b60405180910390fd5b6000670de0b6b3a7640000600b548561178991906140a8565b6117939190614131565b9050600081856117a39190614162565b9050600081116117e8576040517f08c379a00000000000000000000000000000000000000000000000000000000081526004016117df906141e2565b60405180910390fd5b6000670de0b6b3a764000084836117ff91906140a8565b6118099190614131565b90506000600d6000815461181c90614202565b919050819055905061182e8682612956565b60008964ffffffffff1642611843919061424a565b905060006118508c6126d3565b90506040518060e001604052808d73ffffffffffffffffffffffffffffffffffffffff1681526020018364ffffffffff1681526020018b1515815260200182600f0b81526020016000600f0b815260200186815260200185815250600e600085815260200190815260200160002060008201518160000160006101000a81548173ffffffffffffffffffffffffffffffffffffffff021916908373ffffffffffffffffffffffffffffffffffffffff16021790555060208201518160000160146101000a81548164ffffffffff021916908364ffffffffff16021790555060408201518160000160196101000a81548160ff02191690831515021790555060608201518160010160006101000a8154816fffffffffffffffffffffffffffffffff0219169083600f0b6fffffffffffffffffffffffffffffffff16021790555060808201518160010160106101000a8154816fffffffffffffffffffffffffffffffff0219169083600f0b6fffffffffffffffffffffffffffffffff16021790555060a0820151816002015560c082015181600301559050508b73ffffffffffffffffffffffffffffffffffffffff16837f11c57561ecc5e841e791bcc216d01047adcdaaa91a8e99eb594e07154d9ae5f18d64ffffffffff1642611a35919061424a565b8d858e8a604051611a4a95949392919061427e565b60405180910390a3611a5a610bdc565b73ffffffffffffffffffffffffffffffffffffffff166323b872dd337f0000000000000000000000000000000000000000000000000000000000000000886040518463ffffffff1660e01b8152600401611ab6939291906142d1565b6020604051808303816000875af1158015611ad5573d6000803e3d6000fd5b505050506040513d601f19601f82011682018060405250810190611af99190613d52565b507f000000000000000000000000000000000000000000000000000000000000000073ffffffffffffffffffffffffffffffffffffffff1663f0dd71c7856040518263ffffffff1660e01b8152600401611b53919061321e565b600060405180830381600087803b158015611b6d57600080fd5b505af1158015611b81573d6000803e3d6000fd5b50505050611b8d610bdc565b73ffffffffffffffffffffffffffffffffffffffff1663a9059cbb600c60009054906101000a900473ffffffffffffffffffffffffffffffffffffffff16886040518363ffffffff1660e01b8152600401611be9929190613d14565b6020604051808303816000875af1158015611c08573d6000803e3d6000fd5b505050506040513d601f19601f82011682018060405250810190611c2c9190613d52565b50505050505050505050505050565b600c60009054906101000a900473ffffffffffffffffffffffffffffffffffffffff1681565b611c72611c6c6120f5565b836121b6565b611cb1576040517f08c379a0000000000000000000000000000000000000000000000000000000008152600401611ca890613bda565b60405180910390fd5b611cbd84848484612b73565b50505050565b6060611cce826120aa565b6000611cd8612bcf565b90506000815111611cf85760405180602001604052806000815250611d23565b80611d0284612be6565b604051602001611d13929190614344565b6040516020818303038152906040525b915050919050565b6000600560008473ffffffffffffffffffffffffffffffffffffffff1673ffffffffffffffffffffffffffffffffffffffff16815260200190815260200160002060008373ffffffffffffffffffffffffffffffffffffffff1673ffffffffffffffffffffffffffffffffffffffff16815260200190815260200160002060009054906101000a900460ff16905092915050565b600660009054906101000a900473ffffffffffffffffffffffffffffffffffffffff1673ffffffffffffffffffffffffffffffffffffffff163373ffffffffffffffffffffffffffffffffffffffff1614611e4f576040517f08c379a0000000000000000000000000000000000000000000000000000000008152600401611e4690613958565b60405180910390fd5b671bc16d674ec8000081108015611e6d5750670de0b6b3a764000081115b611eac576040517f08c379a0000000000000000000000000000000000000000000000000000000008152600401611ea3906143b4565b60405180910390fd5b80600960008464ffffffffff1664ffffffffff168152602001908152602001600020819055507f291a9ec07d4ee8d4bf55f7d6d64f224f8e7215fb48be87f176fd103c156959e68282604051611f039291906143d4565b60405180910390a15050565b600660009054906101000a900473ffffffffffffffffffffffffffffffffffffffff1673ffffffffffffffffffffffffffffffffffffffff163373ffffffffffffffffffffffffffffffffffffffff1614611f9f576040517f08c379a0000000000000000000000000000000000000000000000000000000008152600401611f9690613958565b60405180910390fd5b80600c60006101000a81548173ffffffffffffffffffffffffffffffffffffffff021916908373ffffffffffffffffffffffffffffffffffffffff1602179055507fffb40bfdfd246e95f543d08d9713c339f1d90fa9265e39b4f562f9011d7c919f8160405161200f919061332c565b60405180910390a150565b600660009054906101000a900473ffffffffffffffffffffffffffffffffffffffff1681565b60007f01ffc9a7000000000000000000000000000000000000000000000000000000007bffffffffffffffffffffffffffffffffffffffffffffffffffffffff1916827bffffffffffffffffffffffffffffffffffffffffffffffffffffffff1916149050919050565b6120b381612544565b6120f2576040517f08c379a00000000000000000000000000000000000000000000000000000000081526004016120e990613df4565b60405180910390fd5b50565b600033905090565b816004600083815260200190815260200160002060006101000a81548173ffffffffffffffffffffffffffffffffffffffff021916908373ffffffffffffffffffffffffffffffffffffffff160217905550808273ffffffffffffffffffffffffffffffffffffffff166121708361106c565b73ffffffffffffffffffffffffffffffffffffffff167f8c5be1e5ebec7d5bd14f71427d1e84f3dd0314c0f7b2291e5b200ac8c7c3b92560405160405180910390a45050565b6000806121c28361106c565b90508073ffffffffffffffffffffffffffffffffffffffff168473ffffffffffffffffffffffffffffffffffffffff16148061220457506122038185611d2b565b5b8061224257508373ffffffffffffffffffffffffffffffffffffffff1661222a846108b5565b73ffffffffffffffffffffffffffffffffffffffff16145b91505092915050565b8273ffffffffffffffffffffffffffffffffffffffff1661226b8261106c565b73ffffffffffffffffffffffffffffffffffffffff16146122c1576040517f08c379a00000000000000000000000000000000000000000000000000000000081526004016122b89061446f565b60405180910390fd5b600073ffffffffffffffffffffffffffffffffffffffff168273ffffffffffffffffffffffffffffffffffffffff1603612330576040517f08c379a000000000000000000000000000000000000000000000000000000000815260040161232790614501565b60405180910390fd5b61233d8383836001612cb4565b8273ffffffffffffffffffffffffffffffffffffffff1661235d8261106c565b73ffffffffffffffffffffffffffffffffffffffff16146123b3576040517f08c379a00000000000000000000000000000000000000000000000000000000081526004016123aa9061446f565b60405180910390fd5b6004600082815260200190815260200160002060006101000a81549073ffffffffffffffffffffffffffffffffffffffff02191690556001600360008573ffffffffffffffffffffffffffffffffffffffff1673ffffffffffffffffffffffffffffffffffffffff168152602001908152602001600020600082825403925050819055506001600360008473ffffffffffffffffffffffffffffffffffffffff1673ffffffffffffffffffffffffffffffffffffffff16815260200190815260200160002060008282540192505081905550816002600083815260200190815260200160002060006101000a81548173ffffffffffffffffffffffffffffffffffffffff021916908373ffffffffffffffffffffffffffffffffffffffff160217905550808273ffffffffffffffffffffffffffffffffffffffff168473ffffffffffffffffffffffffffffffffffffffff167fddf252ad1be2c89b69c2b068fc378daa952ba7f163c4a11628f55a4df523b3ef60405160405180910390a461253f8383836001612dda565b505050565b60008073ffffffffffffffffffffffffffffffffffffffff16612566836127ad565b73ffffffffffffffffffffffffffffffffffffffff1614159050919050565b60006125908261106c565b90506125a0816000846001612cb4565b6125a98261106c565b90506004600083815260200190815260200160002060006101000a81549073ffffffffffffffffffffffffffffffffffffffff02191690556001600360008373ffffffffffffffffffffffffffffffffffffffff1673ffffffffffffffffffffffffffffffffffffffff168152602001908152602001600020600082825403925050819055506002600083815260200190815260200160002060006101000a81549073ffffffffffffffffffffffffffffffffffffffff021916905581600073ffffffffffffffffffffffffffffffffffffffff168273ffffffffffffffffffffffffffffffffffffffff167fddf252ad1be2c89b69c2b068fc378daa952ba7f163c4a11628f55a4df523b3ef60405160405180910390a46126cf816000846001612dda565b5050565b6000808290506000808273ffffffffffffffffffffffffffffffffffffffff1663feaf968c6040518163ffffffff1660e01b815260040160a060405180830381865afa158015612727573d6000803e3d6000fd5b505050506040513d601f19601f8201168201806040525081019061274b91906145ae565b50935050925050600a5481612760919061424a565b4211156127a2576040517f08c379a000000000000000000000000000000000000000000000000000000000815260040161279990614675565b60405180910390fd5b819350505050919050565b60006002600083815260200190815260200160002060009054906101000a900473ffffffffffffffffffffffffffffffffffffffff169050919050565b8173ffffffffffffffffffffffffffffffffffffffff168373ffffffffffffffffffffffffffffffffffffffff1603612858576040517f08c379a000000000000000000000000000000000000000000000000000000000815260040161284f906146e1565b60405180910390fd5b80600560008573ffffffffffffffffffffffffffffffffffffffff1673ffffffffffffffffffffffffffffffffffffffff16815260200190815260200160002060008473ffffffffffffffffffffffffffffffffffffffff1673ffffffffffffffffffffffffffffffffffffffff16815260200190815260200160002060006101000a81548160ff0219169083151502179055508173ffffffffffffffffffffffffffffffffffffffff168373ffffffffffffffffffffffffffffffffffffffff167f17307eab39ab6107e8899845ad3d59bd9653f200f220920489ca2b5937696c31836040516129499190613191565b60405180910390a3505050565b600073ffffffffffffffffffffffffffffffffffffffff168273ffffffffffffffffffffffffffffffffffffffff16036129c5576040517f08c379a00000000000000000000000000000000000000000000000000000000081526004016129bc9061474d565b60405180910390fd5b6129ce81612544565b15612a0e576040517f08c379a0000000000000000000000000000000000000000000000000000000008152600401612a05906147b9565b60405180910390fd5b612a1c600083836001612cb4565b612a2581612544565b15612a65576040517f08c379a0000000000000000000000000000000000000000000000000000000008152600401612a5c906147b9565b60405180910390fd5b6001600360008473ffffffffffffffffffffffffffffffffffffffff1673ffffffffffffffffffffffffffffffffffffffff16815260200190815260200160002060008282540192505081905550816002600083815260200190815260200160002060006101000a81548173ffffffffffffffffffffffffffffffffffffffff021916908373ffffffffffffffffffffffffffffffffffffffff160217905550808273ffffffffffffffffffffffffffffffffffffffff16600073ffffffffffffffffffffffffffffffffffffffff167fddf252ad1be2c89b69c2b068fc378daa952ba7f163c4a11628f55a4df523b3ef60405160405180910390a4612b6f600083836001612dda565b5050565b612b7e84848461224b565b612b8a84848484612de0565b612bc9576040517f08c379a0000000000000000000000000000000000000000000000000000000008152600401612bc09061484b565b60405180910390fd5b50505050565b606060405180602001604052806000815250905090565b606060006001612bf584612f67565b01905060008167ffffffffffffffff811115612c1457612c136136de565b5b6040519080825280601f01601f191660200182016040528015612c465781602001600182028036833780820191505090505b509050600082602001820190505b600115612ca9578080600190039150507f3031323334353637383961626364656600000000000000000000000000000000600a86061a8153600a8581612c9d57612c9c614102565b5b04945060008503612c54575b819350505050919050565b6001811115612dd457600073ffffffffffffffffffffffffffffffffffffffff168473ffffffffffffffffffffffffffffffffffffffff1614612d485780600360008673ffffffffffffffffffffffffffffffffffffffff1673ffffffffffffffffffffffffffffffffffffffff1681526020019081526020016000206000828254612d409190614162565b925050819055505b600073ffffffffffffffffffffffffffffffffffffffff168373ffffffffffffffffffffffffffffffffffffffff1614612dd35780600360008573ffffffffffffffffffffffffffffffffffffffff1673ffffffffffffffffffffffffffffffffffffffff1681526020019081526020016000206000828254612dcb919061424a565b925050819055505b5b50505050565b50505050565b6000612e018473ffffffffffffffffffffffffffffffffffffffff166130ba565b15612f5a578373ffffffffffffffffffffffffffffffffffffffff1663150b7a02612e2a6120f5565b8786866040518563ffffffff1660e01b8152600401612e4c94939291906148c0565b6020604051808303816000875af1925050508015612e8857506040513d601f19601f82011682018060405250810190612e859190614921565b60015b612f0a573d8060008114612eb8576040519150601f19603f3d011682016040523d82523d6000602084013e612ebd565b606091505b506000815103612f02576040517f08c379a0000000000000000000000000000000000000000000000000000000008152600401612ef99061484b565b60405180910390fd5b805181602001fd5b63150b7a0260e01b7bffffffffffffffffffffffffffffffffffffffffffffffffffffffff1916817bffffffffffffffffffffffffffffffffffffffffffffffffffffffff191614915050612f5f565b600190505b949350505050565b600080600090507a184f03e93ff9f4daa797ed6e38ed64bf6a1f0100000000000000008310612fc5577a184f03e93ff9f4daa797ed6e38ed64bf6a1f0100000000000000008381612fbb57612fba614102565b5b0492506040810190505b6d04ee2d6d415b85acef81000000008310613002576d04ee2d6d415b85acef81000000008381612ff857612ff7614102565b5b0492506020810190505b662386f26fc10000831061303157662386f26fc10000838161302757613026614102565b5b0492506010810190505b6305f5e100831061305a576305f5e10083816130505761304f614102565b5b0492506008810190505b612710831061307f57612710838161307557613074614102565b5b0492506004810190505b606483106130a2576064838161309857613097614102565b5b0492506002810190505b600a83106130b1576001810190505b80915050919050565b6000808273ffffffffffffffffffffffffffffffffffffffff163b119050919050565b6000604051905090565b600080fd5b600080fd5b60007fffffffff0000000000000000000000000000000000000000000000000000000082169050919050565b613126816130f1565b811461313157600080fd5b50565b6000813590506131438161311d565b92915050565b60006020828403121561315f5761315e6130e7565b5b600061316d84828501613134565b91505092915050565b60008115159050919050565b61318b81613176565b82525050565b60006020820190506131a66000830184613182565b92915050565b6000819050919050565b6131bf816131ac565b81146131ca57600080fd5b50565b6000813590506131dc816131b6565b92915050565b6000602082840312156131f8576131f76130e7565b5b6000613206848285016131cd565b91505092915050565b613218816131ac565b82525050565b6000602082019050613233600083018461320f565b92915050565b600081519050919050565b600082825260208201905092915050565b60005b83811015613273578082015181840152602081019050613258565b60008484015250505050565b6000601f19601f8301169050919050565b600061329b82613239565b6132a58185613244565b93506132b5818560208601613255565b6132be8161327f565b840191505092915050565b600060208201905081810360008301526132e38184613290565b905092915050565b600073ffffffffffffffffffffffffffffffffffffffff82169050919050565b6000613316826132eb565b9050919050565b6133268161330b565b82525050565b6000602082019050613341600083018461331d565b92915050565b6133508161330b565b811461335b57600080fd5b50565b60008135905061336d81613347565b92915050565b6000806040838503121561338a576133896130e7565b5b60006133988582860161335e565b92505060206133a9858286016131cd565b9150509250929050565b6000806000606084860312156133cc576133cb6130e7565b5b60006133da8682870161335e565b93505060206133eb8682870161335e565b92505060406133fc868287016131cd565b9150509250925092565b60006020828403121561341c5761341b6130e7565b5b600061342a8482850161335e565b91505092915050565b6000819050919050565b600061345861345361344e846132eb565b613433565b6132eb565b9050919050565b600061346a8261343d565b9050919050565b600061347c8261345f565b9050919050565b61348c81613471565b82525050565b60006020820190506134a76000830184613483565b92915050565b600064ffffffffff82169050919050565b6134c7816134ad565b82525050565b600081600f0b9050919050565b6134e3816134cd565b82525050565b600060e0820190506134fe600083018a61331d565b61350b60208301896134be565b6135186040830188613182565b61352560608301876134da565b61353260808301866134da565b61353f60a083018561320f565b61354c60c083018461320f565b98975050505050505050565b60006135638261345f565b9050919050565b61357381613558565b82525050565b600060208201905061358e600083018461356a565b92915050565b61359d81613176565b81146135a857600080fd5b50565b6000813590506135ba81613594565b92915050565b600080604083850312156135d7576135d66130e7565b5b60006135e58582860161335e565b92505060206135f6858286016135ab565b9150509250929050565b613609816134ad565b811461361457600080fd5b50565b60008135905061362681613600565b92915050565b600060208284031215613642576136416130e7565b5b600061365084828501613617565b91505092915050565b600080600080600060a08688031215613675576136746130e7565b5b60006136838882890161335e565b955050602061369488828901613617565b94505060406136a5888289016135ab565b93505060606136b6888289016131cd565b92505060806136c78882890161335e565b9150509295509295909350565b600080fd5b600080fd5b7f4e487b7100000000000000000000000000000000000000000000000000000000600052604160045260246000fd5b6137168261327f565b810181811067ffffffffffffffff82111715613735576137346136de565b5b80604052505050565b60006137486130dd565b9050613754828261370d565b919050565b600067ffffffffffffffff821115613774576137736136de565b5b61377d8261327f565b9050602081019050919050565b82818337600083830152505050565b60006137ac6137a784613759565b61373e565b9050828152602081018484840111156137c8576137c76136d9565b5b6137d384828561378a565b509392505050565b600082601f8301126137f0576137ef6136d4565b5b8135613800848260208601613799565b91505092915050565b60008060008060808587031215613823576138226130e7565b5b60006138318782880161335e565b94505060206138428782880161335e565b9350506040613853878288016131cd565b925050606085013567ffffffffffffffff811115613874576138736130ec565b5b613880878288016137db565b91505092959194509250565b600080604083850312156138a3576138a26130e7565b5b60006138b18582860161335e565b92505060206138c28582860161335e565b9150509250929050565b600080604083850312156138e3576138e26130e7565b5b60006138f185828601613617565b9250506020613902858286016131cd565b9150509250929050565b7f556e617574686f72697a65642063616c6c657200000000000000000000000000600082015250565b6000613942601383613244565b915061394d8261390c565b602082019050919050565b6000602082019050818103600083015261397181613935565b9050919050565b7f4e487b7100000000000000000000000000000000000000000000000000000000600052602260045260246000fd5b600060028204905060018216806139bf57607f821691505b6020821081036139d2576139d1613978565b5b50919050565b7f4552433732313a20617070726f76616c20746f2063757272656e74206f776e6560008201527f7200000000000000000000000000000000000000000000000000000000000000602082015250565b6000613a34602183613244565b9150613a3f826139d8565b604082019050919050565b60006020820190508181036000830152613a6381613a27565b9050919050565b7f4552433732313a20617070726f76652063616c6c6572206973206e6f7420746f60008201527f6b656e206f776e6572206f7220617070726f76656420666f7220616c6c000000602082015250565b6000613ac6603d83613244565b9150613ad182613a6a565b604082019050919050565b60006020820190508181036000830152613af581613ab9565b9050919050565b7f496e76616c696420666565206672616374696f6e000000000000000000000000600082015250565b6000613b32601483613244565b9150613b3d82613afc565b602082019050919050565b60006020820190508181036000830152613b6181613b25565b9050919050565b7f4552433732313a2063616c6c6572206973206e6f7420746f6b656e206f776e6560008201527f72206f7220617070726f76656400000000000000000000000000000000000000602082015250565b6000613bc4602d83613244565b9150613bcf82613b68565b604082019050919050565b60006020820190508181036000830152613bf381613bb7565b9050919050565b600081519050613c0981613347565b92915050565b600060208284031215613c2557613c246130e7565b5b6000613c3384828501613bfa565b91505092915050565b7f4f7074696f6e20686173206e6f74206578706972656400000000000000000000600082015250565b6000613c72601683613244565b9150613c7d82613c3c565b602082019050919050565b60006020820190508181036000830152613ca181613c65565b9050919050565b7f4f7074696f6e206275726e742f646f6573206e6f742065786973740000000000600082015250565b6000613cde601b83613244565b9150613ce982613ca8565b602082019050919050565b60006020820190508181036000830152613d0d81613cd1565b9050919050565b6000604082019050613d29600083018561331d565b613d36602083018461320f565b9392505050565b600081519050613d4c81613594565b92915050565b600060208284031215613d6857613d676130e7565b5b6000613d7684828501613d3d565b91505092915050565b6000604082019050613d9460008301856134da565b613da1602083018461331d565b9392505050565b7f4552433732313a20696e76616c696420746f6b656e2049440000000000000000600082015250565b6000613dde601883613244565b9150613de982613da8565b602082019050919050565b60006020820190508181036000830152613e0d81613dd1565b9050919050565b600060ff82169050919050565b613e2a81613e14565b8114613e3557600080fd5b50565b600081519050613e4781613e21565b92915050565b600060208284031215613e6357613e626130e7565b5b6000613e7184828501613e38565b91505092915050565b7f496e76616c696420646563696d616c7300000000000000000000000000000000600082015250565b6000613eb0601083613244565b9150613ebb82613e7a565b602082019050919050565b60006020820190508181036000830152613edf81613ea3565b9050919050565b6000604082019050613efb600083018561331d565b613f086020830184613182565b9392505050565b7f4552433732313a2061646472657373207a65726f206973206e6f74206120766160008201527f6c6964206f776e65720000000000000000000000000000000000000000000000602082015250565b6000613f6b602983613244565b9150613f7682613f0f565b604082019050919050565b60006020820190508181036000830152613f9a81613f5e565b9050919050565b7f41676772656761746f72206e6f7420656e61626c656400000000000000000000600082015250565b6000613fd7601683613244565b9150613fe282613fa1565b602082019050919050565b6000602082019050818103600083015261400681613fca565b9050919050565b7f4475726174696f6e206e6f7420656e61626c6564000000000000000000000000600082015250565b6000614043601483613244565b915061404e8261400d565b602082019050919050565b6000602082019050818103600083015261407281614036565b9050919050565b7f4e487b7100000000000000000000000000000000000000000000000000000000600052601160045260246000fd5b60006140b3826131ac565b91506140be836131ac565b9250817fffffffffffffffffffffffffffffffffffffffffffffffffffffffffffffffff04831182151516156140f7576140f6614079565b5b828202905092915050565b7f4e487b7100000000000000000000000000000000000000000000000000000000600052601260045260246000fd5b600061413c826131ac565b9150614147836131ac565b92508261415757614156614102565b5b828204905092915050565b600061416d826131ac565b9150614178836131ac565b92508282039050818111156141905761418f614079565b5b92915050565b7f4465706f7369742061667465722066656573206973207a65726f000000000000600082015250565b60006141cc601a83613244565b91506141d782614196565b602082019050919050565b600060208201905081810360008301526141fb816141bf565b9050919050565b600061420d826131ac565b91507fffffffffffffffffffffffffffffffffffffffffffffffffffffffffffffffff820361423f5761423e614079565b5b600182019050919050565b6000614255826131ac565b9150614260836131ac565b925082820190508082111561427857614277614079565b5b92915050565b600060a08201905061429360008301886134be565b6142a06020830187613182565b6142ad60408301866134da565b6142ba606083018561320f565b6142c7608083018461320f565b9695505050505050565b60006060820190506142e6600083018661331d565b6142f3602083018561331d565b614300604083018461320f565b949350505050565b600081905092915050565b600061431e82613239565b6143288185614308565b9350614338818560208601613255565b80840191505092915050565b60006143508285614313565b915061435c8284614313565b91508190509392505050565b7f496e76616c6964207061796f7574206d756c7469706c69657200000000000000600082015250565b600061439e601983613244565b91506143a982614368565b602082019050919050565b600060208201905081810360008301526143cd81614391565b9050919050565b60006040820190506143e960008301856134be565b6143f6602083018461320f565b9392505050565b7f4552433732313a207472616e736665722066726f6d20696e636f72726563742060008201527f6f776e6572000000000000000000000000000000000000000000000000000000602082015250565b6000614459602583613244565b9150614464826143fd565b604082019050919050565b600060208201905081810360008301526144888161444c565b9050919050565b7f4552433732313a207472616e7366657220746f20746865207a65726f2061646460008201527f7265737300000000000000000000000000000000000000000000000000000000602082015250565b60006144eb602483613244565b91506144f68261448f565b604082019050919050565b6000602082019050818103600083015261451a816144de565b9050919050565b600069ffffffffffffffffffff82169050919050565b61454081614521565b811461454b57600080fd5b50565b60008151905061455d81614537565b92915050565b6000819050919050565b61457681614563565b811461458157600080fd5b50565b6000815190506145938161456d565b92915050565b6000815190506145a8816131b6565b92915050565b600080600080600060a086880312156145ca576145c96130e7565b5b60006145d88882890161454e565b95505060206145e988828901614584565b94505060406145fa88828901614599565b935050606061460b88828901614599565b925050608061461c8882890161454e565b9150509295509295909350565b7f507269636520746f6f206f6c6400000000000000000000000000000000000000600082015250565b600061465f600d83613244565b915061466a82614629565b602082019050919050565b6000602082019050818103600083015261468e81614652565b9050919050565b7f4552433732313a20617070726f766520746f2063616c6c657200000000000000600082015250565b60006146cb601983613244565b91506146d682614695565b602082019050919050565b600060208201905081810360008301526146fa816146be565b9050919050565b7f4552433732313a206d696e7420746f20746865207a65726f2061646472657373600082015250565b6000614737602083613244565b915061474282614701565b602082019050919050565b600060208201905081810360008301526147668161472a565b9050919050565b7f4552433732313a20746f6b656e20616c7265616479206d696e74656400000000600082015250565b60006147a3601c83613244565b91506147ae8261476d565b602082019050919050565b600060208201905081810360008301526147d281614796565b9050919050565b7f4552433732313a207472616e7366657220746f206e6f6e20455243373231526560008201527f63656976657220696d706c656d656e7465720000000000000000000000000000602082015250565b6000614835603283613244565b9150614840826147d9565b604082019050919050565b6000602082019050818103600083015261486481614828565b9050919050565b600081519050919050565b600082825260208201905092915050565b60006148928261486b565b61489c8185614876565b93506148ac818560208601613255565b6148b58161327f565b840191505092915050565b60006080820190506148d5600083018761331d565b6148e2602083018661331d565b6148ef604083018561320f565b81810360608301526149018184614887565b905095945050505050565b60008151905061491b8161311d565b92915050565b600060208284031215614937576149366130e7565b5b60006149458482850161490c565b9150509291505056fea2646970667358221220b904331c2d80a7debaedfdb8ae98bbb533a7a0fa0c48db14f24eda86ff137a4664736f6c63430008100033",
  "linkReferences": {},
  "deployedLinkReferences": {}
}