{
  "_format": "hh-sol-artifact-1",
  "contractName": "Router",
  "sourceName": "contracts/Router.sol",
  "abi": [
    {
      "inputs": [
        {
          "internalType": "address",
          "name": "market_",
          "type": "address"
        }
      ],
      "stateMutability": "nonpayable",
      "type": "constructor"
    },
    {
      "inputs": [
        {
          "internalType": "bytes",
          "name": "aggregatorParams",
          "type": "bytes"
        }
      ],
      "name": "decodeAndUpdateAggregators",
      "outputs": [],
      "stateMutability": "nonpayable",
      "type": "function"
    },
    {
      "inputs": [],
      "name": "market",
      "outputs": [
        {
          "internalType": "contract Market",
          "name": "",
          "type": "address"
        }
      ],
      "stateMutability": "view",
      "type": "function"
    },
    {
      "inputs": [
        {
          "internalType": "bytes",
          "name": "aggregatorParams",
          "type": "bytes"
        },
        {
          "internalType": "uint256[]",
          "name": "ids",
          "type": "uint256[]"
        }
      ],
      "name": "updateAggregatorsAndClose",
      "outputs": [],
      "stateMutability": "nonpayable",
      "type": "function"
    },
    {
      "inputs": [
        {
          "internalType": "bytes",
          "name": "aggregatorParams",
          "type": "bytes"
        },
        {
          "internalType": "bytes",
          "name": "openParams",
          "type": "bytes"
        }
      ],
      "name": "updateAggregatorsAndOpen",
      "outputs": [],
      "stateMutability": "nonpayable",
      "type": "function"
    }
  ],
  "bytecode": "0x60a06040523480156200001157600080fd5b50604051620018ee380380620018ee8339818101604052810190620000379190620001f3565b8073ffffffffffffffffffffffffffffffffffffffff1660808173ffffffffffffffffffffffffffffffffffffffff168152505060805173ffffffffffffffffffffffffffffffffffffffff166338d52e0f6040518163ffffffff1660e01b8152600401602060405180830381865afa158015620000b9573d6000803e3d6000fd5b505050506040513d601f19601f82011682018060405250810190620000df91906200026a565b73ffffffffffffffffffffffffffffffffffffffff1663095ea7b3827fffffffffffffffffffffffffffffffffffffffffffffffffffffffffffffffff6040518363ffffffff1660e01b81526004016200013b929190620002c8565b6020604051808303816000875af11580156200015b573d6000803e3d6000fd5b505050506040513d601f19601f8201168201806040525081019062000181919062000332565b505062000364565b600080fd5b600073ffffffffffffffffffffffffffffffffffffffff82169050919050565b6000620001bb826200018e565b9050919050565b620001cd81620001ae565b8114620001d957600080fd5b50565b600081519050620001ed81620001c2565b92915050565b6000602082840312156200020c576200020b62000189565b5b60006200021c84828501620001dc565b91505092915050565b60006200023282620001ae565b9050919050565b620002448162000225565b81146200025057600080fd5b50565b600081519050620002648162000239565b92915050565b60006020828403121562000283576200028262000189565b5b6000620002938482850162000253565b91505092915050565b620002a781620001ae565b82525050565b6000819050919050565b620002c281620002ad565b82525050565b6000604082019050620002df60008301856200029c565b620002ee6020830184620002b7565b9392505050565b60008115159050919050565b6200030c81620002f5565b81146200031857600080fd5b50565b6000815190506200032c8162000301565b92915050565b6000602082840312156200034b576200034a62000189565b5b60006200035b848285016200031b565b91505092915050565b60805161155a620003946000396000818160dd0152818161019b015281816104640152610573015261155a6000f3fe608060405234801561001057600080fd5b506004361061004c5760003560e01c80630a50ab2a1461005157806380f556051461006d57806381f264891461008b578063b6c52b66146100a7575b600080fd5b61006b600480360381019061006691906106db565b6100c3565b005b610075610199565b60405161008291906107db565b60405180910390f35b6100a560048036038101906100a091906107f6565b6101bd565b005b6100c160048036038101906100bc9190610877565b6101d7565b005b6100cd84846101d7565b60005b82829050811015610192577f000000000000000000000000000000000000000000000000000000000000000073ffffffffffffffffffffffffffffffffffffffff166342966c6884848481811061012a576101296108c4565b5b905060200201356040518263ffffffff1660e01b815260040161014d919061090c565b600060405180830381600087803b15801561016757600080fd5b505af115801561017b573d6000803e3d6000fd5b50505050808061018a90610956565b9150506100d0565b5050505050565b7f000000000000000000000000000000000000000000000000000000000000000081565b6101c784846101d7565b6101d18282610445565b50505050565b60008060008060008087878101906101ef9190610fa4565b9550955095509550955095508451865114801561020d575083518551145b801561021a575082518451145b8015610227575081518351145b610266576040517f08c379a000000000000000000000000000000000000000000000000000000000815260040161025d90611136565b60405180910390fd5b60005b865181101561043a576000878281518110610287576102866108c4565b5b6020026020010151905060008173ffffffffffffffffffffffffffffffffffffffff166376027c348a85815181106102c2576102c16108c4565b5b60200260200101518a86815181106102dd576102dc6108c4565b5b60200260200101518a87815181106102f8576102f76108c4565b5b60200260200101518a8881518110610313576103126108c4565b5b60200260200101516040518563ffffffff1660e01b815260040161033a94939291906111f3565b6020604051808303816000875af1158015610359573d6000803e3d6000fd5b505050506040513d601f19601f8201168201806040525081019061037d9190611254565b90506000848481518110610394576103936108c4565b5b60200260200101516103c3578584815181106103b3576103b26108c4565b5b60200260200101518212156103e2565b8584815181106103d6576103d56108c4565b5b60200260200101518213155b905080610424576040517f08c379a000000000000000000000000000000000000000000000000000000000815260040161041b906112cd565b60405180910390fd5b505050808061043290610956565b915050610269565b505050505050505050565b600080600080858581019061045a9190611368565b93509350935093507f000000000000000000000000000000000000000000000000000000000000000073ffffffffffffffffffffffffffffffffffffffff166338d52e0f6040518163ffffffff1660e01b8152600401602060405180830381865afa1580156104cd573d6000803e3d6000fd5b505050506040513d601f19601f820116820180604052508101906104f1919061140d565b73ffffffffffffffffffffffffffffffffffffffff166323b872dd3330846040518463ffffffff1660e01b815260040161052d9392919061143a565b6020604051808303816000875af115801561054c573d6000803e3d6000fd5b505050506040513d601f19601f820116820180604052508101906105709190611486565b507f000000000000000000000000000000000000000000000000000000000000000073ffffffffffffffffffffffffffffffffffffffff1663a74e63ac85858585336040518663ffffffff1660e01b81526004016105d29594939291906114d1565b600060405180830381600087803b1580156105ec57600080fd5b505af1158015610600573d6000803e3d6000fd5b50505050505050505050565b6000604051905090565b600080fd5b600080fd5b600080fd5b600080fd5b600080fd5b60008083601f84011261064557610644610620565b5b8235905067ffffffffffffffff81111561066257610661610625565b5b60208301915083600182028301111561067e5761067d61062a565b5b9250929050565b60008083601f84011261069b5761069a610620565b5b8235905067ffffffffffffffff8111156106b8576106b7610625565b5b6020830191508360208202830111156106d4576106d361062a565b5b9250929050565b600080600080604085870312156106f5576106f4610616565b5b600085013567ffffffffffffffff8111156107135761071261061b565b5b61071f8782880161062f565b9450945050602085013567ffffffffffffffff8111156107425761074161061b565b5b61074e87828801610685565b925092505092959194509250565b600073ffffffffffffffffffffffffffffffffffffffff82169050919050565b6000819050919050565b60006107a161079c6107978461075c565b61077c565b61075c565b9050919050565b60006107b382610786565b9050919050565b60006107c5826107a8565b9050919050565b6107d5816107ba565b82525050565b60006020820190506107f060008301846107cc565b92915050565b600080600080604085870312156108105761080f610616565b5b600085013567ffffffffffffffff81111561082e5761082d61061b565b5b61083a8782880161062f565b9450945050602085013567ffffffffffffffff81111561085d5761085c61061b565b5b6108698782880161062f565b925092505092959194509250565b6000806020838503121561088e5761088d610616565b5b600083013567ffffffffffffffff8111156108ac576108ab61061b565b5b6108b88582860161062f565b92509250509250929050565b7f4e487b7100000000000000000000000000000000000000000000000000000000600052603260045260246000fd5b6000819050919050565b610906816108f3565b82525050565b600060208201905061092160008301846108fd565b92915050565b7f4e487b7100000000000000000000000000000000000000000000000000000000600052601160045260246000fd5b6000610961826108f3565b91507fffffffffffffffffffffffffffffffffffffffffffffffffffffffffffffffff820361099357610992610927565b5b600182019050919050565b6000601f19601f8301169050919050565b7f4e487b7100000000000000000000000000000000000000000000000000000000600052604160045260246000fd5b6109e78261099e565b810181811067ffffffffffffffff82111715610a0657610a056109af565b5b80604052505050565b6000610a1961060c565b9050610a2582826109de565b919050565b600067ffffffffffffffff821115610a4557610a446109af565b5b602082029050602081019050919050565b6000610a618261075c565b9050919050565b610a7181610a56565b8114610a7c57600080fd5b50565b600081359050610a8e81610a68565b92915050565b6000610aa7610aa284610a2a565b610a0f565b90508083825260208201905060208402830185811115610aca57610ac961062a565b5b835b81811015610af35780610adf8882610a7f565b845260208401935050602081019050610acc565b5050509392505050565b600082601f830112610b1257610b11610620565b5b8135610b22848260208601610a94565b91505092915050565b600067ffffffffffffffff821115610b4657610b456109af565b5b602082029050602081019050919050565b610b60816108f3565b8114610b6b57600080fd5b50565b600081359050610b7d81610b57565b92915050565b6000610b96610b9184610b2b565b610a0f565b90508083825260208201905060208402830185811115610bb957610bb861062a565b5b835b81811015610be25780610bce8882610b6e565b845260208401935050602081019050610bbb565b5050509392505050565b600082601f830112610c0157610c00610620565b5b8135610c11848260208601610b83565b91505092915050565b600067ffffffffffffffff821115610c3557610c346109af565b5b602082029050602081019050919050565b6000819050919050565b610c5981610c46565b8114610c6457600080fd5b50565b600081359050610c7681610c50565b92915050565b6000610c8f610c8a84610c1a565b610a0f565b90508083825260208201905060208402830185811115610cb257610cb161062a565b5b835b81811015610cdb5780610cc78882610c67565b845260208401935050602081019050610cb4565b5050509392505050565b600082601f830112610cfa57610cf9610620565b5b8135610d0a848260208601610c7c565b91505092915050565b600067ffffffffffffffff821115610d2e57610d2d6109af565b5b602082029050602081019050919050565b600080fd5b600067ffffffffffffffff821115610d5f57610d5e6109af565b5b610d688261099e565b9050602081019050919050565b82818337600083830152505050565b6000610d97610d9284610d44565b610a0f565b905082815260208101848484011115610db357610db2610d3f565b5b610dbe848285610d75565b509392505050565b600082601f830112610ddb57610dda610620565b5b8135610deb848260208601610d84565b91505092915050565b6000610e07610e0284610d13565b610a0f565b90508083825260208201905060208402830185811115610e2a57610e2961062a565b5b835b81811015610e7157803567ffffffffffffffff811115610e4f57610e4e610620565b5b808601610e5c8982610dc6565b85526020850194505050602081019050610e2c565b5050509392505050565b600082601f830112610e9057610e8f610620565b5b8135610ea0848260208601610df4565b91505092915050565b600067ffffffffffffffff821115610ec457610ec36109af565b5b602082029050602081019050919050565b60008115159050919050565b610eea81610ed5565b8114610ef557600080fd5b50565b600081359050610f0781610ee1565b92915050565b6000610f20610f1b84610ea9565b610a0f565b90508083825260208201905060208402830185811115610f4357610f4261062a565b5b835b81811015610f6c5780610f588882610ef8565b845260208401935050602081019050610f45565b5050509392505050565b600082601f830112610f8b57610f8a610620565b5b8135610f9b848260208601610f0d565b91505092915050565b60008060008060008060c08789031215610fc157610fc0610616565b5b600087013567ffffffffffffffff811115610fdf57610fde61061b565b5b610feb89828a01610afd565b965050602087013567ffffffffffffffff81111561100c5761100b61061b565b5b61101889828a01610bec565b955050604087013567ffffffffffffffff8111156110395761103861061b565b5b61104589828a01610ce5565b945050606087013567ffffffffffffffff8111156110665761106561061b565b5b61107289828a01610e7b565b935050608087013567ffffffffffffffff8111156110935761109261061b565b5b61109f89828a01610ce5565b92505060a087013567ffffffffffffffff8111156110c0576110bf61061b565b5b6110cc89828a01610f76565b9150509295509295509295565b600082825260208201905092915050565b7f496e76616c69642061676772656761746f72206172726179206c656e67746873600082015250565b60006111206020836110d9565b915061112b826110ea565b602082019050919050565b6000602082019050818103600083015261114f81611113565b9050919050565b61115f81610a56565b82525050565b61116e81610c46565b82525050565b600081519050919050565b600082825260208201905092915050565b60005b838110156111ae578082015181840152602081019050611193565b60008484015250505050565b60006111c582611174565b6111cf818561117f565b93506111df818560208601611190565b6111e88161099e565b840191505092915050565b60006080820190506112086000830187611156565b61121560208301866108fd565b6112226040830185611165565b818103606083015261123481846111ba565b905095945050505050565b60008151905061124e81610c50565b92915050565b60006020828403121561126a57611269610616565b5b60006112788482850161123f565b91505092915050565b7f41637475616c20616e73776572206e6f742061636365707461626c6500000000600082015250565b60006112b7601c836110d9565b91506112c282611281565b602082019050919050565b600060208201905081810360008301526112e6816112aa565b9050919050565b60006112f88261075c565b9050919050565b611308816112ed565b811461131357600080fd5b50565b600081359050611325816112ff565b92915050565b600064ffffffffff82169050919050565b6113458161132b565b811461135057600080fd5b50565b6000813590506113628161133c565b92915050565b6000806000806080858703121561138257611381610616565b5b600061139087828801611316565b94505060206113a187828801611353565b93505060406113b287828801610ef8565b92505060606113c387828801610b6e565b91505092959194509250565b60006113da82610a56565b9050919050565b6113ea816113cf565b81146113f557600080fd5b50565b600081519050611407816113e1565b92915050565b60006020828403121561142357611422610616565b5b6000611431848285016113f8565b91505092915050565b600060608201905061144f6000830186611156565b61145c6020830185611156565b61146960408301846108fd565b949350505050565b60008151905061148081610ee1565b92915050565b60006020828403121561149c5761149b610616565b5b60006114aa84828501611471565b91505092915050565b6114bc8161132b565b82525050565b6114cb81610ed5565b82525050565b600060a0820190506114e66000830188611156565b6114f360208301876114b3565b61150060408301866114c2565b61150d60608301856108fd565b61151a6080830184611156565b969550505050505056fea264697066735822122024e139b13c4d0e1c4a679cba90cb94eb87079b0bda799f21c02def509920052564736f6c63430008100033",
  "linkReferences": {},
  "deployedLinkReferences": {}
}